:100000000C947E000C94A6000C94A6000C94090598
:100010000C94A6000C94A6000C94A6000C94A600C8
:100020000C94A6000C94A6000C94A6000C94A600B8
:100030000C94A6000C94A6000C94A6000C94A600A8
:100040000C949C060C94A6000C94A9030C948303B6
:100050000C94A6000C94A6000C94A6000C94A60088
:100060000C94DB030C94A600084AD73B3BCE016EF0
:1000700084BCBFFDC12F3D6C74319ABD56833DDAFF
:100080003D00C77F11BED9E4BB4C3E916BAAAABE0E
:10009000000000803F05A84CCDB2D44EB93836A937
:1000A000020C50B9918688083CA6AAAA2ABE000074
:1000B00000803F0000000000250028002B00040401
:1000C0000404040404040202020202020303030300
:1000D00003030102040810204080010204081020DC
:1000E00001020408102000000008000201000003C3
:1000F00004070000000000000000E10F11241FBEF3
:10010000CFEFD8E0DEBFCDBF11E0A0E0B1E0E4E189
:10011000F8E202C005900D92A433B107D9F723E0AD
:10012000A4E3B1E001C01D92A437B207E1F710E0EB
:10013000CEE7D0E004C02197FE010E94A710CD3782
:10014000D107C9F70E94E6060C9408140C9400002D
:1001500008950895CF92DF92EF92FF920F931F932D
:10016000CF93DF936C017A018B01C0E0D0E0CE1514
:10017000DF0581F0D8016D918D01D601ED91FC91E3
:100180000190F081E02DC6010995892B11F021968F
:10019000EECF7E01C701DF91CF911F910F91FF90AC
:1001A000EF90DF90CF900895FC01538D448D252F63
:1001B00030E0842F90E0821B930B541710F0CF9601
:1001C000089501970895FC01918D828D981761F033
:1001D000828DDF01A80FB11D5D968C91928D9F5F7E
:1001E0009F73928F90E008958FEF9FEF0895FC0129
:1001F000918D828D981731F0828DE80FF11D858DDC
:1002000090E008958FEF9FEF0895FC01918D228D6E
:10021000892F90E0805C9F4F821B91098F739927F3
:10022000089586EB92E00E94050121E0892B09F4F4
:1002300020E0822F0895FC01848DDF01A80FB11DFD
:10024000A35ABF4F2C91848D90E001968F7399270C
:10025000848FA689B7892C93A089B1898C918370EA
:1002600080648C93938D848D981306C00288F389E3
:10027000E02D80818F7D80830895EF92FF920F9310
:100280001F93CF93DF93EC0181E0888F9B8D8C8D42
:10029000981305C0E889F989808185FD26C0F62E6E
:1002A0000B8D10E00F5F1F4F0F731127E02E8C8D09
:1002B000E8120CC00FB607FCFACFE889F9898081F3
:1002C00085FFF5CFCE010E941B01F1CF8B8DFE0182
:1002D000E80FF11DE35AFF4FF0829FB7F8940B8FA0
:1002E000EA89FB89808180620AC09FB7F894EE8911
:1002F000FF896083E889F9898081837080648083C5
:100300009FBF81E090E0DF91CF911F910F91FF900F
:10031000EF900895CF93DF93EC01888D8823C9F087
:10032000EA89FB89808185FD05C0A889B9898C91FE
:1003300086FD0FC00FB607FCF5CF808185FFF2CF99
:10034000A889B9898C9185FFEDCFCE010E941B0150
:10035000E7CFDF91CF91089580E090E0892B29F0DD
:100360000E94110181110C940000089585ED809385
:10037000BC008091BC0084FDFCCF109291020895D6
:1003800040918C01262F30E0240F311D21323105A0
:10039000DCF4209191022430C9F4FC0180E090E06B
:1003A000861758F430918C012191DC01A459BE4F7D
:1003B000A30FB11D2C930196F3CF80918C01680F90
:1003C00060938C0180E0089581E0089582E00895B3
:1003D0000895E091B4018091B301E81730F4F0E0A2
:1003E000E45BFE4F808190E008958FEF9FEF0895CA
:1003F0009091B4018091B301981750F4E92FF0E087
:10040000E45BFE4F208130E09F5F9093B40102C017
:100410002FEF3FEFC90108958091B30190E0209143
:10042000B401821B91090895CF92DF92EF92FF925F
:100430000F931F93CF93DF937C01CB018A0120910F
:100440009202222389F0EB016B01C40ED51ECC155C
:10045000DD0569F06991D701ED91FC910190F08182
:10046000E02DC7010995F3CF642F0E94C001C80198
:10047000DF91CF911F910F91FF90EF90DF90CF9080
:100480000895CF93DF931F92CDB7DEB76983209194
:1004900092022223D1F02091B502203240F021E0D7
:1004A00030E0FC013383228380E090E015C080912E
:1004B0009302E82FF0E0EC56FD4F998190838F5F17
:1004C000809393028093B50205C061E0CE0101964E
:1004D0000E94C00181E090E00F90DF91CF910895DC
:1004E000089580E090E00895CF9381E08093920298
:1004F00088E68093B402109293021092B5028BE3C7
:1005000090E00E94D0050E94D50580919102811152
:10051000FCCF81E080939102809390029FEF9093B3
:100520008F0210928E029DE090938D0280936C0258
:1005300080916C02806D80936C0280916B0281309F
:1005400061F410926B0280916C028093BB008091E9
:10055000BC0083FDF8CF85EC01C085EE8093BC0024
:10056000809191028130E1F380918E028E3018F4F7
:1005700090918E0201C09EE0EDE6F2E0ACE4B1E0C5
:1005800080E0891721F021912D938F5FFACF10928F
:10059000B4018093B30190E00F970CF0B0C083E5F5
:1005A00093E00E94F801C82F83E593E00E94F801D0
:1005B00060E070E07C2F862B972BBC01990F880B95
:1005C000990B0E94F8116093550270935602809324
:1005D00057029093580283E593E00E94F801C82FD8
:1005E00083E593E00E94F80160E070E07C2F862BA9
:1005F000972BBC01990F880B990B0E94F8116093FF
:10060000590270935A0280935B0290935C0283E5D7
:1006100093E00E94F801C82F83E593E00E94F8015F
:1006200060E070E07C2F862B972BBC01990F880B24
:10063000990B0E94F81160935D0270935E028093A3
:100640005F029093600283E593E00E94F80183E5E6
:1006500093E00E94F80183E593E00E94F801C82F1F
:1006600083E593E00E94F80160E070E07C2F862B28
:10067000972BBC01990F880B990B0E94F81160937E
:10068000350270933602809337029093380283E5E7
:1006900093E00E94F801C82F83E593E00E94F801DF
:1006A00060E070E07C2F862B972BBC01990F880BA4
:1006B000990B0E94F8116093390270933A0280936B
:1006C0003B0290933C0283E593E00E94F801C82F1F
:1006D00083E593E00E94F80160E070E07C2F862BB8
:1006E000972BBC01990F880B990B0E94F81160930E
:1006F0003D0270933E0280933F0290934002CF915F
:1007000008950E9403141F920F920FB60F921124A6
:100710002F933F934F935F936F937F938F939F9309
:10072000AF93BF93EF93FF9386EB92E00E941B0180
:10073000FF91EF91BF91AF919F918F917F916F91B9
:100740005F914F913F912F910F900FBE0F901F908F
:1007500018951F920F920FB60F9211242F938F931B
:100760009F93EF93FF93E091C602F091C7028081BF
:10077000E091CC02F091CD0282FD12C09081809177
:10078000CF028F5F8F732091D002821751F0E091DA
:10079000CF02F0E0EA54FD4F958F8093CF0201C065
:1007A0008081FF91EF919F918F912F910F900FBEBC
:1007B0000F901F9018951F920F920FB60F92112451
:1007C0002F933F934F935F936F937F938F939F9359
:1007D000AF93BF93EF93FF938091B900887F8036EA
:1007E00009F49CC068F5883209F45BC090F480314C
:1007F00009F454C038F4882309F4F6C0883009F4A9
:100800004DC0F6C0883109F44CC0803209F45DC097
:10081000EFC0803409F468C048F4803309F455C04F
:10082000883309F0E5C080938F02D8C0803509F481
:100830004FC0883509F45DC0883409F0D9C0D6C0EE
:10084000883909F4C7C0A8F4883709F467C038F4B8
:10085000883609F463C0803709F460C0C9C088389D
:1008600009F4B8C0803909F45FC0803809F0C0C00D
:100870005BC0803B09F486C038F4803A09F466C056
:10088000883A09F47FC0B4C0803C09F4A7C0883C12
:1008900009F4A4C0883B09F48AC0AAC080916C0204
:1008A00010C090918E0280918D02981770F5E091A2
:1008B0008E0281E08E0F80938E02F0E0E359FD4FAF
:1008C00080818093BB0085EC86C080938F028EC0B0
:1008D000E0918E0281E08E0F80938E028091BB00AA
:1008E000F0E0E359FD4F808390918E0280918D025C
:1008F0006EC0E0918E0281E08E0F80938E02809117
:10090000BB00F0E0E359FD4F80838091900281119C
:100910006DC081E080936B0284EA61C083E08093C4
:1009200091021092AE01CFCF8091AE01803208F0DB
:1009300051C0E091AE0181E08E0F8093AE018091B5
:10094000BB00F0E0E257FE4F8083BDCF85EC809383
:10095000BC00109291028091AE01803230F4E0919F
:10096000AE01F0E0E257FE4F10826091AE0170E000
:10097000E091AF01F091B0018EE891E009951092FD
:10098000AE0136C084E08093910210928D011092E6
:100990008C01E091B101F091B201099580918C0137
:1009A000811105C081E080938C0110926C01E0916F
:1009B0008D0181E08E0F80938D01F0E0E459FE4FB0
:1009C00080818093BB0090918D0180918C0198175C
:1009D00008F479CF85E88093BC000AC085EC809349
:1009E000BC001092910204C010928F020E94B601C6
:1009F000FF91EF91BF91AF919F918F917F916F91F7
:100A00005F914F913F912F910F900FBE0F901F90CC
:100A100018951F920F920FB60F9211242F933F93A8
:100A20004F935F936F937F938F939F93AF93BF93F6
:100A3000EF93FF930E94770620914A0130914B017A
:100A4000189B11C0232B09F521E030E030934B01B6
:100A500020934A01609346017093470180934801B7
:100A60009093490112C02130310579F410924B0165
:100A700010924A012091460130914701AB01421B7F
:100A8000530B50930602409305022091440130918C
:100A90004501199B11C0232B09F521E030E030936B
:100AA000450120934401609340017093410180937C
:100AB00042019093430112C02130310579F4109224
:100AC0004501109244012091400130914101AB0158
:100AD000421B530B50930C0240930B0220913E019A
:100AE00030913F011A9B11C0232B09F521E030E022
:100AF00030933F0120933E0160933A0170933B0194
:100B000080933C0190933D0112C02130310579F46E
:100B100010923F0110923E0120913A0130913B0129
:100B2000AB01421B530B5093FE014093FD012091FA
:100B30003801309139011B9B11C0232B01F521E0B5
:100B400030E0309339012093380160933401709381
:100B50003501809336019093370111C02130310562
:100B600071F41092390110923801209134013091C2
:100B70003501621B730B709300026093FF01FF91BC
:100B8000EF91BF91AF919F918F917F916F915F9105
:100B90004F913F912F910F900FBE0F901F9018957E
:100BA000682F83E593E00C9441023091B502313215
:100BB00008F04BC0809191028111FCCF9091B4025A
:100BC00022E02093910221E0209390022FEF2093C6
:100BD0008F0210928E0230938D02E4E9F2E0ADE6CE
:100BE000B2E020E0321721F041914D932F5FFACF10
:100BF00010926C0220916C02990F922B90936C02D0
:100C000090916B02913061F410926B0290916C02A2
:100C10009093BB009091BC0093FDF8CF95EC01C080
:100C200095EE9093BC00909191029230E1F39091F7
:100C30008F029F3F79F080918F02803241F0809146
:100C40008F02803331F084E005C081E003C082E090
:100C500001C083E0109293021092B50210929202AA
:100C6000089590E0FC01EA51FF4F2491FC01EE52FF
:100C7000FF4F3491FC01E254FF4FE491EE23B1F1B8
:100C8000222339F1233091F038F42130A9F02230B9
:100C900001F584B58F7D12C0273091F02830A1F086
:100CA0002430B9F4809180008F7D03C08091800052
:100CB0008F77809380000DC084B58F7784BD09C085
:100CC0008091B0008F7703C08091B0008F7D8093BA
:100CD000B000F0E0EE0FFF1FEC54FF4FA591B49170
:100CE0008FB7F894EC91E32BEC938FBF08953FB747
:100CF000F8948091700390917103A0917203B09168
:100D0000730326B5A89B05C02F3F19F00196A11DBE
:100D1000B11D3FBFBA2FA92F982F8827820F911D91
:100D2000A11DB11DBC01CD0142E0660F771F881FD8
:100D3000991F4A95D1F708951F920F920FB60F92FF
:100D400011242F933F938F939F93AF93BF938091E1
:100D50006C0390916D03A0916E03B0916F0330917D
:100D60006B0323E0230F2D3720F40196A11DB11D45
:100D700005C026E8230F0296A11DB11D20936B0329
:100D800080936C0390936D03A0936E03B0936F03F5
:100D90008091700390917103A0917203B0917303DD
:100DA0000196A11DB11D8093700390937103A093D0
:100DB0007203B0937303BF91AF919F918F913F9155
:100DC0002F910F900FBE0F901F901895CF93DF9328
:100DD000CDB7DEB7ED970FB6F894DEBF0FBECDBF2F
:100DE000789484B5826084BD84B5816084BD85B506
:100DF000826085BD85B5816085BD80916E00816012
:100E000080936E00109281008091810082608093B7
:100E100081008091810081608093810080918000B9
:100E20008160809380008091B10084608093B100E4
:100E30008091B00081608093B00080917A008460DE
:100E400080937A0080917A00826080937A0080910A
:100E50007A00816080937A0080917A008068809324
:100E60007A001092C10091E0909368008FE0809327
:100E70006B008AB1806F8AB91092B4011092B301ED
:100E8000109293021092B5021092910290939002E8
:100E900010926B0282E10E94310683E10E943106CA
:100EA0008091B9008E7F8093B9008091B9008D7FC9
:100EB0008093B90088E48093B80085E48093BC00F7
:100EC00088EA90E09093B2018093B10189EA90E0C2
:100ED0009093B0018093AF018CE08093B80082EED4
:100EE00094E06BE97FE04BED5EE22BB1206F2BB914
:100EF000FB013197F1F72BB12F702BB9FA01319724
:100F0000F1F7019791F701E00093920218E6109330
:100F1000B402109293021092B5028BE690E00E9408
:100F2000D00580E090E00E94D0050E94D505009396
:100F300092021093B402109293021092B5028BE1C8
:100F400090E00E94D00588E090E00E94D0050E94C9
:100F5000D505009392021093B4021092930210925E
:100F6000B5028CE190E00E94D00580E090E00E9404
:100F7000D0050E94D50501ED17E0EBE9AE2EEFE0BC
:100F8000BE2EFBED8F2EFEE29F2E0E94740260911A
:100F900025027091260280912702909128020E94DA
:100FA000F81120913502309136024091370250916C
:100FB00038020E94AE100E94C0112B013C016093C8
:100FC0002502709326028093270290932802609155
:100FD000290270912A0280912B0290912C020E948A
:100FE000F8112091390230913A0240913B02509120
:100FF0003C020E94AE100E94C0116B017C01609304
:10100000290270932A0280932B0290932C02609104
:101010002D0270912E0280912F02909130020E9439
:10102000F81120913D0230913E0240913F025091D3
:1010300040020E94AE100E94C0116AA37BA38CA341
:101040009DA360932D0270932E0280932F029093A4
:1010500030028BB1806F8BB9C5010197F1F78BB16D
:101060008F708BB9C4010197F1F70150110909F094
:101070008CCF60ED862E67E0962EA12CB12CC3019B
:10108000B201A50194010E947410209325023093AF
:1010900026024093270250932802C701B601A501FA
:1010A00094010E9474102093290230932A024093E5
:1010B0002B0250932C026AA17BA18CA19DA1A501BA
:1010C00094010E94741020932D0230932E024093BD
:1010D0002F025093300280916800816080936800F5
:1010E00080916B00816080936B0080916B008260C7
:1010F00080936B0080916B00846080936B00809183
:101100006B00886080936B00E091C602F091C7028B
:1011100082E08083E091C202F091C3021082E091EC
:10112000C402F091C50210821092CE02E091CA0270
:10113000F091CB0286E08083E091C802F091C90271
:10114000808180618083E091C802F091C902808132
:1011500088608083E091C802F091C9028081806834
:101160008083E091C802F091C90280818F7D8083E5
:1011700076E0272E312C0E947706609367027093E9
:1011800068028093690290936A0280916102909153
:101190006202892B09F077C00E947402C090590244
:1011A000D0905A02E0905B02F0905C0240905502B1
:1011B00050905602609057027090580260915D0204
:1011C00070915E0280915F02909160029B01AC0180
:1011D0000E94DC124B015C01A3019201C301B20128
:1011E0000E94DC12A50194010E94AE100E945713C8
:1011F0009B01AC01C701B6010E944E110E941A1159
:101200006AA37BA38CA39DA3A7019601C701B60186
:101210000E94DC12A50194010E94AE100E94571397
:101220009B01AC01C301B2010E944E110E941A1130
:101230006B017C012BE13FE245E652E46AA17BA110
:101240008CA19DA10E94DC1260934502709346021E
:1012500080934702909348022BE13FE245E652EC2F
:10126000C701B6010E94DC126093490270934A02E2
:1012700080934B0290934C02CC24C394D12CD092F7
:101280006202C09261020E94740260912502709114
:10129000260280912702909128020E94F8119B015A
:1012A000AC016091350270913602809137029091C5
:1012B00038020E94AD106B017C016091290270918F
:1012C0002A0280912B0290912C020E94F8119B011E
:1012D000AC016091390270913A0280913B02909189
:1012E0003C020E94AD102B013C0120913D02309147
:1012F0003E0240913F02509140022EA33FA348A7D7
:1013000059A760912D0270912E0280912F02909129
:1013100030020E94F8119B01AC016EA17FA188A54B
:1013200099A50E94AD1020E030E043E852E40E940D
:101330004E116EA77FA788AB99AB2AE939E949E13D
:101340005FE36091150270911602809117029091EF
:1013500018020E94DC124B015C0120E030E043E8FF
:1013600052E4C701B6010E944E112DEC3CEC4CEC4E
:101370005EE30E94DC129B01AC01C501B4010E9436
:10138000AE106AA37BA38CA39DA3609315027093F8
:10139000160280931702909318022AE939E949E16D
:1013A0005FE36091190270911A0280911B02909183
:1013B0001C020E94DC124B015C0120E030E043E89B
:1013C00052E4C301B2010E944E112DEC3CEC4CECF6
:1013D0005EE30E94DC129B01AC01C501B4010E94D6
:1013E000AE106AA77BA78CA79DA760931902709384
:1013F0001A0280931B0290931C022AE939E949E101
:101400005FE360911D0270911E0280911F02909116
:1014100020020E94DC124B015C012DEC3CEC4CECF8
:101420005EE36EA57FA588A999A90E94DC129B01A5
:10143000AC01C501B4010E94AE106EA77FA788ABB6
:1014400099AB60931D0270931E0280931F029093CC
:10145000200220ED32E240E858E3C701B6010E94C5
:10146000DC12209145023091460240914702509192
:1014700048020E94AE106AAB7BAB8CAB9DAB2BE7F6
:1014800033E14FE855E36EA17FA188A599A50E949D
:10149000DC120E9449136EA37FA388A799A720EDB1
:1014A00032E240E858E3C301B2010E94DC1220910D
:1014B000490230914A0240914B0250914C020E94E5
:1014C000AE106B017C012EA13FA148A559A56AA9C8
:1014D0007BA98CA99DA90E94DC129B01AC01C701CC
:1014E000B6010E94AD102B013C01C0905902D09072
:1014F0005A02E0905B02F0905C028090550290905E
:101500005602A0905702B090580260915D0270910F
:101510005E0280915F02909160029B01AC010E948B
:10152000DC126EAB7FAB88AF99AFA5019401C5010A
:10153000B4010E94DC122EA93FA948AD59AD0E940A
:10154000AE100E9457139B01AC01C701B6010E9467
:101550004E110E941A116AAF7BAF8CAF9DAFA701ED
:101560009601C701B6010E94DC122EA93FA948AD21
:1015700059AD0E94AE100E9457139B01AC01C501EA
:10158000B4010E944E110E941A116B017C01A3014B
:1015900092016EA17FA188A599A50E94DC122AA9BB
:1015A0003BA94CA95DA90E94AE1025E035EC4FE7A0
:1015B0005FE30E94DC124B015C012BE13FE245E658
:1015C00052E46AAD7BAD8CAD9DAD0E94DC122AEF7A
:1015D0003DEE4BE65AE30E94DC129B01AC01C501D3
:1015E000B4010E94AE104B015C0160934502709300
:1015F000460280934702909348022BE13FE245E682
:1016000052ECC701B6010E94DC122AEF3DEE4BE618
:101610005AE30E94DC126B017C0125E035EC4FE7B8
:101620005FE3C301B2010E94DC129B01AC01C70160
:10163000B6010E94AE106093490270934A028093F3
:101640004B0290934C0220E030E040EA50E40E94CC
:10165000DC122B013C0120E030E040EA50E4C501FF
:10166000B4010E94DC126B017C0110920D021092F9
:101670000E0210920F021092100280910B029091B4
:101680000C02853036E093071CF08450964006C06B
:10169000843B45E094079CF4845B9540B1010E9433
:1016A0003E10072E000C880B990B0E94F8116093D6
:1016B0000D0270930E0280930F029093100210920D
:1016C0000702109208021092090210920A028091F9
:1016D000050290910602853056E095071CF0845073
:1016E000964006C0843BA5E09A079CF4845B954035
:1016F000B1010E943E10072E000C880B990B0E942E
:10170000F811609307027093080280930902909386
:101710000A02109201021092020210920302109229
:1017200004028091FF01909100028530B6E09B0792
:101730001CF08450964006C0843BE5E09E079CF474
:10174000845B9540B1010E943E10072E000C880B6F
:10175000990B0E94F811609301027093020280932A
:101760000302909304028091FD019091FE01813467
:10177000964034F020E436E03093FE012093FD01E2
:10178000A301920160910702709108028091090201
:1017900090910A020E94AD102B013C016093070258
:1017A000709308028093090290930A02A7019601A0
:1017B00060910D0270910E0280910F0290911002C3
:1017C0000E94AD106EA37FA388A799A760930D0216
:1017D00070930E0280930F0290931002A301920166
:1017E0006AA57BA58CA59DA50E94AD106B017C010F
:1017F00020916703309168034091690350916A0317
:101800000E94DC126AAB7BAB8CAB9DAB2091630377
:10181000309164034091650350916603C701B6019E
:101820000E94DC122091F9013091FA014091FB01F4
:101830005091FC010E94AE104B015C016093F901D4
:101840007093FA018093FB019093FC012091F501C4
:101850003091F6014091F7015091F801C701B601AE
:101860000E94AD102091F1013091F2014091F301FD
:101870005091F4010E94AE1020915F0330916003FB
:1018800040916103509162030E94DC126B017C0164
:10189000A50194016AA97BA98CA99DA90E94AE10FB
:1018A0009B01AC01C701B6010E94AE106AAB7BABD5
:1018B0008CAB9DAB6093ED017093EE018093EF01D3
:1018C0009093F001CAA4DBA4ECA4FDA4C092F5019E
:1018D000D092F601E092F701F092F8014092F10106
:1018E0005092F2016092F3017092F4012EA13FA197
:1018F00048A559A56AA17BA18CA19DA10E94AD100C
:101900006B017C012FE632E143E85AE30E94DC12CE
:101910002091E9013091EA014091EB015091EC01F5
:101920000E94AE104B015C016093E9017093EA01E3
:101930008093EB019093EC012091E5013091E60159
:101940004091E7015091E801C701B6010E94AD1036
:101950002091E1013091E2014091E3015091E401D5
:101960000E94AE1020E030E040EE51E40E94DC1214
:101970002B013C0126E636E646E050E4C701B601FD
:101980000E94DC12A50194010E94AE109B01AC01E3
:10199000C301B2010E94AE102B013C016093DD0136
:1019A0007093DE018093DF019093E001CAA0DBA079
:1019B000ECA0FDA0C092E501D092E601E092E70123
:1019C000F092E801CEA0DFA0E8A4F9A4C092E10162
:1019D000D092E201E092E301F092E401C0900102B2
:1019E000D0900202E0900302F0900402CAA2DBA2AF
:1019F000ECA2FDA2A70196016EA57FA588A999A9D1
:101A00000E94AD106B017C012AE037ED43E25CE3FC
:101A10000E94DC122091D9013091DA014091DB0162
:101A20005091DC010E94AE104B015C016093D90122
:101A30007093DA018093DB019093DC012091D50152
:101A40003091D6014091D7015091D801C701B6011C
:101A50000E94AD102091D1013091D2014091D3016B
:101A60005091D4010E94AE1020E030E0A9010E9404
:101A7000DC126AA77BA78CA79DA720E030E040EC92
:101A80005FE3C701B6010E94DC12A50194010E9428
:101A9000AE109B01AC016AA57BA58CA59DA50E94FB
:101AA000AE106B017C016093CD017093CE018093E9
:101AB000CF019093D0012EA53FA548A959A9209305
:101AC000D5013093D6014093D7015093D8018AA114
:101AD0009BA1ACA1BDA18093D1019093D201A09311
:101AE000D301B093D40120E030E048EC53E46AA97C
:101AF0007BA98CA99DA90E94CF1287FD0CC080E014
:101B000090E0A8ECB3E48093ED019093EE01A093F4
:101B1000EF01B093F00120E030E048EC53EC60912D
:101B2000ED017091EE018091EF019091F0010E9422
:101B30004911181664F080E090E0A8ECB3EC8093B3
:101B4000ED019093EE01A093EF01B093F00120E03E
:101B500030E048EC53E4C301B2010E94CF1287FD8C
:101B60000CC080E090E0A8ECB3E48093DD0190939A
:101B7000DE01A093DF01B093E00120E030E048EC0B
:101B800053EC6091DD017091DE018091DF01909155
:101B9000E0010E944911181664F080E090E0A8EC82
:101BA000B3EC8093DD019093DE01A093DF01B0934D
:101BB000E00120E030E048EC53E4C701B6010E94A8
:101BC000CF1287FD0CC080E090E0A8ECB3E48093D6
:101BD000CD019093CE01A093CF01B093D00120E02E
:101BE00030E048EC53EC6091CD017091CE018091D2
:101BF000CF019091D0010E944911181664F080E045
:101C000090E0A8ECB3EC8093CD019093CE01A0932B
:101C1000CF01B093D0016091FD017091FE01072EBC
:101C2000000C880B990B0E94F8114B015C01C090CD
:101C3000DD01D090DE01E090DF01F090E001CAA666
:101C4000DBA6ECA6FDA6A70196010E94AD102B0114
:101C50003C01C090ED01D090EE01E090EF01F090DA
:101C6000F001CAA2DBA2ECA2FDA2C090CD01D090EF
:101C7000CE01E090CF01F090D0012AA13BA14CA170
:101C80005DA10E94AD10A70196010E94AD100E94B7
:101C9000C7116EA77FA788AB99AB6093BD01709306
:101CA000BE018093BF019093C0012AA13BA14CA12A
:101CB0005DA1C301B2010E94AE10A70196010E946E
:101CC000AE100E94C7116EA37FA388A799A7609347
:101CD000C1017093C2018093C3019093C4012AA5EE
:101CE0003BA54CA55DA5C501B4010E94AE102B011A
:101CF0003C019B01AC016AA17BA18CA19DA10E942A
:101D0000AE10A70196010E94AD100E94C7114B01B1
:101D10005C016093C5017093C6018093C7019093E5
:101D2000C8012AA13BA14CA15DA1C301B2010E943F
:101D3000AD10A70196010E94AE100E94C7116093DA
:101D4000C9017093CA018093CB019093CC01CEA4BA
:101D5000DFA4E8A8F9A821E4C21624E0D206E10431
:101D6000F10470F440E4C42E44E0D42EE12CF12CB4
:101D7000C092BD01D092BE01E092BF01F092C001BD
:101D8000CEA0DFA0E8A4F9A421E4C21624E0D20684
:101D9000E104F10470F430E4C32E34E0D32EE12CDE
:101DA000F12CC092C101D092C201E092C301F09225
:101DB000C40121E4821624E09206A104B10470F467
:101DC00020E4C22E24E0D22EE12CF12CC092C501D9
:101DD000D092C601E092C701F092C801613474400C
:101DE0008105910560F480E494E0A0E0B0E0809388
:101DF000C9019093CA01A093CB01B093CC0180910B
:101E0000BD019091BE01A091BF01B091C001803D84
:101E10009740A105B10570F090EDC92E97E0D92E3D
:101E2000E12CF12CC092BD01D092BE01E092BF0125
:101E3000F092C0018091C1019091C201A091C301B3
:101E4000B091C401803D9740A105B10560F080EDDF
:101E500097E0A0E0B0E08093C1019093C201A0930D
:101E6000C301B093C4018091C5019091C601A091B6
:101E7000C701B091C801803D9740A105B10570F040
:101E800080EDC82E87E0D82EE12CF12CC092C50140
:101E9000D092C601E092C701F092C8018091C901B9
:101EA0009091CA01A091CB01B091CC01803D9740A7
:101EB000A105B10560F080ED97E0A0E0B0E080936F
:101EC000C9019093CA01A093CB01B093CC010E94A9
:101ED00077066093B5017093B6018093B701909334
:101EE000B8018BB1806F8BB90E94770660936B024B
:101EF00070936C0280936D0290936E020091670262
:101F0000109168022091690230916A026B017C0194
:101F1000C01AD10AE20AF30AA701960119A28E019A
:101F20000F5D1F4FCA01B9012AE030E040E050E0E8
:101F30000E945210605DD8016E938D01211531050C
:101F40004105510579F7109769F0FD0101900020D6
:101F5000E9F73197AF014A1B5B0BBD0186EB92E0BD
:101F60000E94AA0042E050E060E371E086EB92E05C
:101F70000E94AA0080916B0290916C02A0916D0268
:101F8000B0916E02409167025091680260916902BF
:101F900070916A02841B950BA60BB70B813A9F4088
:101FA000A105B10558F40E94770660936B02709307
:101FB0006C0280936D0290936E02DCCF0E94AC01A4
:101FC000DAC8E6EBF2E01382128288EE93E0A0E03A
:101FD000B0E084839583A683B78324E031E0318326
:101FE000208325EC30E03587248724EC30E03787E8
:101FF000268720EC30E0318B208B21EC30E0338BD6
:10200000228B22EC30E0358B248B26EC30E0378BB2
:10201000268B118E128E138E148EE3E5F3E013825D
:10202000128284839583A683B78386E191E09183AE
:10203000808386E696E6A6E0B0E4809367039093FB
:102040006803A0936903B0936A038FE692E1A3E863
:10205000BAE38093630390936403A0936503B09302
:10206000660380E090E0A0EEB1E480935F0390937C
:102070006003A0936103B0936203089597FB072E5A
:1020800016F4009407D077FD09D00E94931007FC46
:1020900005D03EF4909581959F4F08957095619578
:1020A0007F4F0895A1E21A2EAA1BBB1BFD010DC094
:1020B000AA1FBB1FEE1FFF1FA217B307E407F507F8
:1020C00020F0A21BB30BE40BF50B661F771F881FD4
:1020D000991F1A9469F760957095809590959B016A
:1020E000AC01BD01CF010895052E97FB1EF40094AD
:1020F0000E948B1057FD07D00E94521007FC03D09E
:102100004EF40C948B1050954095309521953F4F8F
:102110004F4F5F4F089590958095709561957F4FD3
:102120008F4F9F4F0895AA1BBB1B51E107C0AA1FE9
:10213000BB1FA617B70710F0A61BB70B881F991F68
:102140005A95A9F780959095BC01CD010895EE0FA1
:10215000FF1F0590F491E02D09945058BB27AA2742
:102160000E94C5100C9495120E94871238F00E94AC
:102170008E1220F039F49F3F19F426F40C945D126E
:102180000EF4E095E7FB0C945712E92F0E94A6127B
:1021900058F3BA17620773078407950720F079F49C
:1021A000A6F50C94C8120EF4E0950B2EBA2FA02DB4
:1021B0000B01B90190010C01CA01A0011124FF27F4
:1021C000591B99F0593F50F4503E68F11A16F040EF
:1021D000A22F232F342F4427585FF3CF46953795EE
:1021E0002795A795F0405395C9F77EF41F16BA0BB3
:1021F000620B730B840BBAF09150A1F0FF0FBB1F61
:10220000661F771F881FC2F70EC0BA0F621F731FA9
:10221000841F48F4879577956795B795F7959E3F06
:1022200008F0B0CF9395880F08F09927EE0F979597
:1022300087950895DF93DD27B92FBF7740E85FE3E7
:102240001616170648075B0718F4D92F0E94D412F8
:102250009F938F937F936F930E949713E8E6F0E02C
:102260000E9460120E9495122F913F914F915F91B1
:102270000E94EF12DD2351F09058A2EA2AED3FE0D0
:1022800049EC5FE3D0785D270E94C510DF910C9484
:1022900095120E94331208F481E008950E946211A1
:1022A0000C9495120E948E1258F00E94871240F0F2
:1022B00029F45F3F29F00C94571251110C94C91264
:1022C0000C945D120E94A61268F39923B1F3552372
:1022D00091F3951B550BBB27AA2762177307840739
:1022E00038F09F5F5F4F220F331F441FAA1FA9F3CF
:1022F00035D00E2E3AF0E0E832D091505040E695BD
:10230000001CCAF72BD0FE2F29D0660F771F881F1D
:10231000BB1F261737074807AB07B0E809F0BB0B10
:10232000802DBF01FF2793585F4F3AF09E3F510524
:1023300078F00C9457120C94C9125F3FE4F3983E66
:10234000D4F3869577956795B795F7959F5FC9F70D
:10235000880F911D9695879597F90895E1E0660F8E
:10236000771F881FBB1F621773078407BA0720F007
:10237000621B730B840BBA0BEE1F88F7E095089570
:102380000E94C7116894B1110C94C91208950E945B
:10239000AE1288F09F5798F0B92F9927B751B0F037
:1023A000E1F0660F771F881F991F1AF0BA95C9F7D9
:1023B00014C0B13091F00E94C812B1E008950C949D
:1023C000C812672F782F8827B85F39F0B93FCCF350
:1023D000869577956795B395D9F73EF49095809556
:1023E000709561957F4F8F4F9F4F0895E89409C076
:1023F00097FB3EF490958095709561957F4F8F4F38
:102400009F4F9923A9F0F92F96E9BB279395F6954D
:10241000879577956795B795F111F8CFFAF4BB0FCB
:1024200011F460FF1BC06F5F7F4F8F4F9F4F16C02F
:10243000882311F096E911C0772321F09EE8872FB9
:10244000762F05C0662371F096E8862F70E060E075
:102450002AF09A95660F771F881FDAF7880F9695EE
:10246000879597F90895990F0008550FAA0BE0E892
:10247000FEEF16161706E807F907C0F01216130646
:10248000E407F50798F0621B730B840B950B39F486
:102490000A2661F0232B242B252B21F408950A26EC
:1024A00009F4A140A6958FEF811D811D089597F92C
:1024B0009F6780E870E060E008959FEF80EC0895EA
:1024C000DF93CF931F930F93FF92EF92DF927B01E5
:1024D0008C01689406C0DA2EEF010E94EF12FE0113
:1024E000E894A5912591359145915591A6F3EF0179
:1024F0000E94C510FE019701A801DA9469F7DF90E8
:10250000EF90FF900F911F91CF91DF9108950024DC
:102510000A941616170618060906089500240A9448
:1025200012161306140605060895092E0394000CCE
:1025300011F4882352F0BB0F40F4BF2B11F460FF5D
:1025400004C06F5F7F4F8F4F9F4F089557FD905886
:10255000440F551F59F05F3F71F04795880F97FB67
:10256000991F61F09F3F79F0879508951216130621
:102570001406551FF2CF4695F1DF08C01616170650
:102580001806991FF1CF8695710561050894089585
:10259000E894BB2766277727CB0197F908950E9417
:1025A000331208F48FEF08959B01AC0160E070E0F6
:1025B00080E89FE30C944E110E94EF120C94951248
:1025C0000E94871238F00E948E1220F0952311F09D
:1025D0000C9457120C945D1211240C94C9120E9491
:1025E000A61270F3959FC1F3950F50E0551F629F9F
:1025F000F001729FBB27F00DB11D639FAA27F00D5C
:10260000B11DAA1F649F6627B00DA11D661F829F82
:102610002227B00DA11D621F739FB00DA11D621F67
:10262000839FA00D611D221F749F3327A00D611D84
:10263000231F849F600D211D822F762F6A2F112466
:102640009F5750409AF0F1F088234AF0EE0FFF1F99
:10265000BB1F661F771F881F91505040A9F79E3FF0
:10266000510580F00C9457120C94C9125F3FE4F3AB
:10267000983ED4F3869577956795B795F795E79546
:102680009F5FC1F7FE2B880F911D9695879597F94F
:1026900008959F930E94B2130F9007FCEE5F0C9475
:1026A000DB1319F416F40C945D120C949B130E9426
:1026B000AE12B8F39923C9F3B6F39F57550B87FFB2
:1026C0000E94A9130024A0E640EA90018058569584
:1026D000979528F4805C660F771F881F20F02617D7
:1026E0003707480730F4621B730B840B202931290C
:1026F0004A2BA69517940794202531254A2758F789
:10270000660F771F881F20F026173707480730F419
:10271000620B730B840B200D311D411DA09581F7B9
:10272000B901842F9158880F9695879508959B013C
:10273000AC010C94DC129F3F31F0915020F487954E
:1027400077956795B795880F911D9695879597F919
:10275000089591505040660F771F881FD2F7089553
:102760000C945D120E94AE12D8F3E894E0E0BB270F
:102770009F57F0F02AED3FE049EC06C0EE0FBB0F8B
:10278000661F771F881F28F0B23A62077307840715
:1027900028F0B25A620B730B840BE3959A9572F78B
:1027A000803830F49A95BB0F661F771F881FD2F7C9
:1027B00090480C949D13EF93E0FF07C0A2EA2AED26
:1027C0003FE049EC5FEB0E94C5100E9495120F900C
:1027D000039401FC9058E5E9F0E00C94EF139F930B
:1027E0008F937F936F93FF93EF939B01AC010E94B4
:1027F000DC12EF91FF910E9460122F913F914F9157
:102800005F910C94DC1281E090E0F8940C94081431
:04281000F894FFCF6A
:10281400000000003D01AA00D4008A010501E30084
:10282400F70000000000410214027102E8010C02EA
:10283400F801E9010000E0416F12833A6666064040
:042844000D0A000079
:00000001FF
