:100000000C9485000C94AD000C94AD000C9410057C
:100010000C94AD000C94AD000C94AD000C94AD00AC
:100020000C94AD000C94AD000C94AD000C94AD009C
:100030000C94AD000C94AD000C94AD000C94AD008C
:100040000C94D6070C94AD000C94B0030C948A0366
:100050000C94AD000C94AD000C94AD000C94AD006C
:100060000C94E2030C94AD00036EDB363D9A999933
:10007000993DABAAAA2A3E000000803F072C7AA532
:10008000BA6CC590DA3B9365FC8BBC53F810FD3C11
:100090005692834DBD879D3AB63DCBC9BF5BBE73BB
:1000A000DA0FC93F05A84CCDB2D44EB93836A902F3
:1000B0000C50B9918688083CA6AAAA2ABE00000066
:1000C000803F00000000250028002B0004040404E9
:1000D00004040404020202020202030303030303F2
:1000E00001020408102040800102040810200102CF
:1000F00004081020000000080002010000030407AB
:100100000000000000000000331111241FBECFEFDB
:10011000D8E0DEBFCDBF11E0A0E0B1E0E2EBFAE253
:1001200002C005900D92A636B107D9F723E0A6E6E6
:10013000B1E001C01D92A03BB207E1F710E0C5E8B5
:10014000D0E004C02197FE010E94F111C438D1070C
:10015000C9F70E9420080C9457150C9400000895CC
:100160000895CF92DF92EF92FF920F931F93CF9358
:10017000DF936C017A018B01C0E0D0E0CE15DF0582
:1001800081F0D8016D918D01D601ED91FC91019026
:10019000F081E02DC6010995892B11F02196EECF53
:1001A0007E01C701DF91CF911F910F91FF90EF90DA
:1001B000DF90CF900895FC01538D448D252F30E0C2
:1001C000842F90E0821B930B541710F0CF96089564
:1001D00001970895FC01918D828D981761F0828DB1
:1001E000DF01A80FB11D5D968C91928D9F5F9F736B
:1001F000928F90E008958FEF9FEF0895FC01918D0D
:10020000828D981731F0828DE80FF11D858D90E079
:1002100008958FEF9FEF0895FC01918D228D892F16
:1002200090E0805C9F4F821B91098F7399270895FE
:1002300082EF92E00E940C0121E0892B09F420E07A
:10024000822F0895FC01848DDF01A80FB11DA35AF0
:10025000BF4F2C91848D90E001968F739927848FE6
:10026000A689B7892C93A089B1898C918370806409
:100270008C93938D848D981306C00288F389E02DAA
:1002800080818F7D80830895EF92FF920F931F935B
:10029000CF93DF93EC0181E0888F9B8D8C8D981339
:1002A00005C0E889F989808185FD26C0F62E0B8D71
:1002B00010E00F5F1F4F0F731127E02E8C8DE81297
:1002C0000CC00FB607FCFACFE889F989808185FF59
:1002D000F5CFCE010E942201F1CF8B8DFE01E80FF8
:1002E000F11DE35AFF4FF0829FB7F8940B8FEA8914
:1002F000FB89808180620AC09FB7F894EE89FF89EC
:100300006083E889F98980818370806480839FBFDE
:1003100081E090E0DF91CF911F910F91FF90EF90DE
:100320000895CF93DF93EC01888D8823C9F0EA8983
:10033000FB89808185FD05C0A889B9898C9186FDDE
:100340000FC00FB607FCF5CF808185FFF2CFA889DB
:10035000B9898C9185FFEDCFCE010E942201E7CFB4
:10036000DF91CF91089580E090E0892B29F00E94E1
:10037000180181110C940000089585ED8093BC0054
:100380008091BC0084FDFCCF1092CD020895409175
:10039000BE01262F30E0240F311D21323105DCF45F
:1003A0002091CD022430C9F4FC0180E090E0861752
:1003B00058F43091BE012191DC01A256BE4FA30F2B
:1003C000B11D2C930196F3CF8091BE01680F60930D
:1003D000BE0180E0089581E0089582E008950895C7
:1003E000E091E6018091E501E81730F4F0E0E25891
:1003F000FE4F808190E008958FEF9FEF08959091D8
:10040000E6018091E501981750F4E92FF0E0E258F9
:10041000FE4F208130E09F5F9093E60102C02FEFF6
:100420003FEFC90108958091E50190E02091E60138
:10043000821B91090895CF92DF92EF92FF920F9362
:100440001F93CF93DF937C01CB018A012091CE02D1
:10045000222389F0EB016B01C40ED51ECC15DD05FE
:1004600069F06991D701ED91FC910190F081E02D47
:10047000C7010995F3CF642F0E94C701C801DF911E
:10048000CF911F910F91FF90EF90DF90CF90089543
:10049000CF93DF931F92CDB7DEB769832091CE0251
:1004A0002223D1F02091F102203240F021E030E00F
:1004B000FC013383228380E090E015C08091CF025D
:1004C000E82FF0E0E053FD4F998190838F5F809398
:1004D000CF028093F10205C061E0CE0101960E9437
:1004E000C70181E090E00F90DF91CF9108950895CA
:1004F00080E090E008950E945215CF9381E08093B0
:10050000CE0288E68093F0021092CF021092F102A0
:100510008BE390E00E94D7050E94DC058091CD021C
:100520008111FCCF81E08093CD028093CC029FEFBC
:100530009093CB021092CA029DE09093C9028093DF
:10054000A8028091A802806D8093A8028091A702E2
:10055000813061F41092A7028091A8028093BB00C1
:100560008091BC0083FDF8CF85EC01C085EE8093BF
:10057000BC008091CD028130E1F38091CA028E30BF
:1005800018F49091CA0201C09EE0E9EAF2E0AEE7F9
:10059000B1E080E0891721F021912D938F5FFACF90
:1005A0001092E6018093E50190E00F970CF0B0C047
:1005B0008FE893E00E94FF01C82F8FE893E00E942C
:1005C000FF0160E070E07C2F862B972BBC01990F18
:1005D000880B990B0E942E13609343027093440280
:1005E00080934502909346028FE893E00E94FF01BA
:1005F000C82F8FE893E00E94FF0160E070E07C2F3D
:10060000862B972BBC01990F880B990B0E942E13F8
:1006100060934702709348028093490290934A0284
:100620008FE893E00E94FF01C82F8FE893E00E94BB
:10063000FF0160E070E07C2F862B972BBC01990FA7
:10064000880B990B0E942E1360934B0270934C02FF
:1006500080934D0290934E028FE893E00E94FF0139
:100660008FE893E00E94FF018FE893E00E94FF0172
:10067000C82F8FE893E00E94FF0160E070E07C2FBC
:10068000862B972BBC01990F880B990B0E942E1378
:1006900060939302709394028093950290939602D4
:1006A0008FE893E00E94FF01C82F8FE893E00E943B
:1006B000FF0160E070E07C2F862B972BBC01990F27
:1006C000880B990B0E942E136093970270939802E7
:1006D0008093990290939A028FE893E00E94FF0121
:1006E000C82F8FE893E00E94FF0160E070E07C2F4C
:1006F000862B972BBC01990F880B990B0E942E1308
:1007000060939B0270939C0280939D0290939E0243
:10071000CF9108951F920F920FB60F9211242F932D
:100720003F934F935F936F937F938F939F93AF9379
:10073000BF93EF93FF9382EF92E00E942201FF911B
:10074000EF91BF91AF919F918F917F916F915F9149
:100750004F913F912F910F900FBE0F901F901895C2
:100760001F920F920FB60F9211242F938F939F9386
:10077000EF93FF93E0910203F09103038081E091F6
:100780000803F091090382FD12C0908180910B0350
:100790008F5F8F7320910C03821751F0E0910B0350
:1007A000F0E0EE50FD4F958F80930B0301C08081E8
:1007B000FF91EF919F918F912F910F900FBE0F900E
:1007C0001F9018951F920F920FB60F9211242F931E
:1007D0003F934F935F936F937F938F939F93AF93C9
:1007E000BF93EF93FF938091B900887F803609F41F
:1007F0009CC068F5883209F45BC090F4803109F43C
:1008000054C038F4882309F4F6C0883009F44DC088
:10081000F6C0883109F44CC0803209F45DC0EFC0E5
:10082000803409F468C048F4803309F455C0883333
:1008300009F0E5C08093CB02D8C0803509F44FC0E1
:10084000883509F45DC0883409F0D9C0D6C088392C
:1008500009F4C7C0A8F4883709F467C038F48836AB
:1008600009F463C0803709F460C0C9C0883809F44E
:10087000B8C0803909F45FC0803809F0C0C05BC0DF
:10088000803B09F486C038F4803A09F466C0883A9F
:1008900009F47FC0B4C0803C09F4A7C0883C09F4C7
:1008A000A4C0883B09F48AC0AAC08091A80210C0E5
:1008B0009091CA028091C902981770F5E091CA021E
:1008C00081E08E0F8093CA02F0E0E755FD4F8081F2
:1008D0008093BB0085EC86C08093CB028EC0E091F4
:1008E000CA0281E08E0F8093CA028091BB00F0E0C3
:1008F000E755FD4F80839091CA028091C9026EC076
:10090000E091CA0281E08E0F8093CA028091BB0001
:10091000F0E0E755FD4F80838091CC0281116DC0DE
:1009200081E08093A70284EA61C083E08093CD02D6
:100930001092E001CFCF8091E001803208F051C0E9
:10094000E091E00181E08E0F8093E0018091BB0097
:10095000F0E0E054FE4F8083BDCF85EC8093BC0077
:100960001092CD028091E001803230F4E091E001FC
:10097000F0E0E054FE4F10826091E00170E0E09101
:10098000E101F091E20180EC91E009951092E00123
:1009900036C084E08093CD021092BF011092BE0158
:1009A000E091E301F091E40109958091BE0181118C
:1009B00005C081E08093BE0110929E01E091BF01CD
:1009C00081E08E0F8093BF01F0E0E256FE4F808100
:1009D0008093BB009091BF018091BE01981708F4ED
:1009E00079CF85E88093BC000AC085EC8093BC0079
:1009F0001092CD0204C01092CB020E94BD01FF9163
:100A0000EF91BF91AF919F918F917F916F915F9186
:100A10004F913F912F910F900FBE0F901F901895FF
:100A20001F920F920FB60F9211242F933F934F9363
:100A30005F936F937F938F939F93AF93BF93EF9346
:100A4000FF930E94B10720917C0130917D01189B9A
:100A500011C0232B09F521E030E030937D01209374
:100A60007C01609378017093790180937A0190936F
:100A70007B0112C02130310579F410927D01109272
:100A80007C012091780130917901AB01421B530B1D
:100A900050933802409337022091760130917701CC
:100AA000199B11C0232B09F521E030E03093770129
:100AB00020937601609372017093730180937401A7
:100AC0009093750112C02130310579F410927701AD
:100AD000109276012091720130917301AB01421B9B
:100AE000530B50933E0240933D0220917001309190
:100AF00071011A9B11C0232B09F521E030E03093DE
:100B000071012093700160936C0170936D0180936B
:100B10006E0190936F0112C02130310579F410926B
:100B200071011092700120916C0130916D01AB0147
:100B3000421B530B50932C0240932B0220916A01CD
:100B400030916B011B9B11C0232B01F521E030E09C
:100B500030936B0120936A01609366017093670183
:100B6000809368019093690111C02130310571F4BF
:100B700010926B0110926A01209166013091670119
:100B8000621B730B7093320260933102FF91EF91FD
:100B9000BF91AF919F918F917F916F915F914F9195
:100BA0003F912F910F900FBE0F901F901895682FB7
:100BB0008FE893E00C9448023091F102313208F052
:100BC0004BC08091CD028111FCCF9091F00222E0C8
:100BD0002093CD0221E02093CC022FEF2093CB0273
:100BE0001092CA023093C902E0EDF2E0A9EAB2E045
:100BF00020E0321721F041914D932F5FFACF1092F0
:100C0000A8022091A802990F922B9093A80290918C
:100C1000A702913061F41092A7029091A8029093DC
:100C2000BB009091BC0093FDF8CF95EC01C095EE10
:100C30009093BC009091CD029230E1F39091CB0261
:100C40009F3F79F08091CB02803241F08091CB02BE
:100C5000803331F084E005C081E003C082E001C050
:100C600083E01092CF021092F1021092CE0208950A
:100C700090E0FC01EC50FF4F2491FC01E052FF4F4B
:100C80003491FC01E453FF4FE491EE23B1F12223B0
:100C900039F1233091F038F42130A9F0223001F5F8
:100CA00084B58F7D12C0273091F02830A1F0243018
:100CB000B9F4809180008F7D03C0809180008F7790
:100CC000809380000DC084B58F7784BD09C080916A
:100CD000B0008F7703C08091B0008F7D8093B0000B
:100CE000F0E0EE0FFF1FEE53FF4FA591B4918FB7C9
:100CF000F894EC91E32BEC938FBF0895009769F083
:100D0000FC0101900020E9F73197AF01481B590B16
:100D1000BC0182EF92E00C94B10080E090E0089575
:100D20002F923F924F925F926F927F928F929F92FB
:100D3000AF92BF92CF92DF92EF92FF920F931F93E9
:100D4000CF93DF93CDB7DEB7A4970FB6F894DEBF8D
:100D50000FBECDBF4B015C01F42E9B01AC010E9484
:100D6000F914882319F089E591E027C024013501A1
:100D7000E89477F82FEF3FEF4FE75FE7C301B20149
:100D80000E94F91481110DC02FEF3FEF4FE75FE78D
:100D9000C301B2010E947F1218161CF48DE591E088
:100DA0000CC02FEF3FEF4FE75FE4C501B4010E9495
:100DB000391418162CF481E691E00E947E06B8C022
:100DC0002FEF3FEF4FE75FECC501B4010E947F12A8
:100DD00087FDF1CF20E030E0A901C501B4010E94F8
:100DE0007F1287FF0BC06DE282EF92E00E94440108
:100DF0003C01B7FAB094B7F8B09402C0612C712CE2
:100E000010E060E070E080E09FE3F11641F020E048
:100E100030E040E251E40E9484121F5FF6CFA5014A
:100E200094010E94F8114B015C010E94FD126AA31B
:100E3000C72ED82EE92E19A2262F372F482F592F2B
:100E40008E010F5D1F4F0BA31CA39AE0292E312C9E
:100E5000412C512CCA01B901A20191010E949C119F
:100E6000605DF80162938F0121153105410551053F
:100E700089F7CF010E947E068301080F191FFF200A
:100E800009F455C06AA17C2D8D2D9E2D0E942C1336
:100E90009B01AC01C501B4010E94F7114B015C013B
:100EA0006EE282EF92E00E944401080F191F8AE06F
:100EB000282E312C412C512C20E030E040E251E42E
:100EC000C501B4010E943E144B015C010E94FD1259
:100ED0009B0140E050E019A2CBA0DCA0762E3AA303
:100EE000642EE52ECA01B901A20191010E949C1154
:100EF000605DF60162936F012115310541055105D1
:100F000089F7CF010E947E06080F191F672D7AA16D
:100F1000862D9E2D0E942C139B01AC01C501B401AE
:100F20000E94F7114B015C01FA94F110C5CFC80182
:100F3000A4960FB6F894DEBF0FBECDBFDF91CF9160
:100F40001F910F91FF90EF90DF90CF90BF90AF90E7
:100F50009F908F907F906F905F904F903F902F90D9
:100F600008953FB7F8948091AC039091AD03A091A0
:100F7000AE03B091AF0326B5A89B05C02F3F19F073
:100F80000196A11DB11D3FBFBA2FA92F982F882709
:100F9000820F911DA11DB11DBC01CD0142E0660F64
:100FA000771F881F991F4A95D1F708951F920F92B6
:100FB0000FB60F9211242F933F938F939F93AF936C
:100FC000BF938091A8039091A903A091AA03B09127
:100FD000AB033091A70323E0230F2D3720F40196B4
:100FE000A11DB11D05C026E8230F0296A11DB11D4C
:100FF0002093A7038093A8039093A903A093AA0327
:10100000B093AB038091AC039091AD03A091AE037C
:10101000B091AF030196A11DB11D8093AC039093D5
:10102000AD03A093AE03B093AF03BF91AF919F9177
:101030008F913F912F910F900FBE0F901F90189599
:10104000CF93DF93CDB7DEB7A0970FB6F894DEBF8E
:101050000FBECDBF789484B5826084BD84B58160B5
:1010600084BD85B5826085BD85B5816085BD809173
:101070006E00816080936E001092810080918100EB
:1010800082608093810080918100816080938100E3
:10109000809180008160809380008091B1008460A5
:1010A0008093B1008091B00081608093B000809106
:1010B0007A00846080937A0080917A0082608093C5
:1010C0007A0080917A00816080937A0080917A0022
:1010D000806880937A001092C10021E0209368001C
:1010E0008FE080936B008AB1806F8AB91092E6011D
:1010F0001092E5011092CF021092F1021092CD02EF
:101100002093CC021092A70282E10E94380683E16C
:101110000E9438068091B9008E7F8093B90080913B
:10112000B9008D7F8093B90088E48093B80085E48E
:101130008093BC008FEA90E09093E4018093E301F8
:1011400080EB90E09093E2018093E1018CE080934A
:10115000B80031E03093CE0248E64093F00210929E
:10116000CF021092F1028BE690E00E94D70580E05A
:1011700090E00E94D7050E94DC0551E05093CE021A
:1011800088E68093F0021092CF021092F1028BE178
:1011900090E00E94D70588E090E00E94D7050E9469
:1011A000DC0591E09093CE02A8E6A093F0021092A5
:1011B000CF021092F1028CE190E00E94D70580E00E
:1011C00090E00E94D7050E94DC0521ED37E03E83C8
:1011D0002D830BE71EE30E947D02609183027091D4
:1011E000840280918502909186020E942E132091A4
:1011F00093023091940240919502509196020E9480
:10120000F8110E94F6124B015C0160938302709307
:101210008402809385029093860260918702709188
:1012200088028091890290918A020E942E13209157
:101230009702309198024091990250919A020E942F
:10124000F8110E94F61269837A838B839C836093E2
:101250008702709388028093890290938A0260913A
:101260008B0270918C0280918D0290918E020E946F
:101270002E1320919B0230919C0240919D0250912F
:101280009E020E94F8110E94F6122B013C0160930D
:101290008B0270938C0280938D0290938E02C80112
:1012A0000197F1F74D815E81415051095E834D8375
:1012B000452B09F090CF80EDC82E87E0D82EE12C89
:1012C000F12CC501B401A70196010E94BE11209323
:1012D0008302309384024093850250938602698191
:1012E0007A818B819C81A70196010E94BE11209377
:1012F0008702309388024093890250938A02C30187
:10130000B201A70196010E94BE1120938B02309377
:101310008C0240938D0250938E028BB1806F8BB9FB
:101320008BE39FE10197F1F78BB11BB88BB1806F15
:101330008BB98BE697E10197F1F78BB11BB88BB1B5
:10134000806F8BB98BE99FE00197F1F78BB11BB8E8
:10135000E0910203F091030382E08083E091FE02BA
:10136000F091FF021082E0910003F09101031082DE
:1013700010920A03E0910603F091070386E0808350
:10138000E0910403F0910503808180618083E09106
:101390000403F0910503808188608083E091040359
:1013A000F0910503808180688083E0910403F091CF
:1013B000050380818F7D808390ED292E97E0392E63
:1013C00008EE13E08091280190912901A0912A0153
:1013D000B0912B01898B9A8BAB8BBC8B2091280110
:1013E0003091290140912A0150912B012D8B3E8B88
:1013F0004F8B588F8091280190912901A0912A014B
:10140000B0912B01898F9A8FAB8FBC8F20912801CF
:101410003091290140912A0150912B012D8F3E8F4F
:101420004F8F58A30E94B1076093A3027093A40248
:101430008093A5029093A6020E947D026091830290
:101440007091840280918502909186020E942E13F1
:101450009B01AC016091930270919402809195027E
:10146000909196020E94F7112B013C0120E030E0A0
:1014700043E852E40E9484124B015C0160937302C2
:101480007093740280937502909376026091870244
:10149000709188028091890290918A020E942E1395
:1014A0009B01AC0160919702709198028091990222
:1014B00090919A020E94F71169837A838B839C83AF
:1014C00020E030E043E852E40E9484126B017C018A
:1014D00060937702709378028093790290937A02F6
:1014E00060918B0270918C0280918D0290918E029E
:1014F0000E942E139B01AC0160919B0270919C0293
:1015000080919D0290919E020E94F7116D837E83CF
:101510008F83988720E030E043E852E40E948412F1
:1015200069877A878B879C8760937B0270937C02A4
:1015300080937D0290937E0223E333E343E35FE3F2
:1015400060916302709164028091650290916602DD
:101550000E943E146D877E878F87988B2AE939E930
:1015600049E95EE3C501B4010E943E149B01AC0150
:101570006D857E858F8598890E94F811609363023E
:1015800070936402809365029093660223E333E3D1
:1015900043E35FE3609167027091680280916902A2
:1015A00090916A020E943E144B015C012AE939E9DC
:1015B00049E95EE3C701B6010E943E149B01AC01FC
:1015C000C501B4010E94F81160936702709368022C
:1015D0008093690290936A0223E333E343E35FE37A
:1015E00060916B0270916C0280916D0290916E021D
:1015F0000E943E146B017C012AE939E949E95EE366
:1016000069857A858B859C850E943E149B01AC017F
:10161000C701B6010E94F81160936B0270936C02CF
:1016200080936D0290936E0220ED32E240E858E321
:1016300069817A818B819C810E943E14209157029E
:10164000309158024091590250915A020E94F8116B
:1016500069877A878B879C872BE733E14FE855E3CF
:101660006D817E818F8198850E943E140E94AB140B
:101670006D837E838F83988720ED32E240E858E3C4
:10168000C301B2010E943E142091530230915402D2
:1016900040915502509156020E94F8116B017C0155
:1016A0002D813E814F81588569857A858B859C8502
:1016B0000E943E149B01AC01C701B6010E94F711C4
:1016C0006D877E878F87988B80914302909144022B
:1016D000A0914502B091460289839A83AB83BC8373
:1016E000C0904702D0904802E0904902F0904A0230
:1016F00080904B0290904C02A0904D02B0904E0210
:101700009C01AD01BC01CD010E943E142B013C01A6
:10171000A7019601C701B6010E943E149B01AC01CE
:10172000C301B2010E94F8112B013C01A5019401F3
:10173000C501B4010E943E149B01AC01C301B2017A
:101740000E94F8110E94B9144B015C019B01AC018D
:10175000C701B6010E9484120E9464126B017C01D1
:10176000A501940169817A818B819C810E948412F8
:101770000E9464124B015C012BE13FE245E652E41A
:10178000C701B6010E943E142FE632E143E85AE356
:101790000E943E146B017C0127E73EEB4FE75FE3BD
:1017A0006D857E858F8598890E943E149B01AC01D2
:1017B000C701B6010E94F8116B017C0160935302CE
:1017C0007093540280935502909356022D853E8566
:1017D0004F8558896D817E818F8198850E943E1446
:1017E00029853A854B855C850E94F81127E73EEBF9
:1017F0004FE75FE30E943E142B013C012BE13FE2E7
:1018000045E652ECC501B4010E943E142FE632E1D8
:1018100043E85AE30E943E149B01AC01C301B201AC
:101820000E94F811609357027093580280935902F6
:1018300090935A0220E030E040E751E40E943E14C9
:101840004B015C0120E030E040E751E4C701B60104
:101850000E943E146B017C0180913D0290913E02FA
:101860008530A6E09A071CF08450964006C0843B61
:10187000B5E09B07A4F4845B954066E070E00E94AD
:101880008811072E000C880B990B0E942E13609371
:10189000390270933A0280933B0290933C0280910C
:1018A0003702909138028530E6E09E071CF08450A4
:1018B000964006C0843B25E09207A4F4845B9540E3
:1018C00066E070E00E948811072E000C880B990BCF
:1018D0000E942E136093330270933402809335027A
:1018E000909336028091310290913202853036E039
:1018F00093071CF08450964006C0843B45E0940753
:10190000A4F4845B954066E070E00E948811072E85
:10191000000C880B990B0E942E1360932D0270937C
:101920002E0280932F029093300280912B0290918F
:101930002C02803D974024F030922C0220922B0202
:1019400080912B0290912C02893E934024F41093B5
:101950002C0200932B0220E030E040E251E4C5016C
:10196000B4010E9484129B01AC016091330270911A
:10197000340280913502909136020E94F7116093F3
:10198000330270933402809335029093360220E044
:1019900030E040E251E4C701B6010E9484129B018D
:1019A000AC016091390270913A0280913B029091B2
:1019B0003C020E94F7116093390270933A028093BF
:1019C0003B0290933C028CE291E00E947E06609183
:1019D000530270915402809155029091560242E058
:1019E0000E94900687E391E00E947E066091570274
:1019F000709158028091590290915A0242E00E94DF
:101A0000900682E491E00E947E06609173027091DC
:101A10007402809175029091760242E00E949006D5
:101A20008CE491E00E947E066091770270917802CA
:101A30008091790290917A0242E00E94900686E5B8
:101A400091E00E947E062091330230913402409151
:101A50003502509136026091670270916802809160
:101A6000690290916A020E94F7116B017C0120913A
:101A7000A3033091A4034091A5035091A6030E94B3
:101A80003E142B013C0120919F033091A003409113
:101A9000A1035091A203C701B6010E943E142091F8
:101AA0002702309128024091290250912A020E9477
:101AB000F8114B015C016093270270932802809318
:101AC000290290932A0220919B0330919C0340911C
:101AD0009D0350919E03C701B6010E943E146B0105
:101AE0007C01A5019401C301B2010E94F8119B0180
:101AF000AC01C701B6010E94F81169837A838B8318
:101B00009C83609323027093240280932502909318
:101B100026021092670210926802109269021092D7
:101B20006A0210923302109234021092350210921F
:101B300036022091390230913A0240913B02509195
:101B40003C02609163027091640280916502909101
:101B500066020E94F7116B017C0129893A894B8941
:101B60005C890E943E1420911F0230912002409116
:101B70002102509122020E94F8114B015C0120E0E9
:101B800030E0A901C701B6010E943E149B01AC01DF
:101B9000C501B4010E94F8114B015C0120E030E066
:101BA00040E751E4C701B6010E943E149B01AC011D
:101BB000C501B4010E94F8114B015C0160931B0246
:101BC00070931C0280931D0290931E0210921F02BC
:101BD00010922002109221021092220210926302AF
:101BE00010926402109265021092660210923902FD
:101BF00010923A0210923B0210923C0220912D0268
:101C000030912E0240912F025091300260916B0270
:101C100070916C0280916D0290916E020E94F7119A
:101C20006B017C012D893E894F89588D0E943E149D
:101C300020911702309118024091190250911A0216
:101C40000E94F8112B013C01298D3A8D4B8D5C8D42
:101C5000C701B6010E943E149B01AC01C301B20151
:101C60000E94F8112B013C012D8D3E8D4F8D58A106
:101C7000C701B6010E943E149B01AC01C301B20131
:101C80000E94F8116B017C0160931302709314029F
:101C90008093150290931602109217021092180268
:101CA0001092190210921A0210926B0210926C029A
:101CB00010926D0210926E0210922D0210922E025E
:101CC00010922F021092300220E030E048EC53E4F2
:101CD00069817A818B819C810E94391487FD0CC0B7
:101CE00080E090E0A8ECB3E4809323029093240278
:101CF000A0932502B093260220E030E048EC53EC9C
:101D00006091230270912402809125029091260215
:101D10000E947F12181664F080E090E0A8ECB3EC0B
:101D20008093230290932402A0932502B09326026D
:101D300020E030E048EC53E4C501B4010E943914BE
:101D400087FD0CC080E090E0A8ECB3E480931B0218
:101D500090931C02A0931D02B0931E0220E030E07D
:101D600048EC53EC60911B0270911C0280911D02A3
:101D700090911E020E947F12181664F080E090E09D
:101D8000A8ECB3EC80931B0290931C02A0931D025D
:101D9000B0931E0220E030E048EC53E4C701B601E6
:101DA0000E94391487FD0CC080E090E0A8ECB3E4F9
:101DB0008093130290931402A0931502B09316021D
:101DC00020E030E048EC53EC609113027091140273
:101DD00080911502909116020E947F12181664F0ED
:101DE00080E090E0A8ECB3EC80931302909314028F
:101DF000A0931502B093160260912B0270912C02F1
:101E0000072E000C880B990B0E942E134B015C01CE
:101E100020911B0230911C0240911D0250911E0224
:101E20002D833E834F8358870E94F7112B013C017D
:101E30008091230290912402A0912502B091260264
:101E400089839A83AB83BC83C0901302D090140221
:101E5000E0901502F09016029C01AD01C301B201A1
:101E60000E94F711A70196010E94F7110E94FD122E
:101E700069877A878B879C8760930302709304023B
:101E8000809305029093060229813A814B815C81FF
:101E9000C301B2010E94F811A70196010E94F81136
:101EA0000E94FD126D877E878F87988B6093070253
:101EB000709308028093090290930A022D813E815B
:101EC0004F815885C501B4010E94F8114B015C0196
:101ED0009B01AC0169817A818B819C810E94F81100
:101EE000A70196010E94F7110E94FD122B013C01EF
:101EF00060930B0270930C0280930D0290930E027C
:101F000029813A814B815C81C501B4010E94F7119E
:101F1000A70196010E94F8110E94FD1260930F0222
:101F200070931002809311029093120229853A85D2
:101F30004B855C85293E33404105510560F428EE10
:101F400033E040E050E020930302309304024093DA
:101F50000502509306022D853E854F855889293EFE
:101F600033404105510560F428EE33E040E050E095
:101F700020930702309308024093090250930A020B
:101F800039EE431633E053066104710460F428EE21
:101F900033E040E050E020930B0230930C0240937A
:101FA0000D0250930E02693E73408105910560F465
:101FB00088EE93E0A0E0B0E080930F0290931002CF
:101FC000A0931102B0931202809103029091040237
:101FD000A0910502B0910602803D9740A105B10590
:101FE00060F020ED37E040E050E0209303023093B2
:101FF00004024093050250930602809107029091DB
:102000000802A0910902B0910A02803D9740A10503
:10201000B10560F080ED97E0A0E0B0E080930702AA
:1020200090930802A0930902B0930A0280910B02D8
:1020300090910C02A0910D02B0910E02803D97404C
:10204000A105B10560F020ED37E040E050E02093BD
:102050000B0230930C0240930D0250930E028091BC
:102060000F0290911002A0911102B0911202803DD6
:102070009740A105B10560F080ED97E0A0E0B0E0E9
:1020800080930F0290931002A0931102B09312025A
:102090000E94B1076093FB017093FC018093FD01E6
:1020A0009093FE018BB1806F8BB98091FB01909171
:1020B000FC01A091FD01B091FE01409103025091FD
:1020C00004026091050270910602480F591F6A1FB1
:1020D0007B1F4093EB015093EC016093ED017093F3
:1020E000EE0140910702509108026091090270913F
:1020F0000A02480F591F6A1F7B1F4093EF0150933C
:10210000F0016093F1017093F20140910B02509144
:102110000C0260910D0270910E02480F591F6A1F48
:102120007B1F4093F3015093F4016093F50170938A
:10213000F60140910F0250911002609111027091CE
:102140001202840F951FA61FB71F8093F70190936B
:10215000F801A093F901B093FA018BB1803108F432
:102160005CC00E94B1076093FB017093FC018093F7
:10217000FD019093FE01C090EB01D090EC01E09046
:10218000ED01F090EE016C157D058E059F0508F0C0
:102190005C984091EF015091F0016091F1017091D4
:1021A000F2018091FB019091FC01A091FD01B091A1
:1021B000FE0184179507A607B70708F05D984091C0
:1021C000F3015091F4016091F5017091F601809155
:1021D000FB019091FC01A091FD01B091FE018417DB
:1021E0009507A607B70708F05E984091F701509150
:1021F000F8016091F9017091FA018091FB019091D1
:10220000FC01A091FD01B091FE0184179507A6077E
:10221000B70708F4A2CF5F98A0CF0E94B1076093E0
:10222000A7027093A8028093A9029093AA028091BA
:10223000A7029091A802A091A902B091AA02409190
:10224000A3025091A4026091A5027091A602841B82
:10225000950BA60BB70B813A9F40A105B105E8F29B
:102260000E94B301DFC8E2EFF2E01382128288EE2F
:1022700093E0A0E0B0E084839583A683B78324E055
:1022800031E03183208325EC30E03587248724EC4E
:1022900030E03787268720EC30E0318B208B21EC33
:1022A00030E0338B228B22EC30E0358B248B26EC14
:1022B00030E0378B268B118E128E138E148EEFE842
:1022C000F3E01382128284839583A683B78386E129
:1022D00091E0918380831092A3031092A403109243
:1022E000A5031092A60310929F031092A0031092D0
:1022F000A1031092A20380E090E0A0E7B1E48093F4
:102300009B0390939C03A0939D03B0939E03089519
:1023100097FB072E16F4009407D077FD09D00E9492
:10232000DD1107FC05D03EF4909581959F4F0895EF
:10233000709561957F4F0895A1E21A2EAA1BBB1BD1
:10234000FD010DC0AA1FBB1FEE1FFF1FA217B30781
:10235000E407F50720F0A21BB30BE40BF50B661F97
:10236000771F881F991F1A9469F76095709580955B
:1023700090959B01AC01BD01CF010895052E97FBFF
:102380001EF400940E94D51157FD07D00E949C11A5
:1023900007FC03D04EF40C94D51150954095309520
:1023A00021953F4F4F4F5F4F0895909580957095C1
:1023B00061957F4F8F4F9F4F0895AA1BBB1B51E123
:1023C00007C0AA1FBB1FA617B70710F0A61BB70BA5
:1023D000881F991F5A95A9F780959095BC01CD014A
:1023E0000895EE0FFF1F0590F491E02D09945058C9
:1023F000BB27AA270E940F120C94FF130E94F1130F
:1024000038F00E94F81320F039F49F3F19F426F4B5
:102410000C94B3130EF4E095E7FB0C94AD13E92F85
:102420000E94101458F3BA176207730784079507C0
:1024300020F079F4A6F50C9432140EF4E0950B2EEE
:10244000BA2FA02D0B01B90190010C01CA01A00106
:102450001124FF27591B99F0593F50F4503E68F161
:102460001A16F040A22F232F342F4427585FF3CFA2
:10247000469537952795A795F0405395C9F77EF473
:102480001F16BA0B620B730B840BBAF09150A1F0BC
:10249000FF0FBB1F661F771F881FC2F70EC0BA0F42
:1024A000621F731F841F48F4879577956795B795CA
:1024B000F7959E3F08F0B0CF9395880F08F09927C5
:1024C000EE0F9795879508959F939F77EEE3893751
:1024D0009E0728F4E8E6F0E00E94DD130CC00E949D
:1024E00069139058A2EA2AED3FE049EC5FE30E94AD
:1024F0000F120E94FF130F9007FC905808950E943E
:10250000891308F481E008950E9498120C94FF1337
:102510000E94F81358F00E94F11340F029F45F3F35
:1025200029F00C94AD1351110C9433140C94B31383
:102530000E94101468F39923B1F3552391F3951B6E
:10254000550BBB27AA2762177307840738F09F5FD4
:102550005F4F220F331F441FAA1FA9F335D00E2E41
:102560003AF0E0E832D091505040E695001CCAF7AE
:102570002BD0FE2F29D0660F771F881FBB1F261771
:1025800037074807AB07B0E809F0BB0B802DBF0148
:10259000FF2793585F4F3AF09E3F510578F00C9417
:1025A000AD130C9433145F3FE4F3983ED4F3869557
:1025B00077956795B795F7959F5FC9F7880F911D38
:1025C0009695879597F90895E1E0660F771F881F24
:1025D000BB1F621773078407BA0720F0621B730BD7
:1025E000840BBA0BEE1F88F7E09508950E94FD1248
:1025F0006894B1110C94331408950E94181488F053
:102600009F5798F0B92F9927B751B0F0E1F0660FB6
:10261000771F881F991F1AF0BA95C9F714C0B130F7
:1026200091F00E943214B1E008950C943214672F97
:10263000782F8827B85F39F0B93FCCF38695779526
:102640006795B395D9F73EF490958095709561950F
:102650007F4F8F4F9F4F0895E89409C097FB3EF43A
:1026600090958095709561957F4F8F4F9F4F9923DF
:10267000A9F0F92F96E9BB279395F695879577955D
:102680006795B795F111F8CFFAF4BB0F11F460FF1D
:102690001BC06F5F7F4F8F4F9F4F16C0882311F075
:1026A00096E911C0772321F09EE8872F762F05C089
:1026B000662371F096E8862F70E060E02AF09A9524
:1026C000660F771F881FDAF7880F9695879597F919
:1026D0000895DF93CF931F930F938B01EC01ECE7E9
:1026E000F0E00E94B6130E94FF139801AE018B0127
:1026F000EC0160E070E080E89FE30E94F7110E9427
:10270000B9149801AE010F911F91CF91DF910C94F4
:102710005114990F0008550FAA0BE0E8FEEF1616AA
:102720001706E807F907C0F012161306E407F507C5
:1027300098F0621B730B840B950B39F40A2661F039
:10274000232B242B252B21F408950A2609F4A140DC
:10275000A6958FEF811D811D089597F99F6780E8E9
:1027600070E060E008959FEF80EC0895DF93CF93D1
:102770001F930F93FF92EF92DF927B018C0168947D
:1027800006C0DA2EEF010E945114FE01E894A591D3
:102790002591359145915591A6F3EF010E940F12B5
:1027A000FE019701A801DA9469F7DF90EF90FF909E
:1027B0000F911F91CF91DF9108959F938F937F93F6
:1027C0006F93FF93EF939B01AC010E943E14EF9136
:1027D000FF910E94B6132F913F914F915F910C94FE
:1027E0003E1400240A9416161706180609060895C2
:1027F00000240A9412161306140605060895092EDD
:102800000394000C11F4882352F0BB0F40F4BF2B4B
:1028100011F460FF04C06F5F7F4F8F4F9F4F08958B
:1028200057FD9058440F551F59F05F3F71F0479581
:10283000880F97FB991F61F09F3F79F08795089566
:10284000121613061406551FF2CF4695F1DF08C085
:10285000161617061806991FF1CF869571056105A2
:1028600008940895E894BB2766277727CB0197F94A
:1028700008950E94891308F48FEF08950E9451145F
:102880000C94FF130E94F11338F00E94F81320F00B
:10289000952311F00C94AD130C94B31311240C94E4
:1028A00033140E94101470F3959FC1F3950F50E0FC
:1028B000551F629FF001729FBB27F00DB11D639FF2
:1028C000AA27F00DB11DAA1F649F6627B00DA11D98
:1028D000661F829F2227B00DA11D621F739FB00D3E
:1028E000A11D621F839FA00D611D221F749F3327AE
:1028F000A00D611D231F849F600D211D822F762F47
:102900006A2F11249F5750409AF0F1F088234AF023
:10291000EE0FFF1FBB1F661F771F881F915050408F
:10292000A9F79E3F510580F00C94AD130C9433141D
:102930005F3FE4F3983ED4F3869577956795B79516
:10294000F795E7959F5FC1F7FE2B880F911D969530
:10295000879597F908959F930E9415150F9007FC8E
:10296000EE5F0C943E1519F416F40C94B3130C940A
:10297000FE140E941814B8F39923C9F3B6F39F57B5
:10298000550B87FF0E940C150024A0E640EA900139
:1029900080585695979528F4805C660F771F881F9E
:1029A00020F026173707480730F4621B730B840B9F
:1029B000202931294A2BA6951794079420253125E3
:1029C0004A2758F7660F771F881F20F0261737070A
:1029D000480730F4620B730B840B200D311D411D31
:1029E000A09581F7B901842F9158880F9695879506
:1029F00008950E948913880B990B08959F3F31F029
:102A0000915020F4879577956795B795880F911D1C
:102A10009695879597F9089591505040660F771FC6
:102A2000881FD2F708950C94B3130E941814D8F39A
:102A3000E894E0E0BB279F57F0F02AED3FE049EC37
:102A400006C0EE0FBB0F661F771F881F28F0B23A33
:102A500062077307840728F0B25A620B730B840B6A
:102A6000E3959A9572F7803830F49A95BB0F661FFC
:102A7000771F881FD2F790480C940015EF93E0FF62
:102A800007C0A2EA2AED3FE049EC5FEB0E940F127B
:102A90000E94FF130F90039401FC9058E4EAF0E0C9
:102AA0000C94DD1381E090E0F8940C945715F894A1
:022AB000FFCF56
:102AB200000000004401B100DB0091010C01EA00BA
:102AC200FE000000000048021B027802EF01130220
:102AD200FF01F001000070410000000020616E67FC
:102AE2006C655B315D200020616E676C655B325DF9
:102AF2002000206779726F5B315D20002067797258
:102B0200705B325D20000D0A006E616E00696E66B8
:062B1200006F7666000072
:00000001FF
