:100000000C947E000C94A6000C94A6000C94A904F9
:100010000C94A6000C94A6000C94A6000C94A600C8
:100020000C94A6000C94A6000C94A6000C94A600B8
:100030000C94A6000C94A6000C94A6000C94A600A8
:100040000C9431030C94A6000C94A6000C94A6000A
:100050000C94A6000C94A6000C94A6000C94A60088
:100060000C947B030C94A600084AD73B3BCE016E50
:1000700084BCBFFDC12F3D6C74319ABD56833DDAFF
:100080003D00C77F11BED9E4BB4C3E916BAAAABE0E
:10009000000000803F05A84CCDB2D44EB93836A937
:1000A000020C50B9918688083CA6AAAA2ABE000074
:1000B00000803F0000000000250028002B00040401
:1000C0000404040404040202020202020303030300
:1000D00003030102040810204080010204081020DC
:1000E00001020408102000000008000201000003C3
:1000F00004070000000000000000840E11241FBE51
:10010000CFEFD8E0DEBFCDBF11E0A0E0B1E0E0EF7F
:10011000F3E202C005900D92A431B107D9F722E0B5
:10012000A4E1B1E001C01D92A93AB207E1F710E0E5
:10013000CEE7D0E004C02197FE010E94950ECD3796
:10014000D107C9F70E9470050C94F6110C940000B9
:1001500030919C02313208F04BC0809178028111BD
:10016000FCCF90919B0222E02093780221E0209323
:1001700077022FEF2093760210927502309374026B
:10018000EBE7F2E0A4E5B2E020E0321721F0419184
:100190004D932F5FFACF1092530220915302990F83
:1001A000922B9093530290915202913061F41092ED
:1001B0005202909153029093BB009091BC0093FD2A
:1001C000F8CF95EC01C095EE9093BC009091780229
:1001D0009230E1F3909176029F3F79F08091760220
:1001E000803241F080917602803331F084E005C0A6
:1001F00081E003C082E001C083E010927A02109295
:100200009C0210927902089590E0FC01EA51FF4FA0
:100210002491FC01EE52FF4F3491FC01E254FF4F58
:10022000E491EE23B1F1222339F1233091F038F437
:100230002130A9F0223001F584B58F7D12C027301E
:1002400091F02830A1F02430B9F4809180008F7DA6
:1002500003C0809180008F77809380000DC084B5AB
:100260008F7784BD09C08091B0008F7703C08091E3
:10027000B0008F7D8093B000F0E0EE0FFF1FEC54D4
:10028000FF4FA591B4918FB7F894EC91E32BEC93C9
:100290008FBF08953FB7F89480914E0290914F021E
:1002A000A0915002B091510226B5A89B05C02F3FE6
:1002B00019F00196A11DB11D3FBFBA2FA92F982F8C
:1002C0008827820F911DA11DB11DBC01CD0142E007
:1002D000660F771F881F991F4A95D1F708950895D3
:1002E0000895CF92DF92EF92FF920F931F93CF93D7
:1002F000DF936C017A018B01C0E0D0E0CE15DF0501
:1003000081F0D8016D918D01D601ED91FC910190A4
:10031000F081E02DC6010995892B11F02196EECFD1
:100320007E01C701DF91CF911F910F91FF90EF9058
:10033000DF90CF90089585ED8093BC008091BC0044
:1003400084FDFCCF10927802089540916C01262F15
:1003500030E0240F311D21323105DCF42091780288
:100360002430C9F4FC0180E090E0861758F4309105
:100370006C012191DC01A45BBE4FA30FB11D2C9336
:100380000196F3CF80916C01680F60936C0180E05F
:10039000089581E0089582E008950895E091940120
:1003A00080919301E81730F4F0E0E45DFE4F808126
:1003B00090E008958FEF9FEF0895909194018091C0
:1003C0009301981750F4E92FF0E0E45DFE4F20818F
:1003D00030E09F5F9093940102C02FEF3FEFC9017F
:1003E00008958091930190E020919401821B9109DE
:1003F0000895CF92DF92EF92FF920F931F93CF93C6
:10040000DF937C01CB018A0120917902222389F0BC
:10041000EB016B01C40ED51ECC15DD0569F06991A9
:10042000D701ED91FC910190F081E02DC701099574
:10043000F3CF642F0E94A501C801DF91CF911F91D6
:100440000F91FF90EF90DF90CF900895CF93DF93BF
:100450001F92CDB7DEB76983209179022223D1F0B4
:1004600020919C02203240F021E030E0FC013383F7
:10047000228380E090E015C080917A02E82FF0E0BE
:10048000E558FD4F998190838F5F80937A02809326
:100490009C0205C061E0CE0101960E94A50181E0A9
:1004A00090E00F90DF91CF910895682F8DE992E051
:1004B0000C942602089580E090E008950E94F111C6
:1004C000CF9381E08093790288E680939B0210921B
:1004D0007A0210929C028BE390E00E9455020E94E7
:1004E000A800809178028111FCCF81E0809378028E
:1004F000809377029FEF90937602109275029DE0B1
:10050000909374028093530280915302806D809384
:10051000530280915202813061F410925202809114
:1005200053028093BB008091BC0083FDF8CF85EC23
:1005300001C085EE8093BC00809178028130E1F3A8
:10054000809175028E3018F49091750201C09EE082
:10055000E4E5F2E0ACE2B1E080E0891721F021911E
:100560002D938F5FFACF109294018093930190E0C6
:100570000F970CF074C08DE992E00E94DD01C82F46
:100580008DE992E00E94DD0120E030E03C2F822BDB
:10059000932B90934202809341028DE992E00E9456
:1005A000DD01C82F8DE992E00E94DD0120E030E0FE
:1005B0003C2F822B932B90934402809343028DE92E
:1005C00092E00E94DD01C82F8DE992E00E94DD01DA
:1005D00020E030E03C2F822B932B909340028093BD
:1005E0003F028DE992E00E94DD018DE992E00E94D8
:1005F000DD018DE992E00E94DD01C82F8DE992E0D6
:100600000E94DD0120E030E03C2F822B932B909361
:100610003602809335028DE992E00E94DD01C82FF9
:100620008DE992E00E94DD0120E030E03C2F822B3A
:10063000932B9093300280932F028DE992E00E94D9
:10064000DD01C82F8DE992E00E94DD0120E030E05D
:100650003C2F822B932B90932A0280932902CF91D7
:1006600008951F920F920FB60F9211242F933F936C
:100670008F939F93AF93BF9380914A0290914B02C7
:10068000A0914C02B0914D023091490223E0230F1A
:100690002D3720F40196A11DB11D05C026E8230FBA
:1006A0000296A11DB11D2093490280934A029093A6
:1006B0004B02A0934C02B0934D0280914E02909158
:1006C0004F02A0915002B09151020196A11DB11D9F
:1006D00080934E0290934F02A0935002B093510228
:1006E000BF91AF919F918F913F912F910F900FBE2E
:1006F0000F901F9018951F920F920FB60F92112412
:100700002F933F934F935F936F937F938F939F9319
:10071000AF93BF93EF93FF938091B900887F8036AA
:1007200009F49CC068F5883209F45BC090F480310C
:1007300009F454C038F4882309F4F6C0883009F469
:100740004DC0F6C0883109F44CC0803209F45DC058
:10075000EFC0803409F468C048F4803309F455C010
:10076000883309F0E5C080937602D8C0803509F45B
:100770004FC0883509F45DC0883409F0D9C0D6C0AF
:10078000883909F4C7C0A8F4883709F467C038F479
:10079000883609F463C0803709F460C0C9C088385E
:1007A00009F4B8C0803909F45FC0803809F0C0C0CE
:1007B0005BC0803B09F486C038F4803A09F466C017
:1007C000883A09F47FC0B4C0803C09F4A7C0883CD3
:1007D00009F4A4C0883B09F48AC0AAC080915302DE
:1007E00010C09091750280917402981770F5E09195
:1007F000750281E08E0F80937502F0E0EC5AFD4F98
:1008000080818093BB0085EC86C0809376028EC089
:10081000E091750281E08E0F809375028091BB009C
:10082000F0E0EC5AFD4F8083909175028091740244
:100830006EC0E091750281E08E0F80937502809109
:10084000BB00F0E0EC5AFD4F80838091770281116C
:100850006DC081E08093520284EA61C083E080939E
:10086000780210928E01CFCF80918E01803208F0F5
:1008700051C0E0918E0181E08E0F80938E018091B6
:10088000BB00F0E0E259FE4F8083BDCF85EC809342
:10089000BC001092780280918E01803230F4E09199
:1008A0008E01F0E0E259FE4F108260918E0170E0FF
:1008B000E0918F01F09190018EE691E00995109200
:1008C0008E0136C084E08093780210926D01109200
:1008D0006C01E0919101F0919201099580916C0178
:1008E000811105C081E080936C0110924C01E09170
:1008F0006D0181E08E0F80936D01F0E0E45BFE4FAF
:1009000080818093BB0090916D0180916C0198175C
:1009100008F479CF85E88093BC000AC085EC809309
:10092000BC001092780204C0109276020E949B01D3
:10093000FF91EF91BF91AF919F918F917F916F91B7
:100940005F914F913F912F910F900FBE0F901F908D
:1009500018951F920F920FB60F9211242F933F9369
:100960004F935F936F937F938F939F93AF93BF93B7
:10097000EF93FF930E944A0120912A0130912B01AD
:10098000189B11C0232B09F521E030E030932B0197
:1009900020932A01609326017093270180932801F8
:1009A0009093290112C02130310579F410922B0166
:1009B00010922A012091260130912701AB01421BA0
:1009C000530B509308024093070220912401309169
:1009D0002501199B11C0232B09F521E030E030934C
:1009E00025012093240160932001709321018093BD
:1009F00022019093230112C02130310579F4109225
:100A00002501109224012091200130912101AB0198
:100A1000421B530B509306024093050220911E0186
:100A200030911F011A9B11C0232B09F521E030E002
:100A300030931F0120931E0160931A0170931B01D4
:100A400080931C0190931D0112C02130310579F46F
:100A500010921F0110921E0120911A0130911B016A
:100A6000AB01421B530B5093BA014093B901209143
:100A70001801309119011B9B11C0232B01F521E0B6
:100A800030E03093190120931801609314017093A2
:100A90001501809316019093170111C02130310583
:100AA00071F41092190110921801209114013091E3
:100AB0001501621B730B7093040260930302FF9194
:100AC000EF91BF91AF919F918F917F916F915F91C6
:100AD0004F913F912F910F900FBE0F901F9018953F
:100AE000CF93DF93CDB7DEB76C970FB6F894DEBF28
:100AF0000FBECDBF789484B5826084BD84B581601B
:100B000084BD85B5826085BD85B5816085BD8091D8
:100B10006E00816080936E00109281008091810050
:100B20008260809381008091810081608093810048
:100B3000809180008160809380008091B10084600A
:100B40008093B1008091B00081608093B00080916B
:100B50007A00846080937A0080917A00826080932A
:100B60007A0080917A00816080937A0080917A0087
:100B7000806880937A001092C100109294011092C4
:100B8000930110927A0210929C021092780221E056
:100B9000209377021092520282E10E94040183E1C5
:100BA0000E9404018091B9008E7F8093B9008091EA
:100BB000B9008D7F8093B90088E48093B80085E404
:100BC0008093BC008FE691E0909392018093910115
:100BD00080E791E09093900180938F018CE0809367
:100BE000B80031E0309368008FE080936B008AB1E9
:100BF000806F8AB982EE94E06BE97FE04BED5EE2B4
:100C00002BB1206F2BB9FB013197F1F72BB12F706E
:100C10002BB9FA013197F1F7019791F741E0409331
:100C2000790288E680939B0210927A0210929C02CD
:100C30008BE690E00E94550280E090E00E94550211
:100C40000E94A80051E05093790210927A0210920B
:100C50009C028BE190E00E94550288E090E00E94A7
:100C600055020E94A80081E08093790210927A02D6
:100C700010929C028CE190E00E94550280E190E08D
:100C80000E9455020E94A8008091680081608093B4
:100C9000680080916B00816080936B0080916B0095
:100CA000826080936B0080916B00846080936B0006
:100CB00080916B00886080936B00A0EDB7E0BA83F1
:100CC000A9830BE71EE30E946002609135027091D8
:100CD0003602072E000C880B990B0E94E60F20911C
:100CE00031023091320240913302509134020E941D
:100CF0009C0E2B013C016093310270933202809371
:100D000033029093340260912F0270913002072ECB
:100D1000000C880B990B0E94E60F20912B0230915A
:100D20002C0240912D0250912E020E949C0E4B01EC
:100D30005C0160932B0270932C0280932D029093A0
:100D40002E026091290270912A02072E000C880B56
:100D5000990B0E94E60F20912502309126024091C6
:100D60002702509128020E949C0E6B017C01609327
:100D70002502709326028093270290932802C801CF
:100D80000197F1F729813A81215031093A8329836A
:100D9000232B09F098CF20E030E04AEF54E4C30160
:100DA000B2010E943C0F6093310270933202809333
:100DB00033029093340220E030E04AEF54E4C5015E
:100DC000B4010E943C0F60932B0270932C0280931D
:100DD0002D0290932E0220E030E04AEF54E4C70148
:100DE000B6010E943C0F6093250270932602809307
:100DF0002702909328020AE919E929E530E40093D3
:100E0000F7011093F8012093F9013093FA018AE079
:100E100097EDA3E2BCE38093FF0190930002A093BF
:100E20000102B093020240E050E060E971E44093B7
:100E3000EF015093F0016093F1017093F201009380
:100E4000DF011093E0012093E1013093E2018093F0
:100E5000E7019093E801A093E901B093EA01409380
:100E6000D7015093D8016093D9017093DA0140E023
:100E700050E060E470E44093C7015093C801609370
:100E8000C9017093CA018093CF019093D001A093C0
:100E9000D101B093D2011092BF011092C001109203
:100EA000C1011092C2010E944A01609345027093F1
:100EB000460280934702909348020E94600280910C
:100EC0000001882309F46EC06091430270914402CE
:100ED000072E000C880B990B0E94E60F4B015C015A
:100EE0006091410270914202072E000C880B990B11
:100EF0000E94E60F6B017C0160913F0270914002FD
:100F0000072E000C880B990B0E94E60F9B01AC0189
:100F10000E94CA102B013C01A7019601C701B6012E
:100F20000E94CA10A30192010E949C0E0E944511CA
:100F30009B01AC01C501B4010E943C0F0E94080F47
:100F40002BE13FE245E652E40E94CA1060933B0267
:100F500070933C0280933D0290933E02A501940160
:100F6000C501B4010E94CA10A30192010E949C0E07
:100F70000E9445119B01AC01C701B6010E943C0FC4
:100F80000E94080F2BE13FE245E652EC0E94CA1096
:100F900060933702709338028093390290933A023B
:100FA000109200016091350270913602072E000CFC
:100FB000880B990B0E94E60F20913102309132028A
:100FC00040913302509134020E949B0E0E94AE0F5A
:100FD0004B015C01709336026093350260912F02E1
:100FE00070913002072E000C880B990B0E94E60FBF
:100FF00020912B0230912C0240912D0250912E0213
:101000000E949B0E0E94AE0F6B017C017093300218
:1010100060932F026091290270912A02072E000C22
:10102000880B990B0E94E60F209125023091260231
:1010300040912702509128020E949B0E0E94AE0F01
:1010400069837A838B839C8349815A8150932A02D6
:101050004093290223E333E343E35FE360912102FA
:101060007091220280912302909124020E94CA1062
:101070002B013C01B401990C880B990B0E94E60FDF
:1010800020E030E043E852E40E943C0F2AE939E9CD
:1010900049E95EE30E94CA109B01AC01C301B201A1
:1010A0000E949C0E6D837E838F83988760932102BC
:1010B00070932202809323029093240223E333E36C
:1010C00043E35FE360911D0270911E0280911F0255
:1010D000909120020E94CA104B015C01B601DD0C08
:1010E000880B990B0E94E60F20E030E043E852E4C1
:1010F0000E943C0F2AE939E949E95EE30E94CA10DF
:101100009B01AC01C501B4010E949C0E69877A87DE
:101110008B879C8760931D0270931E0280931F0231
:101120009093200223E333E343E35FE360911902EA
:1011300070911A0280911B0290911C020E94CA10A9
:101140006B017C01A981BA81BD01BB0F880B990B92
:101150000E94E60F20E030E043E852E40E943C0F9A
:101160002AE939E949E95EE30E94CA109B01AC0112
:10117000C701B6010E949C0E69837A838B839C838E
:101180006093190270931A0280931B0290931C02C1
:101190002FE632E143E85BE36D817E818F819885A4
:1011A0000E94CA1020913B0230913C0240913D02C6
:1011B00050913E020E949C0E6B017C012FE632E1B1
:1011C00043E85BE369857A858B859C850E94CA101C
:1011D00020913702309138024091390250913A0201
:1011E0000E949C0E2B013C012FE632E143E85BE3B9
:1011F00069817A818B819C810E94CA109B01AC011C
:101200006091150270911602809117029091180258
:101210000E949C0E60931502709316028093170231
:101220009093180222E938E642E958E369817A810D
:101230008B819C810E94CA100E9437116D877E8726
:101240008F87988B9B01AC01C301B2010E94CA1029
:10125000A70196010E949C0E698B7A8B8B8B9C8BCD
:101260006091430270914402072E000C880B990B89
:101270000E94E60F6B017C01609141027091420275
:10128000072E000C880B990B0E94E60F4B015C01A6
:1012900060913F0270914002072E000C880B990B61
:1012A0000E94E60F9B01AC010E94CA106D8B7E8BE1
:1012B0008F8B988FA5019401C501B4010E94CA10BB
:1012C0002D893E894F89588D0E949C0E0E944511A0
:1012D0009B01AC01C701B6010E943C0F0E94080FA0
:1012E000698F7A8F8B8F9C8FA7019601C701B601FA
:1012F0000E94CA102D893E894F89588D0E949C0EEC
:101300000E9445119B01AC01C501B4010E943C0F34
:101310000E94080F6B017C012BE13FE245E652E49D
:10132000698D7A8D8B8D9C8D0E94CA1027E137EBD9
:1013300041ED59E30E94CA104B015C0129EC35EEE6
:101340004FE75FE369897A898B899C890E94CA107B
:101350009B01AC01C501B4010E949C0E4B015C01D4
:1013600060933B0270933C0280933D0290933E0257
:1013700069897A898B899C8990582D853E854F850E
:1013800058890E94CA10A30192010E949C0E29EC68
:1013900035EE4FE75FE30E94CA102B013C012BE1C1
:1013A0003FE245E652ECC701B6010E94CA1027E1B0
:1013B00037EB41ED59E30E94CA109B01AC01C30118
:1013C000B2010E949C0E2B013C0160933702709386
:1013D00038028093390290933A02109211021092CF
:1013E0001202109213021092140210920D02109227
:1013F0000E0210920F021092100210920902109227
:101400000A0210920B0210920C0260910702709176
:1014100008026530B6E07B071CF0645076400AC0D5
:10142000643BE5E07E07C4F4645B754077FF02C06F
:101430006D5F7F4F7595679575956795072E000CC5
:10144000880B990B0E94E60F6093110270931202B1
:10145000809313029093140260910502709106022A
:10146000653026E072071CF0645076400AC0643B89
:1014700035E07307C4F4645B754077FF02C06D5FAD
:101480007F4F7595679575956795072E000C880BAE
:10149000990B0E94E60F60930D0270930E028093E9
:1014A0000F02909310026091030270910402653064
:1014B00046E074071CF0645076400AC0643B55E077
:1014C0007507C4F4645B754077FF02C06D5F7F4FA2
:1014D0007595679575956795072E000C880B990B88
:1014E0000E94E60F6093090270930A0280930B0238
:1014F00090930C0220E030E040EC50E4C501B401D0
:101500000E94CA109B01AC016091110270911202FD
:1015100080911302909114020E949B0E6B017C013A
:10152000609311027093120280931302909314023D
:1015300020E030E040EC50E4C301B2010E94CA1048
:101540009B01AC0160910D0270910E0280910F021F
:10155000909110020E949B0E2B013C0160930D02A2
:1015600070930E0280930F0290931002A7019601D0
:101570006D817E818F8198850E949B0E6B017C011D
:101580002091FF013091000240910102509102022E
:101590000E94CA102091FB013091FC014091FD0195
:1015A0005091FE010E949C0E4B015C016093FB0177
:1015B0007093FC018093FD019093FE012091F30153
:1015C0003091F4014091F5015091F601C701B60147
:1015D0000E949B0E2091EF013091F0014091F101AA
:1015E0005091F2010E94CA106D837E838F83988789
:1015F0002091F7013091F8014091F9015091FA01E1
:10160000C701B6010E94CA10A50194010E949C0E58
:101610009B01AC016D817E818F8198850E949C0E1B
:101620006D837E838F8398876093EB017093EC01C9
:101630008093ED019093EE01C092F301D092F401FA
:10164000E092F501F092F601A301920169857A8595
:101650008B859C850E949B0E6B017C012091E7018C
:101660003091E8014091E9015091EA010E94CA10CD
:101670002091E3013091E4014091E5015091E601B0
:101680000E949C0E4B015C016093E3017093E401A6
:101690008093E5019093E6012091DB013091DC011C
:1016A0004091DD015091DE01C701B6010E949B0E01
:1016B0002091D7013091D8014091D9015091DA01A0
:1016C0000E94CA102B013C012091DF013091E00102
:1016D0004091E1015091E201C701B6010E94CA1098
:1016E000A50194010E949C0E9B01AC01C301B201B3
:1016F0000E949C0E4B015C016093D3017093D40156
:101700008093D5019093D601C092DB01D092DC0189
:10171000E092DD01F092DE012091090230910A028F
:1017200040910B0250910C0269817A818B819C81DE
:101730000E949B0E6B017C012091CF013091D00162
:101740004091D1015091D2010E94CA102091CB0149
:101750003091CC014091CD015091CE010E949C0E60
:101760002B013C016093CB017093CC018093CD01A0
:101770009093CE012091C3013091C4014091C501E5
:101780005091C601C701B6010E949B0E2091BF0176
:101790003091C0014091C1015091C2010E94CA1014
:1017A00069837A838B839C832091C7013091C80120
:1017B0004091C9015091CA01C701B6010E94CA10E7
:1017C000A30192010E949C0E9B01AC0169817A8168
:1017D0008B819C810E949C0E2B013C016093BB017C
:1017E0007093BC018093BD019093BE01C092C30170
:1017F000D092C401E092C501F092C60120E030E031
:101800004FEA53E4C501B4010E94BD1087FD05C035
:1018100080E090E0AFEAB3E40EC020E030E04FEAB1
:1018200053ECC501B4010E94370F181664F080E034
:1018300090E0AFEAB3EC8093D3019093D401A093EE
:10184000D501B093D60120E030E04FEA53E46D813A
:101850007E818F8198850E94BD1087FD05C080E044
:1018600090E0AFEAB3E410C020E030E04FEA53EC80
:101870006D817E818F8198850E94370F181664F0E4
:1018800080E090E0AFEAB3EC8093EB019093EC0141
:10189000A093ED01B093EE0120E030E04FEA53E475
:1018A000C301B2010E94BD1087FD05C080E090E039
:1018B000A8ECB3E40EC020E030E04FEA53ECC301E3
:1018C000B2010E94370F181664F080E090E0AFEA92
:1018D000B3EC8093BB019093BC01A093BD01B09386
:1018E000BE016091B9017091BA01072E000C880BFE
:1018F000990B0E94E60F6B017C018090EB019090A8
:10190000EC01A090ED01B090EE01A50194010E94C0
:101910009B0E2B013C012091D3013091D4014091C9
:10192000D5015091D60129833A834B835C83809102
:10193000BB019091BC01A091BD01B091BE018D830E
:101940009E83AF83B887C301B2010E949B0E2D8195
:101950003E814F8158850E949B0E0E94B50F69877A
:101960007A878B879C876093B5017093B6018093CB
:10197000B7019093B80129813A814B815C81C30101
:10198000B2010E949C0E2D813E814F8158850E949C
:101990009C0E0E94B50F2B013C016093B101709326
:1019A000B2018093B3019093B401A5019401C701E2
:1019B000B6010E949C0E4B015C019B01AC01698148
:1019C0007A818B819C810E949C0E2D813E814F816A
:1019D00058850E949B0E0E94B50F6B017C0160939D
:1019E000AD017093AE018093AF019093B001298156
:1019F0003A814B815C81C501B4010E949B0E2D810F
:101A00003E814F8158850E949C0E0E94B50F6093C5
:101A1000A9017093AA018093AB019093AC01298531
:101A20003A854B855C85213434404105510528F4C5
:101A300020E434E040E050E00DC029853A854B8534
:101A40005C85203D37404105510560F020ED37E0D1
:101A500040E050E02093B5013093B6014093B701C8
:101A60005093B80131E4431634E053066104710425
:101A700028F420E434E040E050E00BC030ED4316A1
:101A800037E053066104710460F020ED37E040E078
:101A900050E02093B1013093B2014093B3015093D1
:101AA000B40131E4C31634E0D306E104F10428F4B0
:101AB00020E434E040E050E00BC030EDC31637E0E6
:101AC000D306E104F10460F020ED37E040E050E09F
:101AD0002093AD013093AE014093AF015093B0011C
:101AE000613434E073078105910568F480E494E083
:101AF000A0E0B0E08093A9019093AA01A093AB016C
:101B0000B093AC0111C0603D77408105910560F054
:101B100020ED37E040E050E02093A9013093AA0186
:101B20004093AB015093AC010E944A016093A50120
:101B30007093A6018093A7019093A8018BB1806F49
:101B40008BB98091A5019091A601A091A701B091B8
:101B5000A8014091B5015091B6016091B701709113
:101B6000B801480F591F6A1F7B1F4093A101509372
:101B7000A2016093A3017093A4014091B10150911F
:101B8000B2016091B3017091B401480F591F6A1FEF
:101B90007B1F40939D0150939E0160939F01709322
:101BA000A0014091AD015091AE016091AF017091E3
:101BB000B001480F591F6A1F7B1F40939901509332
:101BC0009A0160939B0170939C014091A9015091EF
:101BD000AA016091AB017091AC01840F951FA61F03
:101BE000B71F8093950190939601A0939701B093AE
:101BF00098018BB1803108F45CC00E944A01609367
:101C0000A5017093A6018093A7019093A80100916C
:101C1000A1011091A2012091A3013091A4016017AC
:101C200071078207930708F05C9840919D015091DD
:101C30009E0160919F017091A0018091A5019091FA
:101C4000A601A091A701B091A80184179507A60746
:101C5000B70708F05D984091990150919A01609101
:101C60009B0170919C018091A5019091A601A0918A
:101C7000A701B091A80184179507A607B70708F038
:101C80005E984091950150919601609197017091F5
:101C900098018091A5019091A601A091A701B09112
:101CA000A80184179507A607B70708F4A2CF5F9885
:101CB000A0CF0E944A016093490270934A02809328
:101CC0004B0290934C028091490290914A02A0915C
:101CD0004B02B0914C0240914502509146026091F6
:101CE000470270914802841B950BA60BB70B813AF3
:101CF0009F40A105B105E8F240E050E0452B09F412
:101D0000D2C80E940000CFC8EDE9F2E0138212822F
:101D100088EE93E0A0E0B0E084839583A683B78348
:101D200085E091E0918380830895EE0FFF1F059079
:101D3000F491E02D09945058BB27AA270E94B30EB6
:101D40000C9483100E94751038F00E947C1020F0D3
:101D500039F49F3F19F426F40C944B100EF4E095DF
:101D6000E7FB0C944510E92F0E94941058F3BA1722
:101D7000620773078407950720F079F4A6F50C94A1
:101D8000B6100EF4E0950B2EBA2FA02D0B01B90161
:101D900090010C01CA01A0011124FF27591B99F0E1
:101DA000593F50F4503E68F11A16F040A22F232FED
:101DB000342F4427585FF3CF469537952795A7953D
:101DC000F0405395C9F77EF41F16BA0B620B730BE4
:101DD000840BBAF09150A1F0FF0FBB1F661F771F55
:101DE000881FC2F70EC0BA0F621F731F841F48F40A
:101DF000879577956795B795F7959E3F08F0B0CF93
:101E00009395880F08F09927EE0F97958795089579
:101E1000DF93DD27B92FBF7740E85FE3161617067B
:101E200048075B0718F4D92F0E94C2109F938F9325
:101E30007F936F930E948511E8E6F0E00E944E10B8
:101E40000E9483102F913F914F915F910E94DD106E
:101E5000DD2351F09058A2EA2AED3FE049EC5FE320
:101E6000D0785D270E94B30EDF910C9483100E94FE
:101E7000211008F481E008950E94500F0C94831003
:101E80000E947C1058F00E94751040F029F45F3FCA
:101E900029F00C94451051110C94B7100C944B1070
:101EA0000E94941068F39923B1F3552391F3951B85
:101EB000550BBB27AA2762177307840738F09F5F6B
:101EC0005F4F220F331F441FAA1FA9F335D00E2ED8
:101ED0003AF0E0E832D091505040E695001CCAF745
:101EE0002BD0FE2F29D0660F771F881FBB1F261708
:101EF00037074807AB07B0E809F0BB0B802DBF01DF
:101F0000FF2793585F4F3AF09E3F510578F00C94AD
:101F100045100C94B7105F3FE4F3983ED4F38695D8
:101F200077956795B795F7959F5FC9F7880F911DCE
:101F30009695879597F90895E1E0660F771F881FBA
:101F4000BB1F621773078407BA0720F0621B730B6D
:101F5000840BBA0BEE1F88F7E09508950E94B50F29
:101F60006894B1110C94B71008950E949C1088F0E9
:101F70009F5798F0B92F9927B751B0F0E1F0660F4D
:101F8000771F881F991F1AF0BA95C9F714C0B1308E
:101F900091F00E94B610B1E008950C94B610672F2E
:101FA000782F8827B85F39F0B93FCCF386957795BD
:101FB0006795B395D9F73EF49095809570956195A6
:101FC0007F4F8F4F9F4F0895E89409C097FB3EF4D1
:101FD00090958095709561957F4F8F4F9F4F992376
:101FE000A9F0F92F96E9BB279395F69587957795F4
:101FF0006795B795F111F8CFFAF4BB0F11F460FFB4
:102000001BC06F5F7F4F8F4F9F4F16C0882311F00B
:1020100096E911C0772321F09EE8872F762F05C01F
:10202000662371F096E8862F70E060E02AF09A95BA
:10203000660F771F881FDAF7880F9695879597F9AF
:102040000895990F0008550FAA0BE0E8FEEF161649
:102050001706E807F907C0F012161306E407F5079C
:1020600098F0621B730B840B950B39F40A2661F010
:10207000232B242B252B21F408950A2609F4A140B3
:10208000A6958FEF811D811D089597F99F6780E8C0
:1020900070E060E008959FEF80EC0895DF93CF93A8
:1020A0001F930F93FF92EF92DF927B018C01689454
:1020B00006C0DA2EEF010E94DD10FE01E894A59122
:1020C0002591359145915591A6F3EF010E94B30EEC
:1020D000FE019701A801DA9469F7DF90EF90FF9075
:1020E0000F911F91CF91DF91089500240A94161645
:1020F000170618060906089500240A9412161306F6
:10210000140605060895092E0394000C11F4882383
:1021100052F0BB0F40F4BF2B11F460FF04C06F5F9F
:102120007F4F8F4F9F4F089557FD9058440F551F75
:1021300059F05F3F71F04795880F97FB991F61F049
:102140009F3F79F087950895121613061406551FC0
:10215000F2CF4695F1DF08C0161617061806991F2C
:10216000F1CF86957105610508940895E894BB2721
:1021700066277727CB0197F908950E94211008F46C
:102180008FEF08959B01AC0160E070E080E89FE371
:102190000C943C0F0E94DD100C9483100E9475106B
:1021A00038F00E947C1020F0952311F00C9445101B
:1021B0000C944B1011240C94B7100E94941070F3DF
:1021C000959FC1F3950F50E0551F629FF001729FDC
:1021D000BB27F00DB11D639FAA27F00DB11DAA1FEB
:1021E000649F6627B00DA11D661F829F2227B00D38
:1021F000A11D621F739FB00DA11D621F839FA00DC3
:10220000611D221F749F3327A00D611D231F849F12
:10221000600D211D822F762F6A2F11249F57504069
:102220009AF0F1F088234AF0EE0FFF1FBB1F661FE4
:10223000771F881F91505040A9F79E3F510580F0AD
:102240000C9445100C94B7105F3FE4F3983ED4F320
:10225000869577956795B795F795E7959F5FC1F751
:10226000FE2B880F911D9695879597F908959F935A
:102270000E94A0110F9007FCEE5F0C94C91119F495
:1022800016F40C944B100C9489110E949C10B8F316
:102290009923C9F3B6F39F57550B87FF0E949711F7
:1022A0000024A0E640EA900180585695979528F4BE
:1022B000805C660F771F881F20F0261737074807B6
:1022C00030F4621B730B840B202931294A2BA6950D
:1022D00017940794202531254A2758F7660F771F52
:1022E000881F20F026173707480730F4620B730B5E
:1022F000840B200D311D411DA09581F7B901842F5C
:102300009158880F9695879508959B01AC010C9480
:10231000CA109F3F31F0915020F4879577956795CB
:10232000B795880F911D9695879597F908959150C7
:102330005040660F771F881FD2F708950C944B10FA
:102340000E949C10D8F3E894E0E0BB279F57F0F080
:102350002AED3FE049EC06C0EE0FBB0F661F771F6A
:10236000881F28F0B23A62077307840728F0B25A30
:10237000620B730B840BE3959A9572F7803830F4F7
:102380009A95BB0F661F771F881FD2F790480C9451
:102390008B11EF93E0FF07C0A2EA2AED3FE049EC82
:1023A0005FEB0E94B30E0E9483100F90039401FC18
:1023B0009058E5E9F0E00C94DD119F938F937F93A3
:1023C0006F93FF93EF939B01AC010E94CA10EF91B2
:1023D000FF910E944E102F913F914F915F910C946D
:1023E000CA1081E090E0F8940C94F611F894FFCFB5
:1023F00001000000002602F9015B02CD01F101DDC0
:0424000001CE010008
:00000001FF
