:100000000C947E000C94A6000C94A6000C94090598
:100010000C94A6000C94A6000C94A6000C94A600C8
:100020000C94A6000C94A6000C94A6000C94A600B8
:100030000C94A6000C94A6000C94A6000C94A600A8
:100040000C94CF070C94A6000C94A9030C94830382
:100050000C94A6000C94A6000C94A6000C94A60088
:100060000C94DB030C94A600084AD73B3BCE016EF0
:1000700084BCBFFDC12F3D6C74319ABD56833DDAFF
:100080003D00C77F11BED9E4BB4C3E916BAAAABE0E
:10009000000000803F05A84CCDB2D44EB93836A937
:1000A000020C50B9918688083CA6AAAA2ABE000074
:1000B00000803F0000000000250028002B00040401
:1000C0000404040404040202020202020303030300
:1000D00003030102040810204080010204081020DC
:1000E00001020408102000000008000201000003C3
:1000F00004070000000000000000651111241FBE6D
:10010000CFEFD8E0DEBFCDBF11E0A0E0B1E0E6E187
:10011000FBE202C005900D92A435B107D9F723E0A8
:10012000A4E5B1E001C01D92A83AB207E1F710E0E2
:10013000CEE7D0E004C02197FE010E942312CD3704
:10014000D107C9F70E9419080C9489150C94000076
:1001500008950895CF92DF92EF92FF920F931F932D
:10016000CF93DF936C017A018B01C0E0D0E0CE1514
:10017000DF0581F0D8016D918D01D601ED91FC91E3
:100180000190F081E02DC6010995892B11F021968F
:10019000EECF7E01C701DF91CF911F910F91FF90AC
:1001A000EF90DF90CF900895FC01538D448D252F63
:1001B00030E0842F90E0821B930B541710F0CF9601
:1001C000089501970895FC01918D828D981761F033
:1001D000828DDF01A80FB11D5D968C91928D9F5F7E
:1001E0009F73928F90E008958FEF9FEF0895FC0129
:1001F000918D828D981731F0828DE80FF11D858DDC
:1002000090E008958FEF9FEF0895FC01918D228D6E
:10021000892F90E0805C9F4F821B91098F739927F3
:1002200008958AEE92E00E94050121E0892B09F4ED
:1002300020E0822F0895FC01848DDF01A80FB11DFD
:10024000A35ABF4F2C91848D90E001968F7399270C
:10025000848FA689B7892C93A089B1898C918370EA
:1002600080648C93938D848D981306C00288F389E3
:10027000E02D80818F7D80830895EF92FF920F9310
:100280001F93CF93DF93EC0181E0888F9B8D8C8D42
:10029000981305C0E889F989808185FD26C0F62E6E
:1002A0000B8D10E00F5F1F4F0F731127E02E8C8D09
:1002B000E8120CC00FB607FCFACFE889F9898081F3
:1002C00085FFF5CFCE010E941B01F1CF8B8DFE0182
:1002D000E80FF11DE35AFF4FF0829FB7F8940B8FA0
:1002E000EA89FB89808180620AC09FB7F894EE8911
:1002F000FF896083E889F9898081837080648083C5
:100300009FBF81E090E0DF91CF911F910F91FF900F
:10031000EF900895CF93DF93EC01888D8823C9F087
:10032000EA89FB89808185FD05C0A889B9898C91FE
:1003300086FD0FC00FB607FCF5CF808185FFF2CF99
:10034000A889B9898C9185FFEDCFCE010E941B0150
:10035000E7CFDF91CF91089580E090E0892B29F0DD
:100360000E94110181110C940000089585ED809385
:10037000BC008091BC0084FDFCCF1092C5020895A2
:100380004091AC01262F30E0240F311D2132310580
:10039000DCF42091C5022430C9F4FC0180E090E037
:1003A000861758F43091AC012191DC01A457BE4F5F
:1003B000A30FB11D2C930196F3CF8091AC01680F70
:1003C0006093AC0180E0089581E0089582E0089593
:1003D0000895E091D4018091D301E81730F4F0E062
:1003E000E459FE4F808190E008958FEF9FEF0895CC
:1003F0009091D4018091D301981750F4E92FF0E047
:10040000E459FE4F208130E09F5F9093D40102C0F9
:100410002FEF3FEFC90108958091D30190E0209123
:10042000D401821B91090895CF92DF92EF92FF923F
:100430000F931F93CF93DF937C01CB018A0120910F
:10044000C602222389F0EB016B01C40ED51ECC1528
:10045000DD0569F06991D701ED91FC910190F08182
:10046000E02DC7010995F3CF642F0E94C001C80198
:10047000DF91CF911F910F91FF90EF90DF90CF9080
:100480000895CF93DF931F92CDB7DEB76983209194
:10049000C6022223D1F02091E902203240F021E06F
:1004A00030E0FC013383228380E090E015C080912E
:1004B000C702E82FF0E0E853FD4F998190838F5FEA
:1004C0008093C7028093E90205C061E0CE010196E6
:1004D0000E94C00181E090E00F90DF91CF910895DC
:1004E000089580E090E008950E948415CF9381E004
:1004F0008093C60288E68093E8021092C7021092A9
:10050000E9028BE390E00E94D0050E94D50580911E
:10051000C5028111FCCF81E08093C5028093C402A3
:100520009FEF9093C3021092C2029DE09093C1028C
:100530008093A0028091A002806D8093A0028091A0
:100540009F02813061F410929F028091A0028093FB
:10055000BB008091BC0083FDF8CF85EC01C085EE27
:100560008093BC008091C5028130E1F38091C2028A
:100570008E3018F49091C20201C09EE0E1EAF2E0F0
:10058000ACE6B1E080E0891721F021912D938F5FD7
:10059000FACF1092D4018093D30190E00F970CF022
:1005A000B0C087E893E00E94F801C82F87E893E085
:1005B0000E94F80160E070E07C2F862B972BBC0135
:1005C000990F880B990B0E947413609389027093A2
:1005D0008A0280938B0290938C0287E893E00E94BA
:1005E000F801C82F87E893E00E94F80160E070E00E
:1005F0007C2F862B972BBC01990F880B990B0E949F
:10060000741360938D0270938E0280938F02909387
:10061000900287E893E00E94F801C82F87E893E0F2
:100620000E94F80160E070E07C2F862B972BBC01C4
:10063000990F880B990B0E94741360939102709329
:100640009202809393029093940287E893E00E9431
:10065000F80187E893E00E94F80187E893E00E94A0
:10066000F801C82F87E893E00E94F80160E070E08D
:100670007C2F862B972BBC01990F880B990B0E941E
:1006800074136093690270936A0280936B02909373
:100690006C0287E893E00E94F801C82F87E893E096
:1006A0000E94F80160E070E07C2F862B972BBC0144
:1006B000990F880B990B0E94741360936D027093CD
:1006C0006E0280936F029093700287E893E00E941D
:1006D000F801C82F87E893E00E94F80160E070E01D
:1006E0007C2F862B972BBC01990F880B990B0E94AE
:1006F00074136093710270937202809373029093EB
:100700007402CF9108951F920F920FB60F92112489
:100710002F933F934F935F936F937F938F939F9309
:10072000AF93BF93EF93FF938AEE92E00E941B0179
:10073000FF91EF91BF91AF919F918F917F916F91B9
:100740005F914F913F912F910F900FBE0F901F908F
:1007500018951F920F920FB60F9211242F938F931B
:100760009F93EF93FF93E091FA02F091FB02808157
:10077000E0910003F091010382FD12C0908180910D
:1007800003038F5F8F7320910403821751F0E09170
:100790000303F0E0E651FD4F958F8093030301C002
:1007A0008081FF91EF919F918F912F910F900FBEBC
:1007B0000F901F9018951F920F920FB60F92112451
:1007C0002F933F934F935F936F937F938F939F9359
:1007D000AF93BF93EF93FF938091B900887F8036EA
:1007E00009F49CC068F5883209F45BC090F480314C
:1007F00009F454C038F4882309F4F6C0883009F4A9
:100800004DC0F6C0883109F44CC0803209F45DC097
:10081000EFC0803409F468C048F4803309F455C04F
:10082000883309F0E5C08093C302D8C0803509F44D
:100830004FC0883509F45DC0883409F0D9C0D6C0EE
:10084000883909F4C7C0A8F4883709F467C038F4B8
:10085000883609F463C0803709F460C0C9C088389D
:1008600009F4B8C0803909F45FC0803809F0C0C00D
:100870005BC0803B09F486C038F4803A09F466C056
:10088000883A09F47FC0B4C0803C09F4A7C0883C12
:1008900009F4A4C0883B09F48AC0AAC08091A002D0
:1008A00010C09091C2028091C102981770F5E0913A
:1008B000C20281E08E0F8093C202F0E0EF55FD4F3F
:1008C00080818093BB0085EC86C08093C3028EC07C
:1008D000E091C20281E08E0F8093C2028091BB0042
:1008E000F0E0EF55FD4F80839091C2028091C102EC
:1008F0006EC0E091C20281E08E0F8093C2028091AF
:10090000BB00F0E0EF55FD4F80838091C402811160
:100910006DC081E080939F0284EA61C083E0809390
:10092000C5021092CE01CFCF8091CE01803208F067
:1009300051C0E091CE0181E08E0F8093CE01809175
:10094000BB00F0E0E255FE4F8083BDCF85EC809385
:10095000BC001092C5028091CE01803230F4E0914B
:10096000CE01F0E0E255FE4F10826091CE0170E0C2
:10097000E091CF01F091D0018EEA91E009951092BB
:10098000CE0136C084E08093C5021092AD01109272
:10099000AC01E091D101F091D20109958091AC01B7
:1009A000811105C081E08093AC0110928C01E0912F
:1009B000AD0181E08E0F8093AD01F0E0E457FE4F72
:1009C00080818093BB009091AD018091AC0198171C
:1009D00008F479CF85E88093BC000AC085EC809349
:1009E000BC001092C50204C01092C3020E94B6015E
:1009F000FF91EF91BF91AF919F918F917F916F91F7
:100A00005F914F913F912F910F900FBE0F901F90CC
:100A100018951F920F920FB60F9211242F933F93A8
:100A20004F935F936F937F938F939F93AF93BF93F6
:100A3000EF93FF930E94AA0720916A0130916B0106
:100A4000189B11C0232B09F521E030E030936B0196
:100A500020936A0160936601709367018093680137
:100A60009093690112C02130310579F410926B0125
:100A700010926A012091660130916701AB01421B1F
:100A8000530B50933A024093390220916401309104
:100A90006501199B11C0232B09F521E030E030934B
:100AA00065012093640160936001709361018093FC
:100AB00062019093630112C02130310579F41092E4
:100AC0006501109264012091600130916101AB01D8
:100AD000421B530B5093400240933F0220915E0112
:100AE00030915F011A9B11C0232B09F521E030E002
:100AF00030935F0120935E0160935A0170935B0114
:100B000080935C0190935D0112C02130310579F42E
:100B100010925F0110925E0120915A0130915B01A9
:100B2000AB01421B530B5093320240933102209190
:100B30005801309159011B9B11C0232B01F521E075
:100B400030E0309359012093580160935401709321
:100B50005501809356019093570111C02130310502
:100B600071F4109259011092580120915401309162
:100B70005501621B730B7093340260933302FF9133
:100B8000EF91BF91AF919F918F917F916F915F9105
:100B90004F913F912F910F900FBE0F901F9018957E
:100BA000682F87E893E00C9441023091E9023132DA
:100BB00008F04BC08091C5028111FCCF9091E802F2
:100BC00022E02093C50221E02093C4022FEF20935E
:100BD000C3021092C2023093C102E8ECF2E0A1EA33
:100BE000B2E020E0321721F041914D932F5FFACF10
:100BF0001092A0022091A002990F922B9093A00234
:100C000090919F02913061F410929F029091A00206
:100C10009093BB009091BC0093FDF8CF95EC01C080
:100C200095EE9093BC009091C5029230E1F39091C3
:100C3000C3029F3F79F08091C302803241F08091DE
:100C4000C302803331F084E005C081E003C082E05C
:100C500001C083E01092C7021092E9021092C6020E
:100C6000089590E0FC01EA51FF4F2491FC01EE52FF
:100C7000FF4F3491FC01E254FF4FE491EE23B1F1B8
:100C8000222339F1233091F038F42130A9F02230B9
:100C900001F584B58F7D12C0273091F02830A1F086
:100CA0002430B9F4809180008F7D03C08091800052
:100CB0008F77809380000DC084B58F7784BD09C085
:100CC0008091B0008F7703C08091B0008F7D8093BA
:100CD000B000F0E0EE0FFF1FEC54FF4FA591B49170
:100CE0008FB7F894EC91E32BEC938FBF08950097A6
:100CF00069F0FC0101900020E9F73197AF01481B32
:100D0000590BBC018AEE92E00C94AA0080E090E0BE
:100D100008952F923F924F925F926F927F928F929F
:100D20009F92AF92BF92CF92DF92EF92FF920F937A
:100D30001F93CF93DF93CDB7DEB7A4970FB6F89488
:100D4000DEBF0FBECDBF4B015C01F42E9B01AC0199
:100D50000E941715882319F088E491E027C0240128
:100D60003501E89477F82FEF3FEF4FE75FE7C301D6
:100D7000B2010E94171581110DC02FEF3FEF4FE711
:100D80005FE7C301B2010E94C51218161CF48CE47F
:100D900091E00CC02FEF3FEF4FE75FE4C501B401D6
:100DA0000E944B1418162CF480E591E00E947706FF
:100DB000B8C02FEF3FEF4FE75FECC501B4010E94D1
:100DC000C51287FDF1CF20E030E0A901C501B401D3
:100DD0000E94C51287FF0BC06DE28AEE92E00E946E
:100DE0003D013C01B7FAB094B7F8B09402C0612C51
:100DF000712C10E060E070E080E09FE3F11641F0BC
:100E000020E030E040E251E40E94CA121F5FF6CFBA
:100E1000A50194010E942A124B015C010E94431318
:100E20006AA3C72ED82EE92E19A2262F372F482FB6
:100E3000592F8E010F5D1F4F0BA31CA39AE0292E83
:100E4000312C412C512CCA01B901A20191010E94FF
:100E5000CE11605DF80162938F01211531054105C6
:100E6000510589F7CF010E9477068301080F191FEA
:100E7000FF2009F455C06AA17C2D8D2D9E2D0E9466
:100E800072139B01AC01C501B4010E9429124B01F0
:100E90005C016EE28AEE92E00E943D01080F191F8C
:100EA0008AE0282E312C412C512C20E030E040E209
:100EB00051E4C501B4010E9458144B015C010E9429
:100EC00043139B0140E050E019A2CBA0DCA0762E9A
:100ED0003AA3642EE52ECA01B901A20191010E9434
:100EE000CE11605DF60162936F0121153105410558
:100EF000510589F7CF010E947706080F191F672D4A
:100F00007AA1862D9E2D0E9472139B01AC01C50112
:100F1000B4010E9429124B015C01FA94F110C5CF73
:100F2000C801A4960FB6F894DEBF0FBECDBFDF9107
:100F3000CF911F910F91FF90EF90DF90CF90BF90D6
:100F4000AF909F908F907F906F905F904F903F9069
:100F50002F9008953FB7F8948091A4039091A50332
:100F6000A091A603B091A70326B5A89B05C02F3F6B
:100F700019F00196A11DB11D3FBFBA2FA92F982FBF
:100F80008827820F911DA11DB11DBC01CD0142E03A
:100F9000660F771F881F991F4A95D1F708951F92F2
:100FA0000F920FB60F9211242F933F938F939F931D
:100FB000AF93BF938091A0039091A103A091A2034E
:100FC000B091A30330919F0323E0230F2D3720F42A
:100FD0000196A11DB11D05C026E8230F0296A11D93
:100FE000B11D20939F038093A0039093A103A0932E
:100FF000A203B093A3038091A4039091A503A091B1
:10100000A603B091A7030196A11DB11D8093A4036F
:101010009093A503A093A603B093A703BF91AF91AC
:101020009F918F913F912F910F900FBE0F901F9026
:101030001895CF93DF93CDB7DEB7A4970FB6F8948A
:10104000DEBF0FBECDBF789484B5826084BD84B509
:10105000816084BD85B5826085BD85B5816085BDB3
:1010600080916E00816080936E001092810080916B
:1010700081008260809381008091810081608093F3
:101080008100809180008160809380008091B10018
:1010900084608093B1008091B00081608093B00043
:1010A00080917A00846080937A0080917A008260D7
:1010B00080937A0080917A00816080937A00809199
:1010C0007A00806880937A001092C100E091FA0261
:1010D000F091FB0282E08083E091F602F091F7024A
:1010E0001082E091F802F091F9021082109202034E
:1010F000E091FE02F091FF0286E08083E091FC0225
:10110000F091FD02808180618083E091FC02F0918A
:10111000FD02808188608083E091FC02F091FD02F5
:10112000808180688083E091FC02F091FD028081E3
:101130008F7D808391E0909368008FE080936B00B7
:101140008AB1806F8AB91092D4011092D3011092A3
:10115000C7021092E9021092C5029093C402109245
:101160009F0282E10E94310683E10E943106809154
:10117000B9008E7F8093B9008091B9008D7F8093F4
:10118000B90088E48093B80085E48093BC0088EAC5
:1011900090E09093D2018093D10189EA90E09093FE
:1011A000D0018093CF018CE08093B80082EE94E070
:1011B0006BE97FE04BED5EE22BB1206F2BB9FB01B9
:1011C0003197F1F72BB12F702BB9FA013197F1F765
:1011D000019791F721E02093C60238E63093E802A8
:1011E0001092C7021092E9028BE690E00E94D005AF
:1011F00080E090E00E94D0050E94D50541E0409338
:10120000C60258E65093E8021092C7021092E90213
:101210008BE190E00E94D00588E090E00E94D0052C
:101220000E94D50581E08093C60298E69093E8027B
:101230001092C7021092E9028CE190E00E94D00562
:1012400080E090E00E94D0050E94D505A1EDB7E0B6
:10125000BE83AD830BE91FE02BED222E2EE2322E52
:101260000E9476026091590270915A0280915B024D
:1012700090915C020E9474132091690230916A027D
:1012800040916B0250916C020E942A120E943C1302
:101290004B015C016093590270935A0280935B0288
:1012A00090935C0260915D0270915E0280915F029A
:1012B000909160020E94741320916D0230916E0231
:1012C00040916F02509170020E942A120E943C13BA
:1012D00069837A838B839C8360935D0270935E0243
:1012E00080935F029093600260916102709162024C
:1012F00080916302909164020E94741320917102A4
:101300003091720240917302509174020E942A122D
:101310000E943C132B013C016093610270936202B6
:1013200080936302909364028BB1806F8BB9C80184
:101330000197F1F78BB18F708BB9C1010197F1F76C
:101340002D813E81215031093E832D83232B09F0CD
:1013500087CF80EDC82E87E0D82EE12CF12CC50177
:10136000B401A70196010E94F01120935902309315
:101370005A0240935B0250935C0269817A818B81AF
:101380009C81A70196010E94F01120935D02309389
:101390005E0240935F0250936002C301B201A70155
:1013A00096010E94F01120936102309362024093F3
:1013B00063025093640280916800816080936800AA
:1013C00080916B00816080936B0080916B008260E4
:1013D00080936B0080916B00846080936B008091A0
:1013E0006B00886080936B0090E4292E96E0392E84
:1013F0008091280190912901A0912A01B0912B019F
:101400008D8F9E8FAF8FB8A320912401309125013D
:10141000409126015091270129A33AA34BA35CA335
:101420000E94AA0760939B0270939C0280939D0286
:1014300090939E028091950290919602892B09F0DB
:1014400076C00E947602C0908D02D0908E02E0900D
:101450008F02F09090024090890250908A02609032
:101460008B0270908C026091910270919202809137
:101470009302909194029B01AC010E9458144B017D
:101480005C01A3019201C301B2010E945814A5019D
:1014900094010E942A120E94D3149B01AC01C7013F
:1014A000B6010E94CA120E94961269837A838B83C6
:1014B0009C83A7019601C701B6010E945814A5019B
:1014C00094010E942A120E94D3149B01AC01C30113
:1014D000B2010E94CA120E9496126B017C012BE19C
:1014E0003FE245E652E469817A818B819C810E94CA
:1014F00058146093790270937A0280937B029093E0
:101500007C022BE13FE245E652ECC701B6010E94A6
:10151000581460937D0270937E0280937F029093B3
:10152000800241E050E050939602409395020E9461
:1015300076026091590270915A0280915B029091FB
:101540005C020E9474139B01AC016091690270916E
:101550006A0280916B0290916C020E9429126B01C9
:101560007C0160915D0270915E0280915F029091BA
:1015700060020E9474139B01AC0160916D02709136
:101580006E0280916F02909170020E9429122B01CD
:101590003C018091710290917202A0917302B0910E
:1015A00074028D839E83AF83B887609161027091CE
:1015B000620280916302909164020E9474139B0105
:1015C000AC016D817E818F8198850E94291220E077
:1015D00030E043E852E40E94CA1269877A878B8719
:1015E0009C872AE939E949E15FE3609149027091FA
:1015F0004A0280914B0290914C020E9458144B0178
:101600005C0120E030E043E852E4C701B6010E94EB
:10161000CA122DEC3CEC4CEC5EE30E9458149B018A
:10162000AC01C501B4010E942A1269837A838B83BD
:101630009C836093490270934A0280934B0290937B
:101640004C022AE939E949E15FE360914D0270916A
:101650004E0280914F02909150020E9458144B010B
:101660005C0120E030E043E852E4C301B2010E9493
:10167000CA122DEC3CEC4CEC5EE30E9458149B012A
:10168000AC01C501B4010E942A126D877E878F8745
:10169000988B60934D0270934E0280934F0290930B
:1016A00050022AE939E949E15FE360915102709102
:1016B000520280915302909154020E9458144B019F
:1016C0005C012DEC3CEC4CEC5EE369857A858B8506
:1016D0009C850E9458149B01AC01C501B4010E9475
:1016E0002A1269877A878B879C876093510270934F
:1016F0005202809353029093540220ED32E240E86C
:1017000058E3C701B6010E94581420917902309124
:101710007A0240917B0250917C020E942A12698BCE
:101720007A8B8B8B9C8B2BE733E14FE855E36D81F4
:101730007E818F8198850E9458140E94C5146D8304
:101740007E838F83988720ED32E240E858E3C3011F
:10175000B2010E94581420917D0230917E02409186
:101760007F02509180020E942A126B017C012D8120
:101770003E814F81588569897A898B899C890E942D
:1017800058149B01AC01C701B6010E9429122B011C
:101790003C01C0908D02D0908E02E0908F02F090BC
:1017A00090028090890290908A02A0908B02B09063
:1017B0008C026091910270919202809193029091BB
:1017C00094029B01AC010E9458146D8B7E8B8F8B11
:1017D000988FA5019401C501B4010E9458142D8968
:1017E0003E894F89588D0E942A120E94D3149B0172
:1017F000AC01C701B6010E94CA120E949612698FFD
:101800007A8F8B8F9C8FA7019601C701B6010E942A
:1018100058142D893E894F89588D0E942A120E94A2
:10182000D3149B01AC01C501B4010E94CA120E94ED
:1018300096126B017C01A30192016D817E818F81E3
:1018400098850E94581429893A894B895C890E949D
:101850002A1225E035EC4FE75FE30E9458144B0154
:101860005C012BE13FE245E652E4698D7A8D8B8D78
:101870009C8D0E9458142AEF3DEE4BE65AE30E94DD
:1018800058149B01AC01C501B4010E942A124B01FE
:101890005C016093790270937A0280937B0290934B
:1018A0007C022BE13FE245E652ECC701B6010E9403
:1018B00058142AEF3DEE4BE65AE30E9458146B0190
:1018C0007C0125E035EC4FE75FE3C301B2010E94E4
:1018D00058149B01AC01C701B6010E942A12609303
:1018E0007D0270937E0280937F029093800220E0BD
:1018F00030E040EA50E40E9458142B013C0120E003
:1019000030E040EA50E4C501B4010E9458146B0174
:101910007C011092410210924202109243021092F6
:10192000440280913F02909140028530A6E09A07E0
:101930001CF08450964006C0843BB5E09B07A4F49D
:10194000845B954066E070E00E94BA11072E000C9F
:10195000880B990B0E9474136093410270934202AA
:10196000809343029093440210923B0210923C02F7
:1019700010923D0210923E028091390290913A02FB
:101980008530E6E09E071CF08450964006C0843BFC
:1019900025E09207A4F4845B954066E070E00E9425
:1019A000BA11072E000C880B990B0E9474136093D8
:1019B0003B0270933C0280933D0290933E02109252
:1019C000350210923602109237021092380280913E
:1019D000330290913402853036E093071CF0845036
:1019E000964006C0843B45E09407A4F4845B954090
:1019F00066E070E00E94BA11072E000C880B990B6C
:101A00000E947413609335027093360280933702FC
:101A10009093380280913102909132028134964045
:101A200024F03092320220923102A301920160919F
:101A30003B0270913C0280913D0290913E020E94D7
:101A400029122B013C0160933B0270933C0280936E
:101A50003D0290933E02A701960160914102709170
:101A6000420280914302909144020E9429126D83A8
:101A70007E838F83988760934102709342028093A4
:101A8000430290934402A30192016D857E858F8568
:101A900098890E9429126B017C0120919703309153
:101AA00098034091990350919A030E9458142091F1
:101AB0002D0230912E0240912F02509130020E944F
:101AC0002A124B015C0160932D0270932E028093C9
:101AD0002F02909330022091290230912A024091E6
:101AE0002B0250912C02C701B6010E9429122091AD
:101AF00025023091260240912702509128020E942F
:101B00002A122091930330919403409195035091B0
:101B100096030E945814698B7A8B8B8B9C8B209137
:101B20009B0330919C0340919D0350919E03C701FC
:101B3000B6010E945814A50194010E942A129B012B
:101B4000AC0169897A898B899C890E942A126093E9
:101B500021027093220280932302909324028D85A8
:101B60009E85AF85B8898093290290932A02A0931D
:101B70002B02B0932C0240922502509226026092D2
:101B80002702709228022D813E814F8158856981FC
:101B90007A818B819C810E9429126B017C0120E05B
:101BA00030E0A9010E94581420911D0230911E02BC
:101BB00040911F02509120020E942A124B015C01A9
:101BC00060931D0270931E0280931F029093200267
:101BD0002091190230911A0240911B0250911C026F
:101BE000C701B6010E9429122091150230911602F8
:101BF00040911702509118020E942A122D8D3E8D9D
:101C00004F8D58A10E9458142B013C01A50194014D
:101C1000C701B6010E942A129B01AC01C301B201A7
:101C20000E942A1260931102709312028093130291
:101C30009093140229813A814B815C81209319028F
:101C400030931A0240931B0250931C028D819E8197
:101C5000AF81B8858093150290931602A093170266
:101C6000B0931802409035025090360260903702CF
:101C700070903802A301920169857A858B859C85D5
:101C80000E9429126B017C012AE037ED43E25CE3FC
:101C90000E94581420910D0230910E0240910F02C3
:101CA000509110020E942A124B015C0160930D02B8
:101CB00070930E0280930F029093100220910902FC
:101CC00030910A0240910B0250910C02C701B601FB
:101CD0000E942912209105023091060240910702CC
:101CE000509108020E942A1229A13AA14BA15CA19D
:101CF0000E94581469837A838B839C8320E030E0B0
:101D000040EC5FE3C701B6010E945814A50194019D
:101D10000E942A129B01AC0169817A818B819C818E
:101D20000E942A12609301027093020280930302C0
:101D30009093040229853A854B855C85209309029E
:101D400030930A0240930B0250930C02409205021A
:101D50005092060260920702709208028CE291E0B3
:101D60000E947706609121027091220280912302E5
:101D70009091240242E00E94890687E391E00E944C
:101D80007706609111027091120280911302909176
:101D9000140242E00E94890685E491E00E947706E1
:101DA000C0902102D0902202E0902302F090240201
:101DB00020E030E048EC53E4C701B6010E944B1428
:101DC00087FD05C080E090E0A8ECB3E40EC020E001
:101DD00030E048EC53ECC701B6010E94C51218165A
:101DE00064F080E090E0A8ECB3EC80932102909343
:101DF0002202A0932302B0932402C0901102D0903B
:101E00001202E0901302F090140220E030E048EC5F
:101E100053E4C701B6010E944B1487FD05C080E062
:101E200090E0A8ECB3E40EC020E030E048EC53ECC6
:101E3000C701B6010E94C512181664F080E090E058
:101E4000A8ECB3EC8093110290931202A0931302BA
:101E5000B0931402C0900102D0900202E0900302FD
:101E6000F090040220E030E048EC53E4C701B601F2
:101E70000E944B1487FD05C080E090E0A8ECB3E41D
:101E80000EC020E030E048EC53ECC701B6010E94E0
:101E9000C512181664F080E090E0A8ECB3EC8093D3
:101EA000010290930202A0930302B0930402609196
:101EB000310270913202072E000C880B990B0E94A0
:101EC00074134B015C018091110290911202A09158
:101ED0001302B09114028D839E83AF83B8879C0157
:101EE000AD01C501B4010E9429122B013C012091D2
:101EF0002102309122024091230250912402298331
:101F00003A834B835C83C0900102D0900202E09040
:101F10000302F09004020E942912A70196010E9478
:101F200029120E9443136D877E878F87988B609359
:101F3000F1017093F2018093F3019093F4012981F0
:101F40003A814B815C81C301B2010E942A12A70130
:101F500096010E942A120E94431369877A878B8711
:101F60009C876093F5017093F6018093F70190933D
:101F7000F8012D813E814F815885C501B4010E9431
:101F80002A124B015C019B01AC0169817A818B8132
:101F90009C810E942A12A70196010E9429120E9488
:101FA00043132B013C016093F9017093FA01809374
:101FB000FB019093FC0129813A814B815C81C50131
:101FC000B4010E942912A70196010E942A120E94C0
:101FD00043136093FD017093FE018093FF01909382
:101FE00000022D853E854F855889213434404105B6
:101FF000510528F420E434E040E050E00DC02D8588
:102000003E854F855889203D37404105510560F098
:1020100020ED37E040E050E02093F1013093F201F1
:102020004093F3015093F40129853A854B855C85F3
:10203000213434404105510528F420E434E040E0E7
:1020400050E00DC029853A854B855C85203D3740A1
:102050004105510560F020ED37E040E050E020936D
:10206000F5013093F6014093F7015093F80131E404
:10207000431634E053066104710428F420E434E08C
:1020800040E050E00BC030ED431637E053066104EA
:10209000710460F020ED37E040E050E02093F9015A
:1020A0003093FA014093FB015093FC01613434E01A
:1020B00073078105910568F480E494E0A0E0B0E046
:1020C0008093FD019093FE01A093FF01B093000265
:1020D00011C0603D77408105910560F020ED37E04B
:1020E00040E050E02093FD013093FE014093FF015A
:1020F000509300020E94AA076093E9017093EA01DD
:102100008093EB019093EC018BB1806F8BB9809140
:10211000E9019091EA01A091EB01B091EC014091AD
:10212000F1015091F2016091F3017091F401480FB7
:10213000591F6A1F7B1F4093D9015093DA016093A6
:10214000DB017093DC014091F5015091F601609143
:10215000F7017091F801480F591F6A1F7B1F4093C8
:10216000DD015093DE016093DF017093E001409147
:10217000F9015091FA016091FB017091FC01480F47
:10218000591F6A1F7B1F4093E1015093E201609346
:10219000E3017093E4014091FD015091FE016091D3
:1021A000FF0170910002840F951FA61FB71F809337
:1021B000E5019093E601A093E701B093E8018BB1AC
:1021C000803108F45CC00E94AA076093E901709313
:1021D000EA018093EB019093EC010091D9011091F9
:1021E000DA012091DB013091DC0160177107820771
:1021F000930708F05C984091DD015091DE016091F9
:10220000DF017091E0018091E9019091EA01A091D4
:10221000EB01B091EC0184179507A607B70708F00A
:102220005D984091E1015091E2016091E30170916C
:10223000E4018091E9019091EA01A091EB01B09154
:10224000EC0184179507A607B70708F05E98409140
:10225000E5015091E6016091E7017091E8018091FC
:10226000E9019091EA01A091EB01B091EC01841792
:102270009507A607B70708F4A2CF5F98A0CF0E94E2
:10228000AA0760939F027093A0028093A10290938B
:10229000A20280919F029091A002A091A102B09110
:1022A000A20240919B0250919C0260919D0270910C
:1022B0009E02841B950BA60BB70B813A9F40A1058C
:1022C000B105E8F20E94AC01ABC8EAEEF2E013827D
:1022D000128288EE93E0A0E0B0E084839583A68329
:1022E000B78324E031E03183208325EC30E035876B
:1022F000248724EC30E03787268720EC30E0318BD0
:10230000208B21EC30E0338B228B22EC30E0358BBC
:10231000248B26EC30E0378B268B118E128E138E99
:10232000148EE7E8F3E01382128284839583A683F8
:10233000B78386E191E09183808380E090E0A0E81C
:10234000BFE380939B0390939C03A0939D03B09362
:102350009E03109297031092980310929903109283
:102360009A038093930390939403A0939503B0935F
:102370009603089597FB072E16F4009407D077FD77
:1023800009D00E940F1207FC05D03EF4909581956C
:102390009F4F0895709561957F4F0895A1E21A2E81
:1023A000AA1BBB1BFD010DC0AA1FBB1FEE1FFF1FF9
:1023B000A217B307E407F50720F0A21BB30BE40B49
:1023C000F50B661F771F881F991F1A9469F7609590
:1023D0007095809590959B01AC01BD01CF0108954A
:1023E000052E97FB1EF400940E94071257FD07D09C
:1023F0000E94CE1107FC03D04EF40C9407125095A6
:102400004095309521953F4F4F4F5F4F08959095E0
:102410008095709561957F4F8F4F9F4F0895AA1BB0
:10242000BB1B51E107C0AA1FBB1FA617B70710F0BF
:10243000A61BB70B881F991F5A95A9F780959095F1
:10244000BC01CD010895EE0FFF1F0590F491E02D22
:1024500009945058BB27AA270E9441120C941114CA
:102460000E94031438F00E940A1420F039F49F3FB0
:1024700019F426F40C94D9130EF4E095E7FB0C94B0
:10248000D313E92F0E94221458F3BA176207730777
:102490008407950720F079F4A6F50C9444140EF403
:1024A000E0950B2EBA2FA02D0B01B90190010C0164
:1024B000CA01A0011124FF27591B99F0593F50F47C
:1024C000503E68F11A16F040A22F232F342F4427D4
:1024D000585FF3CF469537952795A795F0405395CC
:1024E000C9F77EF41F16BA0B620B730B840BBAF09C
:1024F0009150A1F0FF0FBB1F661F771F881FC2F707
:102500000EC0BA0F621F731F841F48F4879577951A
:102510006795B795F7959E3F08F0B0CF9395880FD4
:1025200008F09927EE0F979587950895DF93DD279B
:10253000B92FBF7740E85FE31616170648075B0719
:1025400018F4D92F0E9450149F938F937F936F9309
:102550000E941315E8E6F0E00E94DC130E941114BB
:102560002F913F914F915F910E946B14DD2351F0A9
:102570009058A2EA2AED3FE049EC5FE3D0785D276E
:102580000E944112DF910C9411140E94AF1308F4C1
:1025900081E008950E94DE120C9411140E940A1426
:1025A00058F00E94031440F029F45F3F29F00C9486
:1025B000D31351110C9445140C94D9130E94221476
:1025C00068F39923B1F3552391F3951B550BBB2762
:1025D000AA2762177307840738F09F5F5F4F220FA7
:1025E000331F441FAA1FA9F335D00E2E3AF0E0E89E
:1025F00032D091505040E695001CCAF72BD0FE2FE8
:1026000029D0660F771F881FBB1F2617370748077B
:10261000AB07B0E809F0BB0B802DBF01FF27935833
:102620005F4F3AF09E3F510578F00C94D3130C9411
:1026300045145F3FE4F3983ED4F38695779567950C
:10264000B795F7959F5FC9F7880F911D9695879568
:1026500097F90895E1E0660F771F881FBB1F621787
:1026600073078407BA0720F0621B730B840BBA0B45
:10267000EE1F88F7E09508950E9443136894B11106
:102680000C94451408950E942A1488F09F5798F0DE
:10269000B92F9927B751B0F0E1F0660F771F881F67
:1026A000991F1AF0BA95C9F714C0B13091F00E9481
:1026B0004414B1E008950C944414672F782F8827B0
:1026C000B85F39F0B93FCCF3869577956795B395A8
:1026D000D9F73EF490958095709561957F4F8F4F17
:1026E0009F4F0895E89409C097FB3EF4909580951C
:1026F000709561957F4F8F4F9F4F9923A9F0F92FC8
:1027000096E9BB279395F695879577956795B79545
:10271000F111F8CFFAF4BB0F11F460FF1BC06F5F2B
:102720007F4F8F4F9F4F16C0882311F096E911C03D
:10273000772321F09EE8872F762F05C0662371F05E
:1027400096E8862F70E060E02AF09A95660F771F72
:10275000881FDAF7880F9695879597F90895990F4E
:102760000008550FAA0BE0E8FEEF16161706E8075B
:10277000F907C0F012161306E407F50798F0621B7C
:10278000730B840B950B39F40A2661F0232B242B51
:10279000252B21F408950A2609F4A140A6958FEF70
:1027A000811D811D089597F99F6780E870E060E0C2
:1027B00008959FEF80EC0895DF93CF931F930F93BD
:1027C000FF92EF92DF927B018C01689406C0DA2EB3
:1027D000EF010E946B14FE01E894A59125913591BB
:1027E00045915591A6F3EF010E944112FE01970118
:1027F000A801DA9469F7DF90EF90FF900F911F9195
:10280000CF91DF91089500240A9416161706180632
:102810000906089500240A941216130614060506E4
:102820000895092E0394000C11F4882352F0BB0F75
:1028300040F4BF2B11F460FF04C06F5F7F4F8F4FD8
:102840009F4F089557FD9058440F551F59F05F3F13
:1028500071F04795880F97FB991F61F09F3F79F0C2
:1028600087950895121613061406551FF2CF469544
:10287000F1DF08C0161617061806991FF1CF8695C6
:102880007105610508940895E894BB2766277727AA
:10289000CB0197F908950E94AF1308F48FEF0895C4
:1028A0009B01AC0160E070E080E89FE30C94CA12E9
:1028B0000E946B140C9411140E94031438F00E94AF
:1028C0000A1420F0952311F00C94D3130C94D9130F
:1028D00011240C9445140E94221470F3959FC1F3A7
:1028E000950F50E0551F629FF001729FBB27F00DBE
:1028F000B11D639FAA27F00DB11DAA1F649F662713
:10290000B00DA11D661F829F2227B00DA11D621F61
:10291000739FB00DA11D621F839FA00D611D221F1B
:10292000749F3327A00D611D231F849F600D211DFF
:10293000822F762F6A2F11249F5750409AF0F1F082
:1029400088234AF0EE0FFF1FBB1F661F771F881FEB
:1029500091505040A9F79E3F510580F00C94D3133D
:102960000C9445145F3FE4F3983ED4F38695779535
:102970006795B795F795E7959F5FC1F7FE2B880F91
:10298000911D9695879597F908959F930E94331509
:102990000F9007FCEE5F0C945C1519F416F40C9480
:1029A000D9130C941C150E942A14B8F39923C9F367
:1029B000B6F39F57550B87FF0E942A150024A0E607
:1029C00040EA900180585695979528F4805C660FF0
:1029D000771F881F20F026173707480730F4621B3F
:1029E000730B840B202931294A2BA6951794079441
:1029F000202531254A2758F7660F771F881F20F0BA
:102A000026173707480730F4620B730B840B200D31
:102A1000311D411DA09581F7B901842F9158880F70
:102A20009695879508959B01AC010C9458140E94CB
:102A3000AF13880B990B08959F3F31F0915020F40C
:102A4000879577956795B795880F911D969587958A
:102A500097F9089591505040660F771F881FD2F75D
:102A600008950C94D9130E942A14D8F3E894E0E056
:102A7000BB279F57F0F02AED3FE049EC06C0EE0F70
:102A8000BB0F661F771F881F28F0B23A62077307D3
:102A9000840728F0B25A620B730B840BE3959A9566
:102AA00072F7803830F49A95BB0F661F771F881F26
:102AB000D2F790480C941E15EF93E0FF07C0A2EAEE
:102AC0002AED3FE049EC5FEB0E9441120E94111495
:102AD0000F90039401FC9058E5E9F0E00C94701518
:102AE0009F938F937F936F93FF93EF939B01AC0121
:102AF0000E945814EF91FF910E94DC132F913F9197
:102B00004F915F910C94581481E090E0F8940C94EC
:062B10008915F894FFCFC7
:102B1600000000003D01AA00D4008A010501E3007F
:102B2600F70000000000410214027102E8010C02E5
:102B3600F801E901000000000000803F5049445FB1
:102B4600524F4C4C3A200020205049445F50495483
:102B560043483A20000D0A006E616E00696E6600F9
:042B66006F76660020
:00000001FF
