:100000000C947E000C94A6000C94A6000C94A904F9
:100010000C94A6000C94A6000C94A6000C94A600C8
:100020000C94A6000C94A6000C94A6000C94A600B8
:100030000C94A6000C94A6000C94A6000C94A600A8
:100040000C9431030C94A6000C94A6000C94A6000A
:100050000C94A6000C94A6000C94A6000C94A60088
:100060000C947B030C94A600084AD73B3BCE016E50
:1000700084BCBFFDC12F3D6C74319ABD56833DDAFF
:100080003D00C77F11BED9E4BB4C3E916BAAAABE0E
:10009000000000803F05A84CCDB2D44EB93836A937
:1000A000020C50B9918688083CA6AAAA2ABE000074
:1000B00000803F0000000000250028002B00040401
:1000C0000404040404040202020202020303030300
:1000D00003030102040810204080010204081020DC
:1000E00001020408102000000008000201000003C3
:1000F00004070000000000000000E40E11241FBEF1
:10010000CFEFD8E0DEBFCDBF11E0A0E0B1E0E0EB83
:10011000F4E202C005900D92A431B107D9F722E0B4
:10012000A4E1B1E001C01D92A53BB207E1F710E0E8
:10013000CEE7D0E004C02197FE010E94F50ECD3736
:10014000D107C9F70E9499050C9456120C9400002F
:100150003091A802313208F04BC0809184028111A5
:10016000FCCF9091A70222E02093840221E020930B
:1001700083022FEF2093820210928102309380023B
:10018000E7E8F2E0A0E6B2E020E0321721F041918A
:100190004D932F5FFACF10925F0220915F02990F6B
:1001A000922B90935F0290915E02913061F41092D5
:1001B0005E0290915F029093BB009091BC0093FD12
:1001C000F8CF95EC01C095EE9093BC00909184021D
:1001D0009230E1F3909182029F3F79F08091820208
:1001E000803241F080918202803331F084E005C09A
:1001F00081E003C082E001C083E010928602109289
:10020000A80210928502089590E0FC01EA51FF4F88
:100210002491FC01EE52FF4F3491FC01E254FF4F58
:10022000E491EE23B1F1222339F1233091F038F437
:100230002130A9F0223001F584B58F7D12C027301E
:1002400091F02830A1F02430B9F4809180008F7DA6
:1002500003C0809180008F77809380000DC084B5AB
:100260008F7784BD09C08091B0008F7703C08091E3
:10027000B0008F7D8093B000F0E0EE0FFF1FEC54D4
:10028000FF4FA591B4918FB7F894EC91E32BEC93C9
:100290008FBF08953FB7F89480915A0290915B0206
:1002A000A0915C02B0915D0226B5A89B05C02F3FCE
:1002B00019F00196A11DB11D3FBFBA2FA92F982F8C
:1002C0008827820F911DA11DB11DBC01CD0142E007
:1002D000660F771F881F991F4A95D1F708950895D3
:1002E0000895CF92DF92EF92FF920F931F93CF93D7
:1002F000DF936C017A018B01C0E0D0E0CE15DF0501
:1003000081F0D8016D918D01D601ED91FC910190A4
:10031000F081E02DC6010995892B11F02196EECFD1
:100320007E01C701DF91CF911F910F91FF90EF9058
:10033000DF90CF90089585ED8093BC008091BC0044
:1003400084FDFCCF10928402089540917201262F03
:1003500030E0240F311D21323105DCF4209184027C
:100360002430C9F4FC0180E090E0861758F4309105
:1003700072012191DC01AE5ABE4FA30FB11D2C9327
:100380000196F3CF80917201680F6093720180E053
:10039000089581E0089582E008950895E0919A011A
:1003A00080919901E81730F4F0E0EE5CFE4F808117
:1003B00090E008958FEF9FEF089590919A018091BA
:1003C0009901981750F4E92FF0E0EE5CFE4F208180
:1003D00030E09F5F90939A0102C02FEF3FEFC90179
:1003E00008958091990190E020919A01821B9109D2
:1003F0000895CF92DF92EF92FF920F931F93CF93C6
:10040000DF937C01CB018A0120918502222389F0B0
:10041000EB016B01C40ED51ECC15DD0569F06991A9
:10042000D701ED91FC910190F081E02DC701099574
:10043000F3CF642F0E94A501C801DF91CF911F91D6
:100440000F91FF90EF90DF90CF900895CF93DF93BF
:100450001F92CDB7DEB76983209185022223D1F0A8
:100460002091A802203240F021E030E0FC013383EB
:10047000228380E090E015C080918602E82FF0E0B2
:10048000E957FD4F998190838F5F80938602809317
:10049000A80205C061E0CE0101960E94A50181E09D
:1004A00090E00F90DF91CF910895682F89EA92E054
:1004B0000C942602089580E090E008950E94511265
:1004C000CF9381E08093850288E68093A702109203
:1004D00086021092A8028BE390E00E9455020E94CF
:1004E000A800809184028111FCCF81E08093840276
:1004F000809383029FEF90938202109281029DE08D
:100500009093800280935F0280915F02806D809360
:100510005F0280915E02813061F410925E028091F0
:100520005F028093BB008091BC0083FDF8CF85EC17
:1005300001C085EE8093BC00809184028130E1F39C
:10054000809181028E3018F49091810201C09EE06A
:10055000E0E6F2E0A2E3B1E080E0891721F021912A
:100560002D938F5FFACF10929A018093990190E0BA
:100570000F970CF074C089EA92E00E94DD01C82F49
:1005800089EA92E00E94DD0120E030E03C2F822BDE
:10059000932B90934E0280934D0289EA92E00E9441
:1005A000DD01C82F89EA92E00E94DD0120E030E001
:1005B0003C2F822B932B9093500280934F0289EA19
:1005C00092E00E94DD01C82F89EA92E00E94DD01DD
:1005D00020E030E03C2F822B932B90934C028093B1
:1005E0004B0289EA92E00E94DD0189EA92E00E94D2
:1005F000DD0189EA92E00E94DD01C82F89EA92E0DC
:100600000E94DD0120E030E03C2F822B932B909361
:1006100042028093410289EA92E00E94DD01C82FE4
:1006200089EA92E00E94DD0120E030E03C2F822B3D
:10063000932B90933C0280933B0289EA92E00E94C4
:10064000DD01C82F89EA92E00E94DD0120E030E060
:100650003C2F822B932B9093360280933502CF91BF
:1006600008951F920F920FB60F9211242F933F936C
:100670008F939F93AF93BF938091560290915702AF
:10068000A0915802B09159023091550223E0230FF6
:100690002D3720F40196A11DB11D05C026E8230FBA
:1006A0000296A11DB11D209355028093560290938E
:1006B0005702A0935802B093590280915A02909128
:1006C0005B02A0915C02B0915D020196A11DB11D7B
:1006D00080935A0290935B02A0935C02B0935D02F8
:1006E000BF91AF919F918F913F912F910F900FBE2E
:1006F0000F901F9018951F920F920FB60F92112412
:100700002F933F934F935F936F937F938F939F9319
:10071000AF93BF93EF93FF938091B900887F8036AA
:1007200009F49CC068F5883209F45BC090F480310C
:1007300009F454C038F4882309F4F6C0883009F469
:100740004DC0F6C0883109F44CC0803209F45DC058
:10075000EFC0803409F468C048F4803309F455C010
:10076000883309F0E5C080938202D8C0803509F44F
:100770004FC0883509F45DC0883409F0D9C0D6C0AF
:10078000883909F4C7C0A8F4883709F467C038F479
:10079000883609F463C0803709F460C0C9C088385E
:1007A00009F4B8C0803909F45FC0803809F0C0C0CE
:1007B0005BC0803B09F486C038F4803A09F466C017
:1007C000883A09F47FC0B4C0803C09F4A7C0883CD3
:1007D00009F4A4C0883B09F48AC0AAC080915F02D2
:1007E00010C09091810280918002981770F5E0917D
:1007F000810281E08E0F80938102F0E0E05AFD4F8C
:1008000080818093BB0085EC86C0809382028EC07D
:10081000E091810281E08E0F809381028091BB0084
:10082000F0E0E05AFD4F8083909181028091800238
:100830006EC0E091810281E08E0F809381028091F1
:10084000BB00F0E0E05AFD4F80838091830281116C
:100850006DC081E080935E0284EA61C083E0809392
:10086000840210929401CFCF80919401803208F0DD
:1008700051C0E091940181E08E0F809394018091AA
:10088000BB00F0E0EC58FE4F8083BDCF85EC809339
:10089000BC001092840280919401803230F4E09187
:1008A0009401F0E0EC58FE4F10826091940170E0EA
:1008B000E0919501F091960184E791E009951092FD
:1008C000940136C084E080938402109273011092E8
:1008D0007201E0919701F091980109958091720160
:1008E000811105C081E08093720110925201E09164
:1008F000730181E08E0F80937301F0E0EE5AFE4F9A
:1009000080818093BB009091730180917201981750
:1009100008F479CF85E88093BC000AC085EC809309
:10092000BC001092840204C0109282020E949B01BB
:10093000FF91EF91BF91AF919F918F917F916F91B7
:100940005F914F913F912F910F900FBE0F901F908D
:1009500018951F920F920FB60F9211242F933F9369
:100960004F935F936F937F938F939F93AF93BF93B7
:10097000EF93FF930E944A012091300130913101A1
:10098000189B11C0232B09F521E030E03093310191
:100990002093300160932C0170932D0180932E01E0
:1009A00090932F0112C02130310579F4109231015A
:1009B0001092300120912C0130912D01AB01421B8E
:1009C000530B509314024093130220912A0130914B
:1009D0002B01199B11C0232B09F521E030E0309346
:1009E0002B0120932A0160932601709327018093A5
:1009F00028019093290112C02130310579F4109219
:100A00002B0110922A012091260130912701AB0180
:100A1000421B530B50931202409311022091240168
:100A2000309125011A9B11C0232B09F521E030E0FC
:100A300030932501209324016093200170932101BC
:100A4000809322019093230112C02130310579F463
:100A50001092250110922401209120013091210152
:100A6000AB01421B530B5093C6014093C50120912B
:100A70001E0130911F011B9B11C0232B09F521E0A2
:100A800030E030931F0120931E0160931A01709390
:100A90001B0180931C0190931D0112C02130310570
:100AA00079F410921F0110921E0120911A013091C9
:100AB0001B01AB01421B530B5093100240930F02DA
:100AC00020911801309119011C9B11C0232B01F5B5
:100AD00021E030E030931901209318016093140154
:100AE00070931501809316019093170111C0213066
:100AF000310571F41092190110921801209114011E
:100B000030911501621B730B7093B0016093AF01BC
:100B1000FF91EF91BF91AF919F918F917F916F91D5
:100B20005F914F913F912F910F900FBE0F901F90AB
:100B30001895CF93DF93CDB7DEB76C970FB6F894C7
:100B4000DEBF0FBECDBF789484B5826084BD84B50E
:100B5000816084BD85B5826085BD85B5816085BDB8
:100B600080916E00816080936E0010928100809170
:100B700081008260809381008091810081608093F8
:100B80008100809180008160809380008091B1001D
:100B900084608093B1008091B00081608093B00048
:100BA00080917A00846080937A0080917A008260DC
:100BB00080937A0080917A00816080937A0080919E
:100BC0007A00806880937A001092C10010929A0196
:100BD00010929901109286021092A802109284023B
:100BE00021E02093830210925E0282E10E940401C0
:100BF00083E10E9404018091B9008E7F8093B90047
:100C00008091B9008D7F8093B90088E48093B8000B
:100C100085E48093BC008FE691E0909398018093E7
:100C2000970180E791E090939601809395018CE085
:100C30008093B80031E0309368008FE180936B00BF
:100C40008AB1806F8AB982EE94E06BE97FE04BED68
:100C50005EE22BB1206F2BB9FB013197F1F72BB17D
:100C60002F702BB9FA013197F1F7019791F741E015
:100C70004093850288E68093A70210928602109224
:100C8000A8028BE690E00E94550280E090E00E946E
:100C900055020E94A80051E05093850210928602EE
:100CA0001092A8028BE190E00E94550288E090E04B
:100CB0000E9455020E94A80081E080938502109254
:100CC00086021092A8028CE190E00E94550280E119
:100CD00090E00E9455020E94A80080916800816007
:100CE0008093680080916B00816080936B0080919D
:100CF0006B00826080936B0080916B0084608093B6
:100D00006B0080916B00886080936B0080916B001A
:100D1000806180936B00A0EDB7E0BA83A9830BE7F5
:100D20001EE30E9460026091410270914202072E10
:100D3000000C880B990B0E94461020913D023091C7
:100D40003E0240913F02509140020E94FC0E2B0156
:100D50003C0160933D0270933E0280933F0290936A
:100D6000400260913B0270913C02072E000C880B00
:100D7000990B0E9446102091370230913802409121
:100D8000390250913A020E94FC0E4B015C016093C3
:100D90003702709338028093390290933A0260913F
:100DA000350270913602072E000C880B990B0E94B9
:100DB000461020913102309132024091330250911D
:100DC00034020E94FC0E6B017C016093310270932F
:100DD00032028093330290933402C8010197F1F7F5
:100DE00029813A81215031093A832983232B09F043
:100DF00098CF20E030E04AEF54E4C301B2010E94F2
:100E00009C0F60933D0270933E0280933F0290934B
:100E1000400220E030E04AEF54E4C501B4010E94F2
:100E20009C0F60933702709338028093390290933D
:100E30003A0220E030E04AEF54E4C701B6010E94D4
:100E40009C0F60933102709332028093330290932F
:100E500034020AE919E929E530E40093030210930A
:100E6000040220930502309306028AE097EDA3E284
:100E7000BCE380930B0290930C02A0930D02B093FD
:100E80000E0240E050E060E971E44093FB015093B2
:100E9000FC016093FD017093FE010093EB01109340
:100EA000EC012093ED013093EE018093F3019093D8
:100EB000F401A093F501B093F6014093E301509340
:100EC000E4016093E5017093E60140E050E060E4E6
:100ED00070E44093D3015093D4016093D501709393
:100EE000D6018093DB019093DC01A093DD01B093E8
:100EF000DE011092CB011092CC011092CD01109224
:100F0000CE010E944A016093510270935202809375
:100F10005302909354020E94600280910001882342
:100F200009F46EC060914F0270915002072E000CC0
:100F3000880B990B0E9446104B015C0160914D0299
:100F400070914E02072E000C880B990B0E944610E0
:100F50006B017C0160914B0270914C02072E000CDA
:100F6000880B990B0E9446109B01AC010E942A112C
:100F70002B013C01A7019601C701B6010E942A116D
:100F8000A30192010E94FC0E0E94A5119B01AC01DD
:100F9000C501B4010E949C0F0E94680F2BE13FE243
:100FA00045E652E40E942A1160934702709348027A
:100FB0008093490290934A02A5019401C501B401AE
:100FC0000E942A11A30192010E94FC0E0E94A51109
:100FD0009B01AC01C701B6010E949C0F0E94680FE3
:100FE0002BE13FE245E652EC0E942A116093430256
:100FF0007093440280934502909346021092000140
:101000006091410270914202072E000C880B990BEF
:101010000E94461020913D0230913E0240913F02D5
:10102000509140020E94FB0E0E940E104B015C0189
:10103000709342026093410260913B0270913C02C6
:10104000072E000C880B990B0E9446102091370246
:10105000309138024091390250913A020E94FB0EC1
:101060000E940E106B017C0170933C0260933B0266
:101070006091350270913602072E000C880B990B97
:101080000E94461020913102309132024091330289
:10109000509134020E94FB0E0E940E1069837A83E5
:1010A0008B839C8349815A81509336024093350249
:1010B00023E333E343E35FE360912D0270912E025B
:1010C00080912F02909130020E942A112B013C0145
:1010D000B401990C880B990B0E94461020E030E077
:1010E00043E852E40E949C0F2AE939E949E95EE3AA
:1010F0000E942A119B01AC01C301B2010E94FC0EA7
:101100006D837E838F83988760932D0270932E0268
:1011100080932F029093300223E333E343E35FE3B2
:101120006091290270912A0280912B0290912C02E9
:101130000E942A114B015C01B601DD0C880B990B52
:101140000E94461020E030E043E852E40E949C0FE9
:101150002AE939E949E95EE30E942A119B01AC01C1
:10116000C501B4010E94FC0E69877A878B879C8732
:101170006093290270932A0280932B0290932C0291
:1011800023E333E343E35FE360912502709126029A
:1011900080912702909128020E942A116B017C0104
:1011A000A981BA81BD01BB0F880B990B0E94461023
:1011B00020E030E043E852E40E949C0F2AE939E93C
:1011C00049E95EE30E942A119B01AC01C701B60107
:1011D0000E94FC0E69837A838B839C836093250233
:1011E0007093260280932702909328022FE632E123
:1011F00043E85BE36D817E818F8198850E942A118F
:1012000020914702309148024091490250914A0290
:101210000E94FC0E6B017C012FE632E143E85BE3A8
:1012200069857A858B859C850E942A1120914302CD
:101230003091440240914502509146020E94FC0EBA
:101240002B013C012FE632E143E85BE369817A81BF
:101250008B819C810E942A119B01AC01609121022B
:101260007091220280912302909124020E94FC0E30
:1012700060932102709322028093230290932402B0
:1012800022E938E642E958E369817A818B819C81C1
:101290000E942A110E9497116D877E878F87988BF5
:1012A0009B01AC01C301B2010E942A11A701960162
:1012B0000E94FC0E698B7A8B8B8B9C8B60914F020A
:1012C00070915002072E000C880B990B0E9446105B
:1012D0006B017C0160914D0270914E02072E000C53
:1012E000880B990B0E9446104B015C0160914B02E8
:1012F00070914C02072E000C880B990B0E9446102F
:101300009B01AC010E942A116D8B7E8B8F8B988F75
:10131000A5019401C501B4010E942A112D893E89BD
:101320004F89588D0E94FC0E0E94A5119B01AC01B3
:10133000C701B6010E949C0F0E94680F698F7A8FC7
:101340008B8F9C8FA7019601C701B6010E942A11BD
:101350002D893E894F89588D0E94FC0E0E94A5114F
:101360009B01AC01C501B4010E949C0F0E94680F53
:101370006B017C012BE13FE245E652E4698D7A8DF9
:101380008B8D9C8D0E942A1127E137EB41ED59E3AB
:101390000E942A114B015C0129EC35EE4FE75FE317
:1013A00069897A898B899C890E942A119B01AC01E9
:1013B000C501B4010E94FC0E4B015C016093470221
:1013C000709348028093490290934A0269897A890E
:1013D0008B899C8990582D853E854F8558890E9420
:1013E0002A11A30192010E94FC0E29EC35EE4FE771
:1013F0005FE30E942A112B013C012BE13FE245E60D
:1014000052ECC701B6010E942A1127E137EB41EDEA
:1014100059E30E942A119B01AC01C301B2010E9451
:10142000FC0E2B013C0160934302709344028093B5
:1014300045029093460210921D0210921E021092D5
:101440001F02109220021092190210921A0210929A
:101450001B0210921C02109215021092160210929A
:1014600017021092180260911302709114026530F5
:10147000B6E07B071CF0645076400AC0643BE5E0B0
:101480007E07C4F4645B754077FF02C06D5F7F4FD9
:101490007595679575956795072E000C880B990BC8
:1014A0000E94461060931D0270931E0280931F02DB
:1014B000909320026091110270911202653026E033
:1014C00072071CF0645076400AC0643B35E0730735
:1014D000C4F4645B754077FF02C06D5F7F4F759504
:1014E000679575956795072E000C880B990B0E94E0
:1014F00046106093190270931A0280931B02909316
:101500001C0260910F0270911002653046E0740772
:101510001CF0645076400AC0643B55E07507C4F483
:10152000645B754077FF02C06D5F7F4F759567956F
:1015300075956795072E000C880B990B0E94461035
:10154000609315027093160280931702909318020D
:1015500020E030E040EC50E4C501B4010E942A11C3
:101560009B01AC0160911D0270911E0280911F02CF
:10157000909120020E94FB0E6B017C0160931D0282
:1015800070931E0280931F029093200220E030E0AF
:1015900040EC50E4C301B2010E942A119B01AC014E
:1015A0006091190270911A0280911B0290911C02A5
:1015B0000E94FB0E2B013C016093190270931A02EA
:1015C00080931B0290931C02A70196016D817E817E
:1015D0008F8198850E94FB0E6B017C0120910B028C
:1015E00030910C0240910D0250910E020E942A117E
:1015F00020910702309108024091090250910A029D
:101600000E94FC0E4B015C0160930702709308027C
:101610008093090290930A022091FF013091000209
:101620004091010250910202C701B6010E94FB0ED7
:101630002091FB013091FC014091FD015091FE0190
:101640000E942A116D837E838F83988720910302E5
:10165000309104024091050250910602C701B60183
:101660000E942A11A50194010E94FC0E9B01AC016D
:101670006D817E818F8198850E94FC0E6D837E83B3
:101680008F8398876093F7017093F8018093F90135
:101690009093FA01C092FF01D0920002E092010201
:1016A000F0920202A301920169857A858B859C855F
:1016B0000E94FB0E6B017C012091F3013091F4013B
:1016C0004091F5015091F6010E942A112091EF01FD
:1016D0003091F0014091F1015091F2010E94FC0E15
:1016E0004B015C016093EF017093F0018093F10175
:1016F0009093F2012091E7013091E8014091E901D6
:101700005091EA01C701B6010E94FB0E2091E3014E
:101710003091E4014091E5015091E6010E942A11C7
:101720002B013C012091EB013091EC014091ED0146
:101730005091EE01C701B6010E942A11A501940142
:101740000E94FC0E9B01AC01C301B2010E94FC0E81
:101750004B015C016093DF017093E0018093E10134
:101760009093E201C092E701D092E801E092E90192
:10177000F092EA0120911502309116024091170271
:101780005091180269817A818B819C810E94FB0EA5
:101790006B017C012091DB013091DC014091DD0186
:1017A0005091DE010E942A112091D7013091D80179
:1017B0004091D9015091DA010E94FC0E2B013C01AD
:1017C0006093D7017093D8018093D9019093DA0187
:1017D0002091CF013091D0014091D1015091D2019F
:1017E000C701B6010E94FB0E2091CB013091CC01C4
:1017F0004091CD015091CE010E942A1169837A83D4
:101800008B839C832091D3013091D4014091D501E9
:101810005091D601C701B6010E942A11A30192017D
:101820000E94FC0E9B01AC0169817A818B819C81B5
:101830000E94FC0E2B013C016093C7017093C8010C
:101840008093C9019093CA01C092CF01D092D00178
:10185000E092D101F092D20120E030E04FEA53E46F
:10186000C501B4010E941D1187FD05C080E090E014
:10187000AFEAB3E40EC020E030E04FEA53ECC5011C
:10188000B4010E94970F181664F080E090E0AFEA70
:10189000B3EC8093DF019093E001A093E101B0935A
:1018A000E20120E030E04FEA53E46D817E818F81D8
:1018B00098850E941D1187FD05C080E090E0AFEA89
:1018C000B3E410C020E030E04FEA53EC6D817E813C
:1018D0008F8198850E94970F181664F080E090E041
:1018E000AFEAB3EC8093F7019093F801A093F9016C
:1018F000B093FA0120E030E04FEA53E4C301B201B3
:101900000E941D1187FD05C080E090E0A8ECB3E4C3
:101910000EC020E030E04FEA53ECC301B2010E9458
:10192000970F181664F080E090E0AFEAB3EC809374
:10193000C7019093C801A093C901B093CA016091F7
:10194000C5017091C601072E000C880B990B0E94EF
:1019500046106B017C018090F7019090F801A090F7
:10196000F901B090FA01A50194010E94FB0E2B0130
:101970003C012091DF013091E0014091E101509163
:10198000E20129833A834B835C838091C701909164
:10199000C801A091C901B091CA018D839E83AF8314
:1019A000B887C301B2010E94FB0E2D813E814F8199
:1019B00058850E94FB0E0E94151069877A878B87D5
:1019C0009C876093C1017093C2018093C30190937F
:1019D000C40129813A814B815C81C301B2010E941B
:1019E000FC0E2D813E814F8158850E94FC0E0E9485
:1019F00015102B013C016093BD017093BE018093D3
:101A0000BF019093C001A5019401C701B6010E94D6
:101A1000FC0E4B015C019B01AC0169817A818B81D9
:101A20009C810E94FC0E2D813E814F8158850E9431
:101A3000FB0E0E9415106B017C016093B90170933D
:101A4000BA018093BB019093BC0129813A814B81FB
:101A50005C81C501B4010E94FB0E2D813E814F8146
:101A600058850E94FC0E0E9415106093B50170937A
:101A7000B6018093B7019093B80129853A854B85CB
:101A80005C85213434404105510528F420E434E0DC
:101A900040E050E00DC029853A854B855C85203DAE
:101AA00037404105510560F020ED37E040E050E05F
:101AB0002093C1013093C2014093C3015093C401EC
:101AC00031E4431634E053066104710428F420E441
:101AD00034E040E050E00BC030ED431637E05306F1
:101AE0006104710460F020ED37E040E050E02093A5
:101AF000BD013093BE014093BF015093C00131E45A
:101B0000C31634E0D306E104F10428F420E434E001
:101B100040E050E00BC030EDC31637E0D306E104DF
:101B2000F10460F020ED37E040E050E02093B9018F
:101B30003093BA014093BB015093BC01613434E04F
:101B400073078105910568F480E494E0A0E0B0E0BB
:101B50008093B5019093B601A093B701B093B801FB
:101B600011C0603D77408105910560F020ED37E0C0
:101B700040E050E02093B5013093B6014093B701A7
:101B80005093B8010E944A016093B1017093B20171
:101B90008093B3019093B4018BB1806F8BB9209186
:101BA000AF013091B0018091B1019091B201A0914B
:101BB000B301B091B4012D3D35400CF4B0C040915B
:101BC000C1015091C2016091C3017091C401480FDD
:101BD000591F6A1F7B1F4093AB015093AC01609368
:101BE000AD017093AE014091BD015091BE01609175
:101BF000BF017091C001480F591F6A1F7B1F40939E
:101C0000A7015093A8016093A9017093AA01409184
:101C1000B9015091BA016091BB017091BC01480FAC
:101C2000591F6A1F7B1F4093A3015093A401609327
:101C3000A5017093A6014091B5015091B601609144
:101C4000B7017091B801840F951FA61FB71F80932D
:101C50009F019093A001A093A101B093A2018BB129
:101C6000803108F486C00E944A016093B1017093EC
:101C7000B2018093B3019093B4010091AB01109134
:101C8000AC012091AD013091AE0160177107820760
:101C9000930708F05C984091A7015091A8016091CA
:101CA000A9017091AA018091B1019091B201A09116
:101CB000B301B091B40184179507A607B70708F0E0
:101CC0005D984091A3015091A4016091A50170918C
:101CD000A6018091B1019091B201A091B301B091A0
:101CE000B40184179507A607B70708F05E984091DE
:101CF0009F015091A0016091A1017091A20180917A
:101D0000B1019091B201A091B301B091B4018417D7
:101D10009507A607B70708F4A2CF5F98A0CF885110
:101D20009C4FAF4FBF4F80939B0190939C01A0931A
:101D30009D01B0939E018BB18031D8F00E944A0181
:101D40006093B1017093B2018093B3019093B40199
:101D500000919B0110919C0120919D0130919E0169
:101D6000601771078207930730F38BB18F708BB9BF
:101D7000E2CF0E944A01609355027093560280930D
:101D80005702909358028091550290915602A0916B
:101D90005702B09158024091510250915202609105
:101DA000530270915402841B950BA60BB70B813A1A
:101DB0009F40A105B105E8F280E090E0892B09F48D
:101DC000A0C80E9400009DC8E9EAF2E013821282D6
:101DD00088EE93E0A0E0B0E084839583A683B78388
:101DE00085E091E0918380830895EE0FFF1F0590B9
:101DF000F491E02D09945058BB27AA270E94130F95
:101E00000C94E3100E94D51038F00E94DC1020F0F2
:101E100039F49F3F19F426F40C94AB100EF4E095BE
:101E2000E7FB0C94A510E92F0E94F41058F3BA17A1
:101E3000620773078407950720F079F4A6F50C94E0
:101E400016110EF4E0950B2EBA2FA02D0B01B9013F
:101E500090010C01CA01A0011124FF27591B99F020
:101E6000593F50F4503E68F11A16F040A22F232F2C
:101E7000342F4427585FF3CF469537952795A7957C
:101E8000F0405395C9F77EF41F16BA0B620B730B23
:101E9000840BBAF09150A1F0FF0FBB1F661F771F94
:101EA000881FC2F70EC0BA0F621F731F841F48F449
:101EB000879577956795B795F7959E3F08F0B0CFD2
:101EC0009395880F08F09927EE0F979587950895B9
:101ED000DF93DD27B92FBF7740E85FE316161706BB
:101EE00048075B0718F4D92F0E9422119F938F9304
:101EF0007F936F930E94E511E8E6F0E00E94AE1038
:101F00000E94E3102F913F914F915F910E943D11EC
:101F1000DD2351F09058A2EA2AED3FE049EC5FE35F
:101F2000D0785D270E94130FDF910C94E3100E947C
:101F3000811008F481E008950E94B00F0C94E31022
:101F40000E94DC1058F00E94D51040F029F45F3F49
:101F500029F00C94A51051110C9417110C94AB108E
:101F60000E94F41068F39923B1F3552391F3951B64
:101F7000550BBB27AA2762177307840738F09F5FAA
:101F80005F4F220F331F441FAA1FA9F335D00E2E17
:101F90003AF0E0E832D091505040E695001CCAF784
:101FA0002BD0FE2F29D0660F771F881FBB1F261747
:101FB00037074807AB07B0E809F0BB0B802DBF011E
:101FC000FF2793585F4F3AF09E3F510578F00C94ED
:101FD000A5100C9417115F3FE4F3983ED4F3869557
:101FE00077956795B795F7959F5FC9F7880F911D0E
:101FF0009695879597F90895E1E0660F771F881FFA
:10200000BB1F621773078407BA0720F0621B730BAC
:10201000840BBA0BEE1F88F7E09508950E94151007
:102020006894B1110C94171108950E94FC1088F067
:102030009F5798F0B92F9927B751B0F0E1F0660F8C
:10204000771F881F991F1AF0BA95C9F714C0B130CD
:1020500091F00E941611B1E008950C941611672FAB
:10206000782F8827B85F39F0B93FCCF386957795FC
:102070006795B395D9F73EF49095809570956195E5
:102080007F4F8F4F9F4F0895E89409C097FB3EF410
:1020900090958095709561957F4F8F4F9F4F9923B5
:1020A000A9F0F92F96E9BB279395F6958795779533
:1020B0006795B795F111F8CFFAF4BB0F11F460FFF3
:1020C0001BC06F5F7F4F8F4F9F4F16C0882311F04B
:1020D00096E911C0772321F09EE8872F762F05C05F
:1020E000662371F096E8862F70E060E02AF09A95FA
:1020F000660F771F881FDAF7880F9695879597F9EF
:102100000895990F0008550FAA0BE0E8FEEF161688
:102110001706E807F907C0F012161306E407F507DB
:1021200098F0621B730B840B950B39F40A2661F04F
:10213000232B242B252B21F408950A2609F4A140F2
:10214000A6958FEF811D811D089597F99F6780E8FF
:1021500070E060E008959FEF80EC0895DF93CF93E7
:102160001F930F93FF92EF92DF927B018C01689493
:1021700006C0DA2EEF010E943D11FE01E894A59100
:102180002591359145915591A6F3EF010E94130FCA
:10219000FE019701A801DA9469F7DF90EF90FF90B4
:1021A0000F911F91CF91DF91089500240A94161684
:1021B000170618060906089500240A941216130635
:1021C000140605060895092E0394000C11F48823C3
:1021D00052F0BB0F40F4BF2B11F460FF04C06F5FDF
:1021E0007F4F8F4F9F4F089557FD9058440F551FB5
:1021F00059F05F3F71F04795880F97FB991F61F089
:102200009F3F79F087950895121613061406551FFF
:10221000F2CF4695F1DF08C0161617061806991F6B
:10222000F1CF86957105610508940895E894BB2760
:1022300066277727CB0197F908950E94811008F44B
:102240008FEF08959B01AC0160E070E080E89FE3B0
:102250000C949C0F0E943D110C94E3100E94D51029
:1022600038F00E94DC1020F0952311F00C94A5109A
:102270000C94AB1011240C9417110E94F41070F3FD
:10228000959FC1F3950F50E0551F629FF001729F1B
:10229000BB27F00DB11D639FAA27F00DB11DAA1F2A
:1022A000649F6627B00DA11D661F829F2227B00D77
:1022B000A11D621F739FB00DA11D621F839FA00D02
:1022C000611D221F749F3327A00D611D231F849F52
:1022D000600D211D822F762F6A2F11249F575040A9
:1022E0009AF0F1F088234AF0EE0FFF1FBB1F661F24
:1022F000771F881F91505040A9F79E3F510580F0ED
:102300000C94A5100C9417115F3FE4F3983ED4F39E
:10231000869577956795B795F795E7959F5FC1F790
:10232000FE2B880F911D9695879597F908959F9399
:102330000E9400120F9007FCEE5F0C94291219F412
:1023400016F40C94AB100C94E9110E94FC10B8F335
:102350009923C9F3B6F39F57550B87FF0E94F711D6
:102360000024A0E640EA900180585695979528F4FD
:10237000805C660F771F881F20F0261737074807F5
:1023800030F4621B730B840B202931294A2BA6954C
:1023900017940794202531254A2758F7660F771F91
:1023A000881F20F026173707480730F4620B730B9D
:1023B000840B200D311D411DA09581F7B901842F9B
:1023C0009158880F9695879508959B01AC010C94C0
:1023D0002A119F3F31F0915020F4879577956795AA
:1023E000B795880F911D9695879597F90895915007
:1023F0005040660F771F881FD2F708950C94AB10DA
:102400000E94FC10D8F3E894E0E0BB279F57F0F05F
:102410002AED3FE049EC06C0EE0FBB0F661F771FA9
:10242000881F28F0B23A62077307840728F0B25A6F
:10243000620B730B840BE3959A9572F7803830F436
:102440009A95BB0F661F771F881FD2F790480C9490
:10245000EB11EF93E0FF07C0A2EA2AED3FE049EC61
:102460005FEB0E94130F0E94E3100F90039401FC96
:102470009058E5E9F0E00C943D129F938F937F9381
:102480006F93FF93EF939B01AC010E942A11EF9190
:10249000FF910E94AE102F913F914F915F910C944C
:1024A0002A1181E090E0F8940C945612F894FFCF32
:1024B00001000000002602F9015B02CD01F101DDFF
:0424C00001CE010048
:00000001FF
