:100000000C947E000C94A6000C94A6000C94CD04D5
:100010000C94A6000C94A6000C94A6000C94A600C8
:100020000C94A6000C94A6000C94A6000C94A600B8
:100030000C94A6000C94A6000C94A6000C94A600A8
:100040000C9460060C94A6000C946D030C9447036A
:100050000C94A6000C94A6000C94A6000C94A60088
:100060000C949F030C94A600084AD73B3BCE016E2C
:1000700084BCBFFDC12F3D6C74319ABD56833DDAFF
:100080003D00C77F11BED9E4BB4C3E916BAAAABE0E
:10009000000000803F05A84CCDB2D44EB93836A937
:1000A000020C50B9918688083CA6AAAA2ABE000074
:1000B00000803F0000000000250028002B00040401
:1000C0000404040404040202020202020303030300
:1000D00003030102040810204080010204081020DC
:1000E00001020408102000000008000201000003C3
:1000F00004070000000000000000551011241FBE7E
:10010000CFEFD8E0DEBFCDBF11E0A0E0B1E0E6E286
:10011000F8E202C005900D92A832B107D9F723E0AA
:10012000A8E2B1E001C01D92AA35B207E1F710E0E4
:10013000CEE7D0E004C02197FE010E94B010CD3779
:10014000D107C9F70E94AA060C9411140C94000060
:1001500008950895CF92DF92EF92FF920F931F932D
:10016000CF93DF936C017A018B01C0E0D0E0CE1514
:10017000DF0581F0D8016D918D01D601ED91FC91E3
:100180000190F081E02DC6010995892B11F021968F
:10019000EECF7E01C701DF91CF911F910F91FF90AC
:1001A000EF90DF90CF900895FC01538D448D252F63
:1001B00030E0842F90E0821B930B541710F0CF9601
:1001C000089501970895FC01918D828D981761F033
:1001D000828DDF01A80FB11D5D968C91928D9F5F7E
:1001E0009F73928F90E008958FEF9FEF0895FC0129
:1001F000918D828D981731F0828DE80FF11D858DDC
:1002000090E008958FEF9FEF0895FC01918D228D6E
:10021000892F90E0805C9F4F821B91098F739927F3
:10022000089588EA92E00E94050121E0892B09F4F3
:1002300020E0822F0895FC01848DDF01A80FB11DFD
:10024000A35ABF4F2C91848D90E001968F7399270C
:10025000848FA689B7892C93A089B1898C918370EA
:1002600080648C93938D848D981306C00288F389E3
:10027000E02D80818F7D80830895EF92FF920F9310
:100280001F93CF93DF93EC0181E0888F9B8D8C8D42
:10029000981305C0E889F989808185FD26C0F62E6E
:1002A0000B8D10E00F5F1F4F0F731127E02E8C8D09
:1002B000E8120CC00FB607FCFACFE889F9898081F3
:1002C00085FFF5CFCE010E941B01F1CF8B8DFE0182
:1002D000E80FF11DE35AFF4FF0829FB7F8940B8FA0
:1002E000EA89FB89808180620AC09FB7F894EE8911
:1002F000FF896083E889F9898081837080648083C5
:100300009FBF81E090E0DF91CF911F910F91FF900F
:10031000EF900895CF93DF93EC01888D8823C9F087
:10032000EA89FB89808185FD05C0A889B9898C91FE
:1003300086FD0FC00FB607FCF5CF808185FFF2CF99
:10034000A889B9898C9185FFEDCFCE010E941B0150
:10035000E7CFDF91CF91089580E090E0892B29F0DD
:100360000E94110181110C940000089585ED809385
:10037000BC008091BC0084FDFCCF109283020895E4
:1003800040918001262F30E0240F311D21323105AC
:10039000DCF4209183022430C9F4FC0180E090E079
:1003A000861758F4309180012191DC01A05ABE4F8C
:1003B000A30FB11D2C930196F3CF80918001680F9C
:1003C0006093800180E0089581E0089582E00895BF
:1003D0000895E091A8018091A701E81730F4F0E0BA
:1003E000E05CFE4F808190E008958FEF9FEF0895CD
:1003F0009091A8018091A701981750F4E92FF0E09F
:10040000E05CFE4F208130E09F5F9093A80102C026
:100410002FEF3FEFC90108958091A70190E020914F
:10042000A801821B91090895CF92DF92EF92FF926B
:100430000F931F93CF93DF937C01CB018A0120910F
:100440008402222389F0EB016B01C40ED51ECC156A
:10045000DD0569F06991D701ED91FC910190F08182
:10046000E02DC7010995F3CF642F0E94C001C80198
:10047000DF91CF911F910F91FF90EF90DF90CF9080
:100480000895CF93DF931F92CDB7DEB76983209194
:1004900084022223D1F02091A702203240F021E0F3
:1004A00030E0FC013383228380E090E015C080912E
:1004B0008502E82FF0E0EA57FD4F998190838F5F26
:1004C000809385028093A70205C061E0CE0101966A
:1004D0000E94C00181E090E00F90DF91CF910895DC
:1004E000089580E090E00895CF9381E080938402A6
:1004F00088E68093A602109285021092A7028BE3F1
:1005000090E00E9494050E949905809183028111D8
:10051000FCCF81E080938302809382029FEF9093CF
:100520008102109280029DE090937F0280935E0290
:1005300080915E02806D80935E0280915D028130C9
:1005400061F410925D0280915E028093BB00809105
:10055000BC0083FDF8CF85EC01C085EE8093BC0024
:10056000809183028130E1F3809180028E3018F413
:100570009091800201C09EE0EFE5F2E0A0E4B1E0DE
:1005800080E0891721F021912D938F5FFACF10928F
:10059000A8018093A70190E00F970CF074C085E448
:1005A00093E00E94F801C82F85E493E00E94F801CF
:1005B00020E030E03C2F822B932B909356028093C7
:1005C000550285E493E00E94F801C82F85E493E08A
:1005D0000E94F80120E030E03C2F822B932B909377
:1005E00058028093570285E493E00E94F801C82FD7
:1005F00085E493E00E94F80120E030E03C2F822B5C
:10060000932B909354028093530285E493E00E94CD
:10061000F80185E493E00E94F80185E493E00E94EC
:10062000F801C82F85E493E00E94F80120E030E053
:100630003C2F822B932B90934A028093490285E4AE
:1006400093E00E94F801C82F85E493E00E94F8012E
:1006500020E030E03C2F822B932B90934402809338
:10066000430285E493E00E94F801C82F85E493E0FB
:100670000E94F80120E030E03C2F822B932B9093D6
:100680003E0280933D02CF9108950E940C141F9268
:100690000F920FB60F9211242F933F934F935F93B6
:1006A0006F937F938F939F93AF93BF93EF93FF933A
:1006B00088EA92E00E941B01FF91EF91BF91AF91F8
:1006C0009F918F917F916F915F914F913F912F916A
:1006D0000F900FBE0F901F9018951F920F920FB69C
:1006E0000F9211242F938F939F93EF93FF93E09199
:1006F000B802F091B9028081E091BE02F091BF0290
:1007000082FD12C090818091C1028F5F8F73209112
:10071000C202821751F0E091C102F0E0E855FD4FAE
:10072000958F8093C10201C08081FF91EF919F91CD
:100730008F912F910F900FBE0F901F9018951F92C1
:100740000F920FB60F9211242F933F934F935F9305
:100750006F937F938F939F93AF93BF93EF93FF9389
:100760008091B900887F803609F49CC068F5883292
:1007700009F45BC090F4803109F454C038F4882344
:1007800009F4F6C0883009F44DC0F6C0883109F488
:100790004CC0803209F45DC0EFC0803409F468C0F9
:1007A00048F4803309F455C0883309F0E5C08093DC
:1007B0008102D8C0803509F44FC0883509F45DC086
:1007C000883409F0D9C0D6C0883909F4C7C0A8F464
:1007D000883709F467C038F4883609F463C0803775
:1007E00009F460C0C9C0883809F4B8C0803909F478
:1007F0005FC0803809F0C0C05BC0803B09F486C090
:1008000038F4803A09F466C0883A09F47FC0B4C06D
:10081000803C09F4A7C0883C09F4A4C0883B09F4D3
:100820008AC0AAC080915E0210C09091800280911F
:100830007F02981770F5E091800281E08E0F80931F
:100840008002F0E0E15AFD4F80818093BB0085EC8F
:1008500086C0809381028EC0E091800281E08E0F7D
:10086000809380028091BB00F0E0E15AFD4F8083CD
:100870009091800280917F026EC0E091800281E0C1
:100880008E0F809380028091BB00F0E0E15AFD4F13
:1008900080838091820281116DC081E080935D022E
:1008A00084EA61C083E0809383021092A201CFCFDB
:1008B0008091A201803208F051C0E091A20181E054
:1008C0008E0F8093A2018091BB00F0E0EE57FE4FA7
:1008D0008083BDCF85EC8093BC0010928302809111
:1008E000A201803230F4E091A201F0E0EE57FE4F19
:1008F00010826091A20170E0E091A301F091A40147
:1009000082E891E009951092A20136C084E08093BC
:1009100083021092810110928001E091A501F09173
:10092000A601099580918001811105C081E0809325
:10093000800110926001E091810181E08E0F80932F
:100940008101F0E0E05AFE4F80818093BB009091DE
:10095000810180918001981708F479CF85E8809310
:10096000BC000AC085EC8093BC001092830204C0D6
:10097000109281020E94B601FF91EF91BF91AF9159
:100980009F918F917F916F915F914F913F912F91A7
:100990000F900FBE0F901F9018951F920F920FB6D9
:1009A0000F9211242F933F934F935F936F937F93F5
:1009B0008F939F93AF93BF93EF93FF930E943B0658
:1009C00020913E0130913F01189B11C0232B09F566
:1009D00021E030E030933F0120933E0160933A01E3
:1009E00070933B0180933C0190933D0112C02130F4
:1009F000310579F410923F0110923E0120913A01A5
:100A000030913B01AB01421B530B50931C024093AE
:100A10001B022091380130913901199B11C0232B01
:100A200009F521E030E030933901209338016093DB
:100A3000340170933501809336019093370112C0D1
:100A40002130310579F4109239011092380120914A
:100A5000340130913501AB01421B530B50931A0204
:100A60004093190220913201309133011A9B11C039
:100A7000232B09F521E030E030933301209332013C
:100A800060932E0170932F01809330019093310178
:100A900012C02130310579F41092330110923201E5
:100AA00020912E0130912F01AB01421B530B50932B
:100AB000CE014093CD0120912C0130912D011B9B43
:100AC00011C0232B01F521E030E030932D0120935C
:100AD0002C01609328017093290180932A0190933F
:100AE0002B0111C02130310571F410922D011092AB
:100AF0002C012091280130912901621B730B709306
:100B0000180260931702FF91EF91BF91AF919F91EF
:100B10008F917F916F915F914F913F912F910F90A6
:100B20000FBE0F901F901895682F85E493E00C94EA
:100B300041023091A702313208F04BC0809183020C
:100B40008111FCCF9091A60222E02093830221E044
:100B5000209382022FEF2093810210928002309323
:100B60007F02E6E8F2E0AFE5B2E020E0321721F0E4
:100B700041914D932F5FFACF10925E0220915E0259
:100B8000990F922B90935E0290915D02913061F4E7
:100B900010925D0290915E029093BB009091BC0018
:100BA00093FDF8CF95EC01C095EE9093BC00909129
:100BB00083029230E1F3909181029F3F79F080911E
:100BC0008102803241F080918102803331F084E0F3
:100BD00005C081E003C082E001C083E0109285027D
:100BE0001092A70210928402089590E0FC01EA514D
:100BF000FF4F2491FC01EE52FF4F3491FC01E2546F
:100C0000FF4FE491EE23B1F1222339F1233091F02B
:100C100038F42130A9F0223001F584B58F7D12C05F
:100C2000273091F02830A1F02430B9F48091800071
:100C30008F7D03C0809180008F77809380000DC0EE
:100C400084B58F7784BD09C08091B0008F7703C0D1
:100C50008091B0008F7D8093B000F0E0EE0FFF1F19
:100C6000EC54FF4FA591B4918FB7F894EC91E32B1E
:100C7000EC938FBF08953FB7F894809156039091FD
:100C80005703A0915803B091590326B5A89B05C0FE
:100C90002F3F19F00196A11DB11D3FBFBA2FA92FFB
:100CA000982F8827820F911DA11DB11DBC01CD0178
:100CB00042E0660F771F881F991F4A95D1F7089564
:100CC0001F920F920FB60F9211242F933F938F9381
:100CD0009F93AF93BF938091520390915303A09140
:100CE0005403B09155033091510323E0230F2D3766
:100CF00020F40196A11DB11D05C026E8230F029620
:100D0000A11DB11D2093510380935203909353036F
:100D1000A0935403B09355038091560390915703C9
:100D2000A0915803B09159030196A11DB11D809364
:100D3000560390935703A0935803B0935903BF9160
:100D4000AF919F918F913F912F910F900FBE0F9078
:100D50001F901895CF93DF93CDB7DEB7ED970FB601
:100D6000F894DEBF0FBECDBF789484B5826084BD99
:100D700084B5816084BD85B5826085BD85B581609F
:100D800085BD80916E00816080936E00109281001D
:100D900080918100826080938100809181008160D8
:100DA0008093810080918000816080938000809199
:100DB000B10084608093B1008091B0008160809325
:100DC000B00080917A00846080937A0080917A00EC
:100DD000826080937A0080917A00816080937A00AB
:100DE00080917A00806880937A001092C100E0912F
:100DF000B802F091B90282E08083E091B402F091F0
:100E0000B5021082E091B602F091B7021082109202
:100E1000C002E091BC02F091BD0286E08083E091C7
:100E2000BA02F091BB02808180618083E091BA02B6
:100E3000F091BB02808188608083E091BA02F091DA
:100E4000BB02808180688083E091BA02F091BB028E
:100E500080818F7D80831092A8011092A70110924B
:100E600085021092A7021092830211E01093820271
:100E700010925D0282E10E94F50583E10E94F50572
:100E80008091B9008E7F8093B9008091B9008D7FE9
:100E90008093B90088E48093B80085E48093BC0017
:100EA00088EA90E09093A6018093A50189EA90E0FA
:100EB0009093A4018093A3018CE08093B8001093D9
:100EC00068008FE180936B008AB1806F8AB982EEEF
:100ED00094E06BE97FE04BED5EE22BB1206F2BB924
:100EE000FB013197F1F72BB12F702BB9FA01319734
:100EF000F1F7019791F701E00093840218E610934F
:100F0000A602109285021092A7028BE690E00E9442
:100F1000940580E090E00E9494050E94990500935A
:100F200084021093A602109285021092A7028BE110
:100F300090E00E94940588E090E00E9494050E9451
:100F40009905009384021093A602109285021092D4
:100F5000A7028CE190E00E94940580E190E00E945D
:100F600094050E94990580916800816080936800D3
:100F700080916B00816080936B0080916B00826038
:100F800080936B0080916B00846080936B008091F4
:100F90006B00886080936B0080916B008061809310
:100FA0006B0000ED17E08BE7282E8EE3382E0E94B1
:100FB00074026091490270914A02072E000C880B5E
:100FC000990B0E94011220914502309146024091F6
:100FD0004702509148020E94B7102B013C016093D8
:100FE00045027093460280934702909348026091B5
:100FF000430270914402072E000C880B990B0E944B
:10100000011220913F0230914002409141025091E3
:1010100042020E94B7104B015C0160933F02709343
:101020004002809341029093420260913D02709190
:101030003E02072E000C880B990B0E940112209192
:10104000390230913A0240913B0250913C020E9499
:10105000B7106B017C016093390270933A02809360
:101060003B0290933C02C1010197F1F70150110935
:1010700009F09DCF20E030E04AEF54E4C301B20113
:101080000E94571160934502709346028093470275
:101090009093480220E030E04AEF54E4C501B401E7
:1010A0000E94571160933F02709340028093410267
:1010B0009093420220E030E04AEF54E4C701B601C9
:1010C0000E9457116093390270933A0280933B0259
:1010D00090933C020AE919E929E530E400930B02F8
:1010E00010930C0220930D0230930E0246EA5BE946
:1010F00064EC7BE340931302509314026093150257
:101100007093160280E090E0A0E9B1E480930302BE
:1011100090930402A0930502B09306020093F3019A
:101120001093F4012093F5013093F6014093FB01F5
:101130005093FC016093FD017093FE018093EB01DD
:101140009093EC01A093ED01B093EE0180E090E06C
:10115000A0E4B0E48093DB019093DC01A093DD0177
:10116000B093DE018AE097EDA3E2BCE38093E30154
:101170009093E401A093E501B093E6011092D301AE
:101180001092D4011092D5011092D6010E943B0614
:101190006093590270935A0280935B0290935C02B1
:1011A0000E94740280910001882309F46EC060914E
:1011B000570270915802072E000C880B990B0E9461
:1011C00001124B015C016091550270915602072E8D
:1011D000000C880B990B0E9401126B017C0160913D
:1011E000530270915402072E000C880B990B0E9439
:1011F00001129B01AC010E94E5122B013C01A701E9
:101200009601C701B6010E94E512A30192010E9456
:10121000B7100E9460139B01AC01C501B4010E948C
:1012200057110E9423112BE13FE245E652E40E9450
:10123000E51260934F027093500280935102909395
:101240005202A5019401C501B4010E94E512A30157
:1012500092010E94B7100E9460139B01AC01C7016C
:10126000B6010E9457110E9423112BE13FE245E68F
:1012700052EC0E94E51260934B0270934C028093F3
:101280004D0290934E0210920001609149027091BC
:101290004A02072E000C880B990B0E940112209124
:1012A00045023091460240914702509148020E9407
:1012B000B6100E94C9114B015C0170934A02609301
:1012C00049026091430270914402072E000C880B82
:1012D000990B0E94011220913F02309140024091EF
:1012E0004102509142020E94B6100E94C9116B0146
:1012F0007C01709344026093430260913D027091BF
:101300003E02072E000C880B990B0E9401122091BF
:10131000390230913A0240913B0250913C020E94C6
:10132000B6100E94C9116AA37BA38CA39DA32AA116
:101330003BA130933E0220933D0223E333E343E39A
:101340005FE360913502709136028091370290918F
:1013500038020E94E5122B013C01B401990C880B64
:10136000990B0E94011220E030E043E852E40E9411
:1013700057112AE939E949E95EE30E94E5129B0128
:10138000AC01C301B2010E94B7106EA37FA388A76E
:1013900099A7609335027093360280933702909339
:1013A000380223E333E343E35FE36091310270915A
:1013B000320280913302909134020E94E5124B0177
:1013C0005C01B601DD0C880B990B0E94011220E034
:1013D00030E043E852E40E9457112AE939E949E92B
:1013E0005EE30E94E5129B01AC01C501B4010E94BD
:1013F000B7106AA77BA78CA79DA760933102709353
:101400003202809333029093340223E333E343E3C5
:101410005FE360912D0270912E0280912F029091D6
:1014200030020E94E5126B017C014AA15BA1BA0166
:10143000550F880B990B0E94011220E030E043E821
:1014400052E40E9457112AE939E949E95EE30E9412
:10145000E5129B01AC01C701B6010E94B7106AA357
:101460007BA38CA39DA360932D0270932E02809387
:101470002F02909330022FE632E143E85BE36EA146
:101480007FA188A599A50E94E51220914F02309175
:10149000500240915102509152020E94B7106B01CC
:1014A0007C012FE632E143E85BE36AA57BA58CA5CE
:1014B0009DA50E94E51220914B0230914C02409173
:1014C0004D0250914E020E94B7102B013C012FE6B5
:1014D00032E143E85BE36AA17BA18CA19DA10E945C
:1014E000E5129B01AC016091290270912A02809162
:1014F0002B0290912C020E94B710609329027093E6
:101500002A0280932B0290932C0222E938E642E9CA
:1015100058E36AA17BA18CA19DA10E94E5120E94C3
:1015200052136EA77FA788AB99AB9B01AC01C30197
:10153000B2010E94E512A70196010E94B7106AABA2
:101540007BAB8CAB9DAB6091570270915802072E1C
:10155000000C880B990B0E9401126B017C016091B9
:10156000550270915602072E000C880B990B0E94B1
:1015700001124B015C016091530270915402072EDD
:10158000000C880B990B0E9401129B01AC010E9478
:10159000E5126EAB7FAB88AF99AFA5019401C50191
:1015A000B4010E94E5122EA93FA948AD59AD0E9491
:1015B000B7100E9460139B01AC01C701B6010E94E5
:1015C00057110E9423116AAF7BAF8CAF9DAFA7016B
:1015D0009601C701B6010E94E5122EA93FA948ADA8
:1015E00059AD0E94B7100E9460139B01AC01C50168
:1015F000B4010E9457110E9423116B017C012BE161
:101600003FE245E652E46AAD7BAD8CAD9DAD0E94F4
:10161000E51227E137EB41ED59E30E94E5124B015A
:101620005C0129EC35EE4FE75FE36AA97BA98CA941
:101630009DA90E94E5129B01AC01C501B4010E9465
:10164000B7104B015C0160934F027093500280937E
:101650005102909352026AA97BA98CA99DA9905826
:101660002EA53FA548A959A90E94E512A301920100
:101670000E94B71029EC35EE4FE75FE30E94E512B8
:101680002B013C012BE13FE245E652ECC701B601DC
:101690000E94E51227E137EB41ED59E30E94E51284
:1016A0009B01AC01C301B2010E94B7102B013C01A8
:1016B00060934B0270934C0280934D0290934E02C4
:1016C00010922502109226021092270210922802F0
:1016D00010922102109222021092230210922402F0
:1016E00010921D0210921E0210921F0210922002F0
:1016F00060911B0270911C02653056E075071CF06A
:10170000645076400AC0643B85E07807C4F4645BAB
:10171000754077FF02C06D5F7F4F75956795759532
:101720006795072E000C880B990B0E94011260939D
:1017300025027093260280932702909328026091DD
:10174000190270911A02653096E079071CF0645016
:1017500076400AC0643BA5E07A07C4F4645B754038
:1017600077FF02C06D5F7F4F75956795759567959B
:10177000072E000C880B990B0E9401126093210226
:1017800070932202809323029093240260911702A7
:10179000709118026530B6E07B071CF0645076400B
:1017A0000AC0643BE5E07E07C4F4645B754077FFE4
:1017B00002C06D5F7F4F7595679575956795072E8C
:1017C000000C880B990B0E94011260931D0270930C
:1017D0001E0280931F029093200220E030E040EC34
:1017E00050E4C501B4010E94E5129B01AC01609177
:1017F00025027091260280912702909128020E9472
:10180000B6106B017C0160932502709326028093D1
:1018100027029093280220E030E040EC50E4C3011E
:10182000B2010E94E5129B01AC016091210270910E
:10183000220280912302909124020E94B6102B0173
:101840003C016093210270932202809323029093C3
:101850002402A70196016EA17FA188A599A50E94E7
:10186000B6106B017C01209113023091140240915B
:101870001502509116020E94E51220910F0230913C
:10188000100240911102509112020E94B7104B01B8
:101890005C0160930F027093100280931102909389
:1018A00012022091070230910802409109025091E2
:1018B0000A02C701B6010E94B610209103023091BE
:1018C000040240910502509106020E94E5126EA3A7
:1018D0007FA388A799A720910B0230910C02409119
:1018E0000D0250910E02C701B6010E94E512A5013A
:1018F00094010E94B7109B01AC016EA17FA188A545
:1019000099A50E94B7106EA37FA388A799A760939B
:10191000FF01709300028093010290930202C09233
:101920000702D0920802E0920902F0920A02A30193
:1019300092016AA57BA58CA59DA50E94B6106B019E
:101940007C012091FB013091FC014091FD015091FF
:10195000FE010E94E5122091F7013091F8014091BB
:10196000F9015091FA010E94B7104B015C0160939C
:10197000F7017093F8018093F9019093FA01209197
:10198000EF013091F0014091F1015091F201C70156
:10199000B6010E94B6102091EB013091EC0140910C
:1019A000ED015091EE010E94E5122B013C012091C6
:1019B000F3013091F4014091F5015091F601C70116
:1019C000B6010E94E512A50194010E94B7109B0187
:1019D000AC01C301B2010E94B7102B013C0160931E
:1019E000E7017093E8018093E9019093EA01C092C6
:1019F000EF01D092F001E092F101F092F20120911A
:101A00001D0230911E0240911F02509120026AA1D6
:101A10007BA18CA19DA10E94B6106B017C0120913D
:101A2000E3013091E4014091E5015091E6010E940B
:101A3000E5122091DF013091E0014091E1015091E8
:101A4000E2010E94B7104B015C016093DF017093CB
:101A5000E0018093E1019093E2012091D701309160
:101A6000D8014091D9015091DA01C701B6010E9415
:101A7000B6102091D3013091D4014091D5015091FD
:101A8000D6010E94E5126AA37BA38CA39DA320919B
:101A9000DB013091DC014091DD015091DE01C70195
:101AA000B6010E94E512A50194010E94B7109B01A6
:101AB000AC016AA17BA18CA19DA10E94B7104B0132
:101AC0005C016093CF017093D0018093D10190931A
:101AD000D201C092D701D092D801E092D901F09200
:101AE000DA0120E030E04FEA53E4C301B2010E9482
:101AF000D81287FD05C080E090E0AFEAB3E40EC0E5
:101B000020E030E04FEA53ECC301B2010E945211D1
:101B1000181664F080E090E0AFEAB3EC8093E70140
:101B20009093E801A093E901B093EA0120E030E04E
:101B30004FEA53E46EA17FA188A599A50E94D8120F
:101B400087FD05C080E090E0AFEAB3E410C020E07C
:101B500030E04FEA53EC6EA17FA188A599A50E94C1
:101B60005211181664F080E090E0AFEAB3EC809375
:101B7000FF0190930002A0930102B093020220E0C3
:101B800030E04FEA53E4C501B4010E94D81287FD4A
:101B90000FC0C12CD12CA8ECEA2EA3E4FA2EC092DF
:101BA000CF01D092D001E092D101F092D20116C0C3
:101BB00020E030E04FEA53ECC501B4010E9452111D
:101BC000181664F080E090E0AFEAB3EC8093CF01A8
:101BD0009093D001A093D101B093D2016091CD0137
:101BE0007091CE01072E000C880B990B0E940112F8
:101BF0004B015C01C090FF01D0900002E090010217
:101C0000F0900202CAA6DBA6ECA6FDA6A7019601EB
:101C10000E94B6102B013C01C090E701D090E80172
:101C2000E090E901F090EA01CAA2DBA2ECA2FDA2D9
:101C3000C090CF01D090D001E090D101F090D201BE
:101C40002AA13BA14CA15DA10E94B610A70196015B
:101C50000E94B6100E94D0116EA37FA388A799A7F7
:101C60006093C9017093CA018093CB019093CC011A
:101C70002AA13BA14CA15DA1C301B2010E94B710F2
:101C8000A70196010E94B7100E94D0112B013C01C0
:101C90006093C5017093C6018093C7019093C801FA
:101CA0002AA53BA54CA55DA5C501B4010E94B710AE
:101CB0006AA77BA78CA79DA79B01AC016AA17BA10A
:101CC0008CA19DA10E94B710A70196010E94B61099
:101CD0000E94D0114B015C016093C1017093C2015D
:101CE0008093C3019093C4012AA13BA14CA15DA1A3
:101CF0006AA57BA58CA59DA50E94B610A70196019B
:101D00000E94B7100E94D0116093BD017093BE0174
:101D10008093BF019093C001CEA0DFA0E8A4F9A4F6
:101D200021E4C21624E0D206E104F10438F4F0E420
:101D3000CF2EF4E0DF2EE12CF12C11C0CEA0DFA0DD
:101D4000E8A4F9A420EDC21627E0D206E104F104CC
:101D500070F0E0EDCE2EE7E0DE2EE12CF12CC0920B
:101D6000C901D092CA01E092CB01F092CC0121E4EA
:101D7000421624E052066104710438F450E4C52E82
:101D800054E0D52EE12CF12C0DC020ED421627E0B9
:101D900052066104710470F040EDC42E47E0D42E69
:101DA000E12CF12CC092C501D092C601E092C7018E
:101DB000F092C80121E4821624E09206A104B10445
:101DC00038F430E4C32E34E0D32EE12CF12C0DC0D6
:101DD00020ED821627E09206A104B10470F020EDF8
:101DE000C22E27E0D22EE12CF12CC092C101D0925C
:101DF000C201E092C301F092C401613424E0720791
:101E00008105910568F480E494E0A0E0B0E080935F
:101E1000BD019093BE01A093BF01B093C00113C058
:101E2000603D77408105910570F080EDC82E87E018
:101E3000D82EE12CF12CC092BD01D092BE01E092CF
:101E4000BF01F092C0010E943B066093B9017093FC
:101E5000BA018093BB019093BC018BB1806F8BB9A9
:101E60008091B9019091BA01A091BB01B091BC01E0
:101E70004091C9015091CA016091CB017091CC0190
:101E8000480F591F6A1F7B1F4093B5015093B6013D
:101E90006093B7017093B8014091C5015091C6019C
:101EA0006091C7017091C801480F591F6A1F7B1FBD
:101EB0004093B1015093B2016093B3017093B401A8
:101EC0004091C1015091C2016091C3017091C40160
:101ED000480F591F6A1F7B1F4093AD015093AE01FD
:101EE0006093AF017093B0014091BD015091BE016C
:101EF0006091BF017091C001840F951FA61FB71F8D
:101F00008093A9019093AA01A093AB01B093AC0177
:101F10008BB1803108F45CC00E943B066093B9012C
:101F20007093BA018093BB019093BC010091B501FD
:101F30001091B6012091B7013091B8016017710777
:101F40008207930708F05C984091B1015091B2016B
:101F50006091B3017091B4018091B9019091BA017F
:101F6000A091BB01B091BC0184179507A607B707E4
:101F700008F05D984091AD015091AE016091AF01C4
:101F80007091B0018091B9019091BA01A091BB010B
:101F9000B091BC0184179507A607B70708F05E98B3
:101FA0004091A9015091AA016091AB017091AC01DF
:101FB0008091B9019091BA01A091BB01B091BC018F
:101FC00084179507A607B70708F4A2CF5F98A0CF9C
:101FD0000E943B0660935D0270935E0280935F02F5
:101FE000909360020091590210915A0220915B0275
:101FF00030915C026B017C01C01AD10AE20AF30A3B
:10200000A701960119A28E010F5D1F4FCA01B901E8
:102010002AE030E040E050E00E948E10605DD80180
:102020006E938D01211531054105510579F7109702
:1020300069F0FD0101900020E9F73197AF014A1BDB
:102040005B0BBD0188EA92E00E94AA0042E050E0EA
:1020500065E271E088EA92E00E94AA0080915D0248
:1020600090915E02A0915F02B0916002409159028E
:1020700050915A0260915B0270915C02841B950B37
:10208000A60BB70B813A9F40A105B10558F40E94F9
:102090003B0660935D0270935E0280935F029093B3
:1020A0006002DCCF0E94AC0171C8E8EAF2E0138262
:1020B000128288EE93E0A0E0B0E084839583A6834B
:1020C000B78325E031E03183208325EC30E035878C
:1020D000248724EC30E03787268720EC30E0318BF2
:1020E000208B21EC30E0338B228B22EC30E0358BDF
:1020F000248B26EC30E0378B268B118E128E138EBC
:10210000148EE5E4F3E01382128284839583A68320
:10211000B78387E191E0918380830895A1E21A2E2D
:10212000AA1BBB1BFD010DC0AA1FBB1FEE1FFF1F7B
:10213000A217B307E407F50720F0A21BB30BE40BCB
:10214000F50B661F771F881F991F1A9469F7609512
:102150007095809590959B01AC01BD01CF010895CC
:10216000EE0FFF1F0590F491E02D09945058BB2706
:10217000AA270E94CE100C949E120E94901238F052
:102180000E94971220F039F49F3F19F426F40C9422
:1021900066120EF4E095E7FB0C946012E92F0E94A2
:1021A000AF1258F3BA17620773078407950720F038
:1021B00079F4A6F50C94D1120EF4E0950B2EBA2FFB
:1021C000A02D0B01B90190010C01CA01A00111243D
:1021D000FF27591B99F0593F50F4503E68F11A16E9
:1021E000F040A22F232F342F4427585FF3CF46957A
:1021F00037952795A795F0405395C9F77EF41F169C
:10220000BA0B620B730B840BBAF09150A1F0FF0F65
:10221000BB1F661F771F881FC2F70EC0BA0F621F51
:10222000731F841F48F4879577956795B795F79541
:102230009E3F08F0B0CF9395880F08F09927EE0FD6
:10224000979587950895DF93DD27B92FBF7740E8ED
:102250005FE31616170648075B0718F4D92F0E948C
:10226000DD129F938F937F936F930E94A013E8E6F4
:10227000F0E00E9469120E949E122F913F914F91AF
:102280005F910E94F812DD2351F09058A2EA2AEDE6
:102290003FE049EC5FE3D0785D270E94CE10DF91EC
:1022A0000C949E120E943C1208F481E008950E9452
:1022B0006B110C949E120E94971258F00E9490127B
:1022C00040F029F45F3F29F00C94601251110C94F6
:1022D000D2120C9466120E94AF1268F39923B1F3E4
:1022E000552391F3951B550BBB27AA27621773073C
:1022F000840738F09F5F5F4F220F331F441FAA1FD0
:10230000A9F335D00E2E3AF0E0E832D0915050408B
:10231000E695001CCAF72BD0FE2F29D0660F771F39
:10232000881FBB1F261737074807AB07B0E809F01F
:10233000BB0B802DBF01FF2793585F4F3AF09E3FA4
:10234000510578F00C9460120C94D2125F3FE4F3C4
:10235000983ED4F3869577956795B795F7959F5FE7
:10236000C9F7880F911D9695879597F90895E1E033
:10237000660F771F881FBB1F621773078407BA0792
:1023800020F0621B730B840BBA0BEE1F88F7E095ED
:1023900008950E94D0116894B1110C94D21208953E
:1023A0000E94B71288F09F5798F0B92F9927B7511C
:1023B000B0F0E1F0660F771F881F991F1AF0BA95E9
:1023C000C9F714C0B13091F00E94D112B1E0089564
:1023D0000C94D112672F782F8827B85F39F0B93F56
:1023E000CCF3869577956795B395D9F73EF490959C
:1023F0008095709561957F4F8F4F9F4F0895E8941A
:1024000009C097FB3EF490958095709561957F4F3C
:102410008F4F9F4F9923A9F0F92F96E9BB279395EA
:10242000F695879577956795B795F111F8CFFAF4FA
:10243000BB0F11F460FF1BC06F5F7F4F8F4F9F4F2B
:1024400016C0882311F096E911C0772321F09EE889
:10245000872F762F05C0662371F096E8862F70E0EF
:1024600060E02AF09A95660F771F881FDAF7880FC9
:102470009695879597F90895990F0008550FAA0B1F
:10248000E0E8FEEF16161706E807F907C0F0121687
:102490001306E407F50798F0621B730B840B950B8A
:1024A00039F40A2661F0232B242B252B21F40895DF
:1024B0000A2609F4A140A6958FEF811D811D08957C
:1024C00097F99F6780E870E060E008959FEF80ECE7
:1024D0000895DF93CF931F930F93FF92EF92DF92B4
:1024E0007B018C01689406C0DA2EEF010E94F8127D
:1024F000FE01E894A5912591359145915591A6F35A
:10250000EF010E94CE10FE019701A801DA9469F74D
:10251000DF90EF90FF900F911F91CF91DF91089581
:1025200000240A94161617061806090608950024B2
:102530000A9412161306140605060895092E03942C
:10254000000C11F4882352F0BB0F40F4BF2B11F4A0
:1025500060FF04C06F5F7F4F8F4F9F4F089557FDFF
:102560009058440F551F59F05F3F71F04795880F01
:1025700097FB991F61F09F3F79F087950895121698
:1025800013061406551FF2CF4695F1DF08C0161644
:1025900017061806991FF1CF8695710561050894F5
:1025A0000895E894BB2766277727CB0197F908950C
:1025B0000E943C1208F48FEF08959B01AC0160E08B
:1025C00070E080E89FE30C9457110E94F8120C947D
:1025D0009E120E94901238F00E94971220F09523CC
:1025E00011F00C9460120C94661211240C94D21207
:1025F0000E94AF1270F3959FC1F3950F50E0551FE5
:10260000629FF001729FBB27F00DB11D639FAA2747
:10261000F00DB11DAA1F649F6627B00DA11D661F96
:10262000829F2227B00DA11D621F739FB00DA11DB7
:10263000621F839FA00D611D221F749F3327A00D71
:10264000611D231F849F600D211D822F762F6A2F0D
:1026500011249F5750409AF0F1F088234AF0EE0F72
:10266000FF1FBB1F661F771F881F91505040A9F79F
:102670009E3F510580F00C9460120C94D2125F3F83
:10268000E4F3983ED4F3869577956795B795F795DB
:10269000E7959F5FC1F7FE2B880F911D9695879553
:1026A00097F908959F930E94BB130F9007FCEE5F6C
:1026B0000C94E41319F416F40C9466120C94A413FD
:1026C0000E94B712B8F39923C9F3B6F39F57550B7D
:1026D00087FF0E94B2130024A0E640EA90018058D0
:1026E0005695979528F4805C660F771F881F20F019
:1026F00026173707480730F4621B730B840B202919
:1027000031294A2BA69517940794202531254A276D
:1027100058F7660F771F881F20F0261737074807DE
:1027200030F4620B730B840B200D311D411DA095FD
:1027300081F7B901842F9158880F96958795089550
:102740009B01AC010C94E5129F3F31F0915020F4B5
:10275000879577956795B795880F911D969587957D
:1027600097F9089591505040660F771F881FD2F750
:1027700008950C9466120E94B712D8F3E894E0E032
:10278000BB279F57F0F02AED3FE049EC06C0EE0F63
:10279000BB0F661F771F881F28F0B23A62077307C6
:1027A000840728F0B25A620B730B840BE3959A9559
:1027B00072F7803830F49A95BB0F661F771F881F19
:1027C000D2F790480C94A613EF93E0FF07C0A2EA5B
:1027D0002AED3FE049EC5FEB0E94CE100E949E1272
:1027E0000F90039401FC9058E5E9F0E00C94F81385
:1027F0009F938F937F936F93FF93EF939B01AC0114
:102800000E94E512EF91FF910E9469122F913F9172
:102810004F915F910C94E51281E090E0F8940C9454
:062820001114F894FFCF33
:1028260001000000003D01AA00D4008A010501E371
:1028360000F70000000000410214027102E8010CDA
:0828460002F801E9010D0A008E
:00000001FF
