:100000000C9485000C94AD000C94AD000C94380455
:100010000C94AD000C94AD000C94AD000C94AD00AC
:100020000C94AD000C94AD000C94AD000C94AD009C
:100030000C94AD000C94AD000C94AD000C94AD008C
:100040000C94D6070C94AD000C94D8020C94B20218
:100050000C94AD000C94AD000C94AD000C94AD006C
:100060000C940A030C94AD00036EDB363D9A99990B
:10007000993DABAAAA2A3E000000803F072C7AA532
:10008000BA6CC590DA3B9365FC8BBC53F810FD3C11
:100090005692834DBD879D3AB63DCBC9BF5BBE73BB
:1000A000DA0FC93F05A84CCDB2D44EB93836A902F3
:1000B0000C50B9918688083CA6AAAA2ABE00000066
:1000C000803F00000000250028002B0004040404E9
:1000D00004040404020202020202030303030303F2
:1000E00001020408102040800102040810200102CF
:1000F00004081020000000080002010000030407AB
:1001000000000000000000004E1111241FBECFEFC0
:10011000D8E0DEBFCDBF11E0A0E0B1E0E8EFFAE249
:1001200002C005900D92AA36B107D9F723E0AAE6DE
:10013000B1E001C01D92A53BB207E1F710E0C5E8B0
:10014000D0E004C02197FE010E941412C438D107E8
:10015000C9F70E9420080C947A150C9400000895A9
:100160000895CF92DF92EF92FF920F931F93CF9358
:10017000DF936C017A018B01C0E0D0E0CE15DF0582
:1001800081F0D8016D918D01D601ED91FC91019026
:10019000F081E02DC6010995892B11F02196EECF53
:1001A0007E01C701DF91CF911F910F91FF90EF90DA
:1001B000DF90CF90089585ED8093BC008091BC00C6
:1001C00084FDFCCF1092D20208954091C201262FE7
:1001D00030E0240F311D21323105DCF42091D202B0
:1001E0002430C9F4FC0180E090E0861758F4309187
:1001F000C2012191DC01AE55BE4FA30FB11D2C935E
:100200000196F3CF8091C201680F6093C20180E034
:10021000089581E0089582E008950895E091EA014B
:100220008091E901E81730F4F0E0EE57FE4F80814D
:1002300090E008958FEF9FEF08959091EA018091EB
:10024000E901981750F4E92FF0E0EE57FE4F2081B6
:1002500030E09F5F9093EA0102C02FEF3FEFC901AA
:1002600008958091E90190E02091EA01821B9109B3
:100270000895CF92DF92EF92FF920F931F93CF9347
:10028000DF937C01CB018A012091D302222389F0E4
:10029000EB016B01C40ED51ECC15DD0569F069912B
:1002A000D701ED91FC910190F081E02DC7010995F6
:1002B000F3CF642F0E94E500C801DF91CF911F9119
:1002C0000F91FF90EF90DF90CF900895CF93DF9341
:1002D0001F92CDB7DEB769832091D3022223D1F0DC
:1002E0002091F602203240F021E030E0FC0133831F
:1002F000228380E090E015C08091D402E82FF0E0E6
:10030000EB52FD4F998190838F5F8093D40280934D
:10031000F60205C061E0CE0101960E94E50081E091
:1003200090E00F90DF91CF910895089580E090E0E4
:1003300008950E94751587EF92E00E94300521E034
:10034000892B09F420E0822F0895CF9381E08093D8
:10035000D30288E68093F5021092D4021092F6023E
:100360008BE390E00E9446050E944B058091D202EB
:100370008111FCCF81E08093D2028093D1029FEF64
:100380009093D0021092CF029DE09093CE02809382
:10039000AD028091AD02806D8093AD028091AC0280
:1003A000813061F41092AC028091AD028093BB0069
:1003B0008091BC0083FDF8CF85EC01C085EE809371
:1003C000BC008091D2028130E1F38091CF028E3067
:1003D00018F49091CF0201C09EE0EEEAF2E0A2E8AC
:1003E000B1E080E0891721F021912D938F5FFACF42
:1003F0001092EA018093E90190E00F970CF0B0C0F1
:1004000084E993E00E941D01C82F84E993E00E94D3
:100410001D0160E070E07C2F862B972BBC01990FAB
:10042000880B990B0E945113609397027093980266
:100430008093990290939A0284E993E00E941D01AF
:10044000C82F84E993E00E941D0160E070E07C2FDA
:10045000862B972BBC01990F880B990B0E94511387
:1004600060939B0270939C0280939D0290939E02E6
:1004700084E993E00E941D01C82F84E993E00E9463
:100480001D0160E070E07C2F862B972BBC01990F3B
:10049000880B990B0E94511360939F027093A002E6
:1004A0008093A1029093A20284E993E00E941D012F
:1004B00084E993E00E941D0184E993E00E941D01FC
:1004C000C82F84E993E00E941D0160E070E07C2F5A
:1004D000862B972BBC01990F880B990B0E94511307
:1004E00060937702709378028093790290937A02F6
:1004F00084E993E00E941D01C82F84E993E00E94E3
:100500001D0160E070E07C2F862B972BBC01990FBA
:10051000880B990B0E94511360937B0270937C02AD
:1005200080937D0290937E0284E993E00E941D01F6
:10053000C82F84E993E00E941D0160E070E07C2FE9
:10054000862B972BBC01990F880B990B0E94511396
:1005500060937F0270938002809381029093820265
:10056000CF9108951F920F920FB60F9211242F93DF
:100570003F934F935F936F937F938F939F93AF932B
:10058000BF93EF93FF9387EF92E00E94FF05FF91E7
:10059000EF91BF91AF919F918F917F916F915F91FB
:1005A0004F913F912F910F900FBE0F901F90189574
:1005B0001F920F920FB60F9211242F938F939F9338
:1005C000EF93FF93E0910703F09108038081E0919E
:1005D0000D03F0910E0382FD12C0908180911003F3
:1005E0008F5F8F7320911103821751F0E0911003F8
:1005F000F0E0E950FD4F958F8093100301C080819A
:10060000FF91EF919F918F912F910F900FBE0F90BF
:100610001F9018951F920F920FB60F9211242F93CF
:100620003F934F935F936F937F938F939F93AF937A
:10063000BF93EF93FF938091B900887F803609F4D0
:100640009CC068F5883209F45BC090F4803109F4ED
:1006500054C038F4882309F4F6C0883009F44DC03A
:10066000F6C0883109F44CC0803209F45DC0EFC097
:10067000803409F468C048F4803309F455C08833E5
:1006800009F0E5C08093D002D8C0803509F44FC08E
:10069000883509F45DC0883409F0D9C0D6C08839DE
:1006A00009F4C7C0A8F4883709F467C038F488365D
:1006B00009F463C0803709F460C0C9C0883809F400
:1006C000B8C0803909F45FC0803809F0C0C05BC091
:1006D000803B09F486C038F4803A09F466C0883A51
:1006E00009F47FC0B4C0803C09F4A7C0883C09F479
:1006F000A4C0883B09F48AC0AAC08091AD0210C092
:100700009091CF028091CE02981770F5E091CF02C0
:1007100081E08E0F8093CF02F0E0E255FD4F8081A3
:100720008093BB0085EC86C08093D0028EC0E091A0
:10073000CF0281E08E0F8093CF028091BB00F0E06A
:10074000E255FD4F80839091CF028091CE026EC022
:10075000E091CF0281E08E0F8093CF028091BB00A9
:10076000F0E0E255FD4F80838091D10281116DC090
:1007700081E08093AC0284EA61C083E08093D2027E
:100780001092E401CFCF8091E401803208F051C093
:10079000E091E40181E08E0F8093E4018091BB0041
:1007A000F0E0EC53FE4F8083BDCF85EC8093BC001E
:1007B0001092D2028091E401803230F4E091E401A1
:1007C000F0E0EC53FE4F10826091E40170E0E091A4
:1007D000E501F091E60184EC91E009951092E401C5
:1007E00036C084E08093D2021092C3011092C201FD
:1007F000E091E701F091E80109958091C201811132
:1008000005C081E08093C2011092A201E091C30172
:1008100081E08E0F8093C301F0E0EE55FE4F8081A2
:100820008093BB009091C3018091C201981708F496
:1008300079CF85E88093BC000AC085EC8093BC002A
:100840001092D20204C01092D0020E94DB00FF91ED
:10085000EF91BF91AF919F918F917F916F915F9138
:100860004F913F912F910F900FBE0F901F901895B1
:100870001F920F920FB60F9211242F933F934F9315
:100880005F936F937F938F939F93AF93BF93EF93F8
:10089000FF930E94B1072091800130918101189B44
:1008A00011C0232B09F521E030E030938101209322
:1008B000800160937C0170937D0180937E01909311
:1008C0007F0112C02130310579F41092810110921C
:1008D000800120917C0130917D01AB01421B530BC3
:1008E00050933C0240933B0220917A0130917B016E
:1008F000199B11C0232B09F521E030E030937B01D7
:1009000020937A0160937601709377018093780148
:100910009093790112C02130310579F410927B0156
:1009200010927A012091760130917701AB01421B40
:10093000530B509342024093410220917401309135
:1009400075011A9B11C0232B09F521E030E030938B
:10095000750120937401609370017093710180930D
:1009600072019093730112C02130310579F4109215
:100970007501109274012091700130917101AB01E9
:10098000421B530B5093300240932F0220916E0173
:1009900030916F011B9B11C0232B01F521E030E04A
:1009A00030936F0120936E0160936A0170936B0125
:1009B00080936C0190936D0111C02130310571F469
:1009C00010926F0110926E0120916A0130916B01BB
:1009D000621B730B7093360260933502FF91EF91A7
:1009E000BF91AF919F918F917F916F915F914F9147
:1009F0003F912F910F900FBE0F901F901895FC0103
:100A0000538D448D252F30E0842F90E0821B930B73
:100A1000541710F0CF96089501970895FC01918D19
:100A2000828D981761F0828DDF01A80FB11D5D9650
:100A30008C91928D9F5F9F73928F90E008958FEFBE
:100A40009FEF0895FC01918D828D981731F0828D72
:100A5000E80FF11D858D90E008958FEF9FEF0895C9
:100A6000FC01918D228D892F90E0805C9F4F821B2D
:100A700091098F739927089580E090E0892B29F0E0
:100A80000E949B0181110C9400000895682F84E955
:100A900093E00C9466013091F602313208F04BC0BD
:100AA0008091D2028111FCCF9091F50222E0209337
:100AB000D20221E02093D1022FEF2093D002109296
:100AC000CF023093CE02E5EDF2E0AEEAB2E020E0F4
:100AD000321721F041914D932F5FFACF1092AD0262
:100AE0002091AD02990F922B9093AD029091AC02A0
:100AF000913061F41092AC029091AD029093BB00E2
:100B00009091BC0093FDF8CF95EC01C095EE9093C9
:100B1000BC009091D2029230E1F39091D0029F3FBD
:100B200079F08091D002803241F08091D002803300
:100B300031F084E005C081E003C082E001C083E0C1
:100B40001092D4021092F6021092D302089590E00F
:100B5000FC01EC50FF4F2491FC01E052FF4F349117
:100B6000FC01E453FF4FE491EE23B1F1222339F16C
:100B7000233091F038F42130A9F0223001F584B50A
:100B80008F7D12C0273091F02830A1F02430B9F4C5
:100B9000809180008F7D03C0809180008F7780934B
:100BA00080000DC084B58F7784BD09C08091B000EE
:100BB0008F7703C08091B0008F7D8093B000F0E00C
:100BC000EE0FFF1FEE53FF4FA591B4918FB7F8942E
:100BD000EC91E32BEC938FBF0895009769F0FC0133
:100BE00001900020E9F73197AF01481B590BBC0178
:100BF00087EF92E00C94B10080E090E00895FC0152
:100C0000848DDF01A80FB11DA35ABF4F2C91848D95
:100C100090E001968F739927848FA689B7892C93CA
:100C2000A089B1898C91837080648C93938D848D1D
:100C3000981306C00288F389E02D80818F7D808320
:100C40000895EF92FF920F931F93CF93DF93EC01E0
:100C500081E0888F9B8D8C8D981305C0E889F98978
:100C6000808185FD26C0F62E0B8D10E00F5F1F4F93
:100C70000F731127E02E8C8DE8120CC00FB607FC05
:100C8000FACFE889F989808185FFF5CFCE010E94EE
:100C9000FF05F1CF8B8DFE01E80FF11DE35AFF4FE9
:100CA000F0829FB7F8940B8FEA89FB89808180627C
:100CB0000AC09FB7F894EE89FF896083E889F989B3
:100CC00080818370806480839FBF81E090E0DF91AA
:100CD000CF911F910F91FF90EF9008952F923F9227
:100CE0004F925F926F927F928F929F92AF92BF923C
:100CF000CF92DF92EF92FF920F931F93CF93DF93E8
:100D0000CDB7DEB7A4970FB6F894DEBF0FBECDBF48
:100D10004B015C01F42E9B01AC010E941C15882341
:100D200019F08DE591E027C024013501E89477F8AA
:100D30002FEF3FEF4FE75FE7C301B2010E941C15A1
:100D400081110DC02FEF3FEF4FE75FE7C301B20105
:100D50000E94A21218161CF481E691E00CC02FEF3D
:100D60003FEF4FE75FE4C501B4010E945C14181621
:100D70002CF485E691E00E94ED05B8C02FEF3FEF1F
:100D80004FE75FECC501B4010E94A21287FDF1CFCD
:100D900020E030E0A901C501B4010E94A21287FF42
:100DA0000BC06DE287EF92E00E9421063C01B7FA8A
:100DB000B094B7F8B09402C0612C712C10E060E0E0
:100DC00070E080E09FE3F11641F020E030E040E287
:100DD00051E40E94A7121F5FF6CFA50194010E9463
:100DE0001B124B015C010E9420136AA3C72ED82E50
:100DF000E92E19A2262F372F482F592F8E010F5D6C
:100E00001F4F0BA31CA39AE0292E312C412C512CEF
:100E1000CA01B901A20191010E94BF11605DF801F0
:100E200062938F01211531054105510589F7CF01E5
:100E30000E94ED058301080F191FFF2009F455C01A
:100E40006AA17C2D8D2D9E2D0E944F139B01AC011C
:100E5000C501B4010E941A124B015C016EE287EFDA
:100E600092E00E942106080F191F8AE0282E312CDB
:100E7000412C512C20E030E040E251E4C501B401A6
:100E80000E9461144B015C010E9420139B0140E011
:100E900050E019A2CBA0DCA0762E3AA3642EE52E5A
:100EA000CA01B901A20191010E94BF11605DF60162
:100EB00062936F01211531054105510589F7CF0175
:100EC0000E94ED05080F191F672D7AA1862D9E2D12
:100ED0000E944F139B01AC01C501B4010E941A127C
:100EE0004B015C01FA94F110C5CFC801A4960FB66E
:100EF000F894DEBF0FBECDBFDF91CF911F910F9150
:100F0000FF90EF90DF90CF90BF90AF909F908F9029
:100F10007F906F905F904F903F902F900895CF9368
:100F2000DF93EC01888D8823C9F0EA89FB898081F1
:100F300085FD05C0A889B9898C9186FD0FC00FB6C3
:100F400007FCF5CF808185FFF2CFA889B9898C9104
:100F500085FFEDCFCE010E94FF05E7CFDF91CF9156
:100F600008953FB7F8948091B1039091B203A09196
:100F7000B303B091B40326B5A89B05C02F3F19F069
:100F80000196A11DB11D3FBFBA2FA92F982F882709
:100F9000820F911DA11DB11DBC01CD0142E0660F64
:100FA000771F881F991F4A95D1F708951F920F92B6
:100FB0000FB60F9211242F933F938F939F93AF936C
:100FC000BF938091AD039091AE03A091AF03B09118
:100FD000B0033091AC0323E0230F2D3720F40196AA
:100FE000A11DB11D05C026E8230F0296A11DB11D4C
:100FF0002093AC038093AD039093AE03A093AF0313
:10100000B093B0038091B1039091B203A091B30368
:10101000B091B4030196A11DB11D8093B1039093CB
:10102000B203A093B303B093B403BF91AF919F9168
:101030008F913F912F910F900FBE0F901F90189599
:10104000CF93DF93CDB7DEB760970FB6F894DEBFCE
:101050000FBECDBF789484B5826084BD84B58160B5
:1010600084BD85B5826085BD85B5816085BD809173
:101070006E00816080936E001092810080918100EB
:1010800082608093810080918100816080938100E3
:10109000809180008160809380008091B1008460A5
:1010A0008093B1008091B00081608093B000809106
:1010B0007A00846080937A0080917A0082608093C5
:1010C0007A0080917A00816080937A0080917A0022
:1010D000806880937A001092C10021E0209368001C
:1010E0008FE080936B008AB1806F8AB91092EA0119
:1010F0001092E9011092D4021092F6021092D202DC
:101100002093D1021092AC0282E10E94A70583E1F4
:101110000E94A7058091B9008E7F8093B9008091CD
:10112000B9008D7F8093B90088E48093B80085E48E
:101130008093BC008FEA90E09093E8018093E701F0
:1011400080EB90E09093E6018093E5018CE0809342
:10115000B80031E03093D30248E64093F502109294
:10116000D4021092F6028BE690E00E94460580E0E1
:1011700090E00E9446050E944B0551E05093D30237
:1011800088E68093F5021092D4021092F6028BE169
:1011900090E00E94460588E090E00E9446050E948B
:1011A0004B0591E09093D302A8E6A093F50210922C
:1011B000D4021092F6028CE190E00E94460580E095
:1011C00090E00E9446050E944B0521ED37E03E83EA
:1011D0002D830BE71EE30E94A501609167027091C9
:1011E00068028091690290916A020E9451132091D5
:1011F0007702309178024091790250917A020E94F0
:101200001B120E9419134B015C01609367027093DB
:1012100068028093690290936A0260916B027091F8
:101220006C0280916D0290916E020E945113209188
:101230007B0230917C0240917D0250917E020E949F
:101240001B120E94191369837A838B839C8360939A
:101250006B0270936C0280936D0290936E026091AA
:101260006F027091700280917102909172020E94DF
:10127000511320917F023091800240918102509160
:1012800082020E941B120E9419132B013C016093E1
:101290006F02709370028093710290937202C80182
:1012A0000197F1F74D815E81415051095E834D8375
:1012B000452B09F090CF80EDC82E87E0D82EE12C89
:1012C000F12CC501B401A70196010E94E111209300
:1012D0006702309368024093690250936A02698101
:1012E0007A818B819C81A70196010E94E111209354
:1012F0006B0230936C0240936D0250936E02C301F7
:10130000B201A70196010E94E11120936F02309370
:10131000700240937102509372028BB1806F8BB94F
:101320008BE39FE10197F1F78BB11BB88BB1806F15
:101330008BB98BE697E10197F1F78BB11BB88BB1B5
:10134000806F8BB98BE99FE00197F1F78BB11BB8E8
:1013500000ED17E098EE292E93E0392E0E94B10798
:101360006093A8027093A9028093AA029093AB02A3
:101370008091A30281117DC00E94A50180919702F6
:1013800090919802A0919902B0919A0289839A83D0
:10139000AB83BC83C0909B02D0909C02E0909D02E6
:1013A000F0909E0280909F029090A002A090A102D7
:1013B000B090A2029C01AD01BC01CD010E9461145C
:1013C0002B013C01A7019601C701B6010E946114DF
:1013D0009B01AC01C301B2010E941B122B013C0115
:1013E000A5019401C501B4010E9461149B01AC01E7
:1013F000C301B2010E941B120E94DC144B015C016C
:101400009B01AC01C701B6010E94A7120E9487127E
:101410006B017C01A501940169817A818B819C819A
:101420000E94A7120E9487124B015C012BE13FE250
:1014300045E652E4C701B6010E9461146093870239
:10144000709388028093890290938A022BE13FE295
:1014500045E652ECC501B4010E94611460938B0211
:1014600070938C0280938D0290938E0291E0909302
:10147000A3020E94A50160916702709168028091A9
:10148000690290916A020E9451139B01AC01609124
:101490007702709178028091790290917A020E948D
:1014A0001A122B013C0120E030E043E852E40E9494
:1014B000A7124B015C01609357027093580280930E
:1014C000590290935A0260916B0270916C02809164
:1014D0006D0290916E020E9451139B01AC016091CC
:1014E0007B0270917C0280917D0290917E020E942D
:1014F0001A1269837A838B839C8320E030E043E86F
:1015000052E40E94A7126B017C0160935B0270930E
:101510005C0280935D0290935E0260916F02709115
:10152000700280917102909172020E9451139B018E
:10153000AC0160917F027091800280918102909154
:1015400082020E941A126D837E838F83988720E027
:1015500030E043E852E40E94A71269877A878B87BC
:101560009C8760935F027093600280936102909306
:10157000620223E333E343E35FE360914702709148
:1015800048028091490290914A020E9461146D873D
:101590007E878F87988B2AE939E949E95EE3C5019F
:1015A000B4010E9461149B01AC016D857E858F851D
:1015B00098890E941B12609347027093480280939F
:1015C000490290934A0223E333E343E35FE36091EC
:1015D0004B0270914C0280914D0290914E020E94FC
:1015E00061144B015C012AE939E949E95EE3C7016D
:1015F000B6010E9461149B01AC01C501B4010E94B7
:101600001B1260934B0270934C0280934D02909397
:101610004E0223E333E343E35FE360914F027091B3
:10162000500280915102909152020E9461146B010C
:101630007C012AE939E949E95EE369857A858B8588
:101640009C850E9461149B01AC01C701B6010E94F8
:101650001B1260934F02709350028093510290933B
:10166000520220ED32E240E858E369817A818B81B1
:101670009C810E94611420918B0230918C024091D8
:101680008D0250918E020E941B1269877A878B8788
:101690009C872BE733E14FE855E36D817E818F8195
:1016A00098850E9461140E94CE146D837E838F837F
:1016B000988720ED32E240E858E3C301B2010E946E
:1016C00061142091870230918802409189025091E3
:1016D0008A020E941B126B017C012D813E814F8189
:1016E000588569857A858B859C850E9461149B014C
:1016F000AC01C701B6010E941A126D877E878F87E1
:10170000988B2091970230919802409199025091C4
:101710009A0229833A834B835C83C0909B02D090CA
:101720009C02E0909D02F0909E0280909F0290901B
:10173000A002A090A102B090A202CA01B9010E9429
:1017400061142B013C01A7019601C701B6010E945B
:1017500061149B01AC01C301B2010E941B122B0159
:101760003C01A5019401C501B4010E9461149B01D3
:10177000AC01C301B2010E941B120E94DC144B0198
:101780005C019B01AC01C701B6010E94A7120E9437
:1017900087126B017C01A501940169817A818B819B
:1017A0009C810E94A7120E9487124B015C012BE1D1
:1017B0003FE245E652E4C701B6010E9461142FE6FC
:1017C00032E143E85AE30E9461146B017C0127E790
:1017D0003EEB4FE75FE36D857E858F8598890E949C
:1017E00061149B01AC01C701B6010E941B126B0181
:1017F0007C016093870270938802809389029093A2
:101800008A022D853E854F8558896D817E818F8125
:1018100098850E94611429853A854B855C850E94D4
:101820001B1227E73EEB4FE75FE30E9461142B0199
:101830003C012BE13FE245E652ECC501B4010E94B8
:1018400061142FE632E143E85AE30E9461149B01E0
:10185000AC01C301B2010E941B1260938B02709312
:101860008C0280938D0290938E0220E030E040E75E
:1018700051E40E9461144B015C0120E030E040E73C
:1018800051E4C701B6010E9461146B017C01809193
:10189000410290914202853036E093071CF084505B
:1018A000964006C0843B45E09407A4F4845B9540D1
:1018B00066E070E00E94AB11072E000C880B990BBC
:1018C0000E94511360933D0270933E0280933F0249
:1018D0009093400280913B0290913C02853056E00B
:1018E00095071CF08450964006C0843BA5E09A07FB
:1018F000A4F4845B954066E070E00E94AB11072E73
:10190000000C880B990B0E9451136093370270935F
:1019100038028093390290933A0280913502909177
:1019200036028530B6E09B071CF08450964006C016
:10193000843BE5E09E07A4F4845B954066E070E09C
:101940000E94AB11072E000C880B990B0E945113BB
:101950006093310270933202809333029093340289
:1019600080912F0290913002803D974024F0109397
:10197000300200932F0280912F0290913002893E15
:10198000934024F43092300220922F0220E030E085
:1019900040E251E4C501B4010E94A7129B01AC01D1
:1019A00060913702709138028091390290913A0229
:1019B0000E941A12609337027093380280933902A2
:1019C00090933A0220E030E040E251E4C701B601D2
:1019D0000E94A7129B01AC0160913D0270913E02F2
:1019E00080913F02909140020E941A1260933D0242
:1019F00070933E0280933F029093400280E391E017
:101A00000E94ED05609187027091880280918902A1
:101A100090918A0242E00E946E068BE391E00E9460
:101A2000ED0560918B0270918C0280918D029091F6
:101A30008E0242E00E946E0686E491E00E94ED056F
:101A400060915702709158028091590290915A0208
:101A500042E00E946E0680E591E00E94ED056091F3
:101A60005B0270915C0280915D0290915E0242E0A7
:101A70000E946E068AE591E00E94ED0520913702F2
:101A8000309138024091390250913A0260914B02F4
:101A900070914C0280914D0290914E020E941A1258
:101AA0006B017C012091A8033091A9034091AA0306
:101AB0005091AB030E9461142B013C012091A403BF
:101AC0003091A5034091A6035091A703C701B60129
:101AD0000E94611420912B0230912C0240912D0222
:101AE00050912E020E941B124B015C0160932B024D
:101AF00070932C0280932D0290932E022091A003CC
:101B00003091A1034091A2035091A303C701B601F4
:101B10000E9461146B017C01A5019401C301B20113
:101B20000E941B129B01AC01C701B6010E941B124F
:101B300069837A838B839C83609327027093280246
:101B40008093290290932A0210924B0210924C0229
:101B500010924D0210924E021092370210923802EB
:101B60001092390210923A0220913D0230913E02C9
:101B700040913F02509140026091470270914802AB
:101B80008091490290914A020E941A126B017C01D5
:101B90002AE037ED43EA5CE30E94611420912302BE
:101BA0003091240240912502509126020E941B127E
:101BB0004B015C0120E030E040E150E4C701B60198
:101BC0000E9461149B01AC01C501B4010E941B126B
:101BD0004B015C0120E030E040E751E4C701B60171
:101BE0000E9461149B01AC01C501B4010E941B124B
:101BF0004B015C0160931F027093200280932102CD
:101C00009093220210922302109224021092250235
:101C10001092260210924702109248021092490236
:101C200010924A0210923D0210923E0210923F0220
:101C300010924002209131023091320240913302E1
:101C40005091340260914F02709150028091510284
:101C5000909152020E941A126B017C012AE037ED2A
:101C600043E25CE30E94611420911B0230911C024C
:101C700040911D0250911E020E941B122B013C013B
:101C800020E030E040E450E4C701B6010E94611456
:101C90009B01AC01C301B2010E941B122B013C014C
:101CA00020E030E0A901C701B6010E9461149B0148
:101CB000AC01C301B2010E941B126B017C01609355
:101CC0001702709318028093190290931A021092CF
:101CD0001B0210921C0210921D0210921E02109202
:101CE0004F02109250021092510210925202109222
:101CF000310210923202109233021092340220E02C
:101D000030E048EC53E469817A818B819C810E94A8
:101D10005C1487FD0CC080E090E0A8ECB3E48093F5
:101D2000270290932802A0932902B0932A0220E070
:101D300030E048EC53EC60912702709128028091CA
:101D4000290290912A020E94A212181664F080E0E3
:101D500090E0A8ECB3EC8093270290932802A09324
:101D60002902B0932A0220E030E048EC53E4C50198
:101D7000B4010E945C1487FD0CC080E090E0A8ECE8
:101D8000B3E480931F0290932002A0932102B093AA
:101D9000220220E030E048EC53EC60911F02709189
:101DA000200280912102909122020E94A212181614
:101DB00064F080E090E0A8ECB3EC80931F02909375
:101DC0002002A0932102B093220220E030E048ECF0
:101DD00053E4C701B6010E945C1487FD0CC080E08B
:101DE00090E0A8ECB3E48093170290931802A093BC
:101DF0001902B0931A0220E030E048EC53EC6091F5
:101E00001702709118028091190290911A020E9493
:101E1000A212181664F080E090E0A8ECB3EC809376
:101E2000170290931802A0931902B0931A026091BE
:101E30002F0270913002072E000C880B990B0E9424
:101E400051134B015C0180911F0290912002A091DF
:101E50002102B09122028D839E83AF83B8879C01BB
:101E6000AD01C501B4010E941A122B013C01209161
:101E70002702309128024091290250912A02298399
:101E80003A834B835C83C0901702D0901802E09095
:101E90001902F0901A020E941A12A70196010E94DC
:101EA0001A120E94201369877A878B879C87609318
:101EB0000702709308028093090290930A02298115
:101EC0003A814B815C81C301B2010E941B12A701C0
:101ED00096010E941B120E9420136D877E878F87B8
:101EE000988B60930B0270930C0280930D02909379
:101EF0000E022D813E814F815885C501B4010E949B
:101F00001B122B013C019B01AC0169817A818B8101
:101F10009C810E941B12A70196010E941A120E9426
:101F200020134B015C0160930F02709310028093A9
:101F300011029093120229813A814B815C81C30185
:101F4000B2010E941A12A70196010E941B120E9460
:101F500020136093130270931402809315029093E0
:101F6000160229853A854B855C85293E334041051B
:101F7000510560F428EE33E040E050E02093070282
:101F8000309308024093090250930A022D853E8542
:101F90004F855889293E33404105510560F428EEAC
:101FA00033E040E050E020930B0230930C0240936A
:101FB0000D0250930E0239EE831633E09306A1040E
:101FC000B10460F428EE33E040E050E020930F02CB
:101FD000309310024093110250931202693E7340F5
:101FE0008105910560F488EE93E0A0E0B0E0809375
:101FF000130290931402A0931502B09316028091DD
:10200000070290910802A0910902B0910A02803D56
:102010009740A105B10560F020ED37E040E050E0C9
:1020200020930702309308024093090250930A025A
:1020300080910B0290910C02A0910D02B0910E02C2
:10204000803D9740A105B10560F080ED97E0A0E0EC
:10205000B0E080930B0290930C02A0930D02B0931A
:102060000E0280910F0290911002A0911102B09186
:102070001202803D9740A105B10560F020ED37E0E8
:1020800040E050E020930F02309310024093110281
:10209000509312028091130290911402A0911502A4
:1020A000B0911602803D9740A105B10560F080ED2A
:1020B00097E0A0E0B0E08093130290931402A09305
:1020C0001502B09316020E94B1076093FF0170934E
:1020D000000280930102909302028BB1806F8BB952
:1020E0008091FF0190910002A0910102B091020243
:1020F00040910702509108026091090270910A0212
:10210000480F591F6A1F7B1F4093EF015093F00146
:102110006093F1017093F20140910B0250910C0217
:1021200060910D0270910E02480F591F6A1F7B1FAC
:102130004093F3015093F4016093F5017093F6011D
:1021400040910F02509110026091110270911202A1
:10215000480F591F6A1F7B1F4093F7015093F801E6
:102160006093F9017093FA014091130250911402A7
:102170006091150270911602840F951FA61FB71F5C
:102180008093FB019093FC01A093FD01B093FE01AD
:102190008BB1803108F45CC00E94B1076093FF01ED
:1021A000709300028093010290930202C090EF01AD
:1021B000D090F001E090F101F090F2016C157D05F6
:1021C0008E059F0508F05C984091F3015091F40151
:1021D0006091F5017091F6018091FF0190910002EC
:1021E000A0910102B091020284179507A607B707D4
:1021F00008F05D984091F7015091F8016091F90164
:102200007091FA018091FF0190910002A09101026A
:10221000B091020284179507A607B70708F05E98E9
:102220004091FB015091FC016091FD017091FE0114
:102230008091FF0190910002A0910102B0910202F1
:1022400084179507A607B70708F4A2CF5F98A0CF19
:102250000E94B1076093AC027093AD028093AE020E
:102260009093AF028091AC029091AD02A091AE022A
:10227000B091AF024091A8025091A9026091AA02C8
:102280007091AB02841B950BA60BB70B813A9F4054
:10229000A105B105E8F20E943C0560C8E7EFF2E055
:1022A0001382128288EE93E0A0E0B0E084839583ED
:1022B000A683B78324E031E03183208325EC30E02E
:1022C0003587248724EC30E03787268720EC30E000
:1022D000318B208B21EC30E0338B228B22EC30E0F1
:1022E000358B248B26EC30E0378B268B118E128EAB
:1022F000138E148EE4E9F3E01382128284839583B3
:10230000A683B78386E191E09183808380E090E0AB
:10231000A0E1B0E48093A8039093A903A093AA033B
:10232000B093AB038AE097EDA3EABCE38093A403E8
:102330009093A503A093A603B093A70380E090E039
:10234000A0E7B1E48093A0039093A103A093A2031C
:10235000B093A303089597FB072E16F4009407D0BB
:1023600077FD09D00E94001207FC05D03EF490953D
:1023700081959F4F0895709561957F4F0895A1E2D3
:102380001A2EAA1BBB1BFD010DC0AA1FBB1FEE1FEF
:10239000FF1FA217B307E407F50720F0A21BB30B3A
:1023A000E40BF50B661F771F881F991F1A9469F7B6
:1023B00060957095809590959B01AC01BD01CF0112
:1023C0000895052E97FB1EF400940E94F81157FD06
:1023D00007D00E94BF1107FC03D04EF40C94F811F3
:1023E00050954095309521953F4F4F4F5F4F089541
:1023F00090958095709561957F4F8F4F9F4F089571
:10240000AA1BBB1B51E107C0AA1FBB1FA617B7071A
:1024100010F0A61BB70B881F991F5A95A9F7809536
:102420009095BC01CD010895EE0FFF1F0590F4912A
:10243000E02D09945058BB27AA270E9432120C9411
:1024400022140E94141438F00E941B1420F039F456
:102450009F3F19F426F40C94D6130EF4E095E7FB95
:102460000C94D013E92F0E94331458F3BA17620763
:1024700073078407950720F079F4A6F50C9455149A
:102480000EF4E0950B2EBA2FA02D0B01B90190018F
:102490000C01CA01A0011124FF27591B99F0593FD3
:1024A00050F4503E68F11A16F040A22F232F342F1B
:1024B0004427585FF3CF469537952795A795F04069
:1024C0005395C9F77EF41F16BA0B620B730B840B7E
:1024D000BAF09150A1F0FF0FBB1F661F771F881F36
:1024E000C2F70EC0BA0F621F731F841F48F487958E
:1024F00077956795B795F7959E3F08F0B0CF939580
:10250000880F08F09927EE0F9795879508959F9368
:102510009F77EEE389379E0728F4E8E6F0E00E9413
:1025200000140CC00E948C139058A2EA2AED3FE0E0
:1025300049EC5FE30E9432120E9422140F9007FCC4
:10254000905808950E94AC1308F481E008950E9409
:10255000BB120C9422140E941B1458F00E941414F5
:1025600040F029F45F3F29F00C94D01351110C94E2
:1025700056140C94D6130E94331468F39923B1F3C4
:10258000552391F3951B550BBB27AA276217730799
:10259000840738F09F5F5F4F220F331F441FAA1F2D
:1025A000A9F335D00E2E3AF0E0E832D091505040E9
:1025B000E695001CCAF72BD0FE2F29D0660F771F97
:1025C000881FBB1F261737074807AB07B0E809F07D
:1025D000BB0B802DBF01FF2793585F4F3AF09E3F02
:1025E000510578F00C94D0130C9456145F3FE4F32B
:1025F000983ED4F3869577956795B795F7959F5F45
:10260000C9F7880F911D9695879597F90895E1E090
:10261000660F771F881FBB1F621773078407BA07EF
:1026200020F0621B730B840BBA0BEE1F88F7E0954A
:1026300008950E9420136894B1110C9456140895C3
:102640000E943B1488F09F5798F0B92F9927B751F3
:10265000B0F0E1F0660F771F881F991F1AF0BA9546
:10266000C9F714C0B13091F00E945514B1E008953B
:102670000C945514672F782F8827B85F39F0B93F2D
:10268000CCF3869577956795B395D9F73EF49095F9
:102690008095709561957F4F8F4F9F4F0895E89477
:1026A00009C097FB3EF490958095709561957F4F9A
:1026B0008F4F9F4F9923A9F0F92F96E9BB27939548
:1026C000F695879577956795B795F111F8CFFAF458
:1026D000BB0F11F460FF1BC06F5F7F4F8F4F9F4F89
:1026E00016C0882311F096E911C0772321F09EE8E7
:1026F000872F762F05C0662371F096E8862F70E04D
:1027000060E02AF09A95660F771F881FDAF7880F26
:102710009695879597F90895DF93CF931F930F931D
:102720008B01EC01ECE7F0E00E94D9130E94221427
:102730009801AE018B01EC0160E070E080E89FE35E
:102740000E941A120E94DC149801AE010F911F9191
:10275000CF91DF910C947414990F0008550FAA0BB8
:10276000E0E8FEEF16161706E807F907C0F01216A4
:102770001306E407F50798F0621B730B840B950BA7
:1027800039F40A2661F0232B242B252B21F40895FC
:102790000A2609F4A140A6958FEF811D811D089599
:1027A00097F99F6780E870E060E008959FEF80EC04
:1027B0000895DF93CF931F930F93FF92EF92DF92D1
:1027C0007B018C01689406C0DA2EEF010E9474141C
:1027D000FE01E894A5912591359145915591A6F377
:1027E000EF010E943212FE019701A801DA9469F705
:1027F000DF90EF90FF900F911F91CF91DF9108959F
:102800009F938F937F936F93FF93EF939B01AC0103
:102810000E946114EF91FF910E94D9132F913F9173
:102820004F915F910C94611400240A9416161706B8
:1028300018060906089500240A94121613061406B1
:1028400005060895092E0394000C11F4882352F014
:10285000BB0F40F4BF2B11F460FF04C06F5F7F4FCC
:102860008F4F9F4F089557FD9058440F551F59F0B3
:102870005F3F71F04795880F97FB991F61F09F3F6D
:1028800079F087950895121613061406551FF2CF96
:102890004695F1DF08C0161617061806991FF1CFE6
:1028A00086957105610508940895E894BB2766270D
:1028B0007727CB0197F908950E94AC1308F48FEFA6
:1028C00008950E9474140C9422140E94141438F079
:1028D0000E941B1420F0952311F00C94D0130C943B
:1028E000D61311240C9456140E94331470F3959F40
:1028F000C1F3950F50E0551F629FF001729FBB27F7
:10290000F00DB11D639FAA27F00DB11DAA1F649F92
:102910006627B00DA11D661F829F2227B00DA11D45
:10292000621F739FB00DA11D621F839FA00D611DCB
:10293000221F749F3327A00D611D231F849F600DEC
:10294000211D822F762F6A2F11249F5750409AF015
:10295000F1F088234AF0EE0FFF1FBB1F661F771FA1
:10296000881F91505040A9F79E3F510580F00C946C
:10297000D0130C9456145F3FE4F3983ED4F386953D
:1029800077956795B795F795E7959F5FC1F7FE2B0C
:10299000880F911D9695879597F908959F930E94AA
:1029A00038150F9007FCEE5F0C94611519F416F4BE
:1029B0000C94D6130C9421150E943B14B8F3992360
:1029C000C9F3B6F39F57550B87FF0E942F150024BC
:1029D000A0E640EA900180585695979528F4805CCF
:1029E000660F771F881F20F026173707480730F437
:1029F000621B730B840B202931294A2BA69517944F
:102A00000794202531254A2758F7660F771F881F1E
:102A100020F026173707480730F4620B730B840B3E
:102A2000200D311D411DA09581F7B901842F9158CA
:102A3000880F9695879508950E94AC13880B990B83
:102A400008959F3F31F0915020F4879577956795D1
:102A5000B795880F911D9695879597F90895915090
:102A60005040660F771F881FD2F708950C94D61335
:102A70000E943B14D8F3E894E0E0BB279F57F0F0A6
:102A80002AED3FE049EC06C0EE0FBB0F661F771F33
:102A9000881F28F0B23A62077307840728F0B25AF9
:102AA000620B730B840BE3959A9572F7803830F4C0
:102AB0009A95BB0F661F771F881FD2F790480C941A
:102AC0002315EF93E0FF07C0A2EA2AED3FE049ECAF
:102AD0005FEB0E9432120E9422140F90039401FCBB
:102AE0009058E4EAF0E00C94001481E090E0F8944F
:082AF0000C947A15F894FFCF55
:102AF800000000002106B100FF048F0730050E0515
:102B08002205000000006601390196010D0131011E
:102B18001D010E01000070410AD7A33C00001040BF
:102B280020616E676C655B315D200020616E676CAB
:102B3800655B325D2000206779726F5B315D200034
:102B480020677972705B325D20000D0A006E616E3D
:0A2B580000696E66006F76660000EB
:00000001FF
